:100000000C942E000C944B000C944B000C944B0061
:100010000C944B000C944B000C944B000C944B0034
:100020000C944B000C944B000C94E1000C944B008E
:100030000C944B000C944B000C944B000C944B0014
:100040000C944B000C944B000C944B000C944B0004
:100050000C944B000C944B000C944B0011241FBECD
:10006000CFEFD8E0DEBFCDBF12E0A0E0B1E0E4E426
:10007000F1E102C005900D92A432B107D9F713E067
:10008000A4E2B2E001C01D92A63AB107E1F70E94D6
:100090008F010C94A0080C940000719827E030E0C8
:1000A000992787FD9095AC01022E02C05595479582
:1000B0000A94E2F740FF03C04EB14C6302C04EB158
:1000C000437C4EB9709A70982150310960F787E0EF
:1000D00090E0772767FD70959B01082E02C035954B
:1000E00027950A94E2F720FF03C02EB12C6302C0CB
:1000F0002EB1237C2EB9709A7098019768F7719A87
:1001000008950F931F937198E7E0F0E0992787FD1A
:100110009095DC010E2E02C0B595A7950A94E2F7E2
:100120003EB1A0FF02C03C6301C0337C3EB9709A6F
:100130007098319770F787E090E0772767FD7095AA
:10014000552747FD5095332727FD3095112707FD8B
:100150001095E82FDB01082E02C0B595A7950A94EB
:10016000E2F7A0FF02C0759A01C07598DA010E2E61
:1001700002C0B595A7950A94E2F7A0FF02C0749A51
:1001800001C07498D9010E2E02C0B595A7950A94A6
:10019000E2F7A0FF02C0739A01C07398D80102C0B1
:1001A000B595A795EA95E2F7A0FF02C0729A01C043
:1001B0007298709A7098019760F6719A1F910F91DA
:1001C00008951F920F920FB60F9211248F9381E022
:1001D0008093240216BC8F910F900FBE0F901F903A
:1001E0001895CF93DF93E6E6F3E086E292E0C6E46B
:1001F000D3E046E853E01192DC011D92CD01199243
:10020000DA011D92AD01B3E0E638FB07A1F7DF91FB
:10021000CF9108951F93CF93DF9390E0FC01EA59AB
:10022000FC4F7081C62FD0E0FC01EA5DFD4F2081BC
:10023000272730E0062E02C0359527950A94E2F76D
:10024000DC01AA5BBC4F20FF2FC01C91E12FE727E8
:10025000F0E0062E02C0F595E7950A94E2F7E0FF7C
:100260005AC0472F50E0062E02C0559547950A9474
:10027000E2F740FF0CC021E030E002C0220F331F44
:100280006A95E2F78A579C4FFC0120833FC0FC012E
:1002900033E0EE0FFF1F3A95E1F7EC0FFD1FEA5B2D
:1002A000FD4F88E0808337C01C91412F472750E0E5
:1002B000062E02C0559547950A94E2F740FF2BC0E1
:1002C000FC0123E0EE0FFF1F2A95E1F7EC0FFD1F65
:1002D000EA5BFD4F20812223F1F02150208322236D
:1002E000D1F421E030E0062E02C0220F331F0A9421
:1002F000E2F7FC01EA57FC4F2083872F90E002C011
:10030000959587956A95E2F780FF02C0212B02C080
:10031000209521232C93DF91CF911F910895AEEB6F
:10032000B1E0E5E9F1E00C947D088FEF8DB990E73D
:1003300094B99CE097B91AB81EB815B81BB811B893
:1003400010BA82B981BB83E491E08C0F9D1F809627
:10035000FE01ED5BFE4F1192E817F907E1F760E24D
:1003600072E0CE018D5B9E4F0E94990867E08BE0A2
:100370000E944D006FE08AE00E944D0011E060E0B5
:10038000812F0E944D001F5F1930C9F761E08CE09A
:100390000E944D0060E08FE00E944D0000E020E0F0
:1003A00040E06CE088E00E9481002FEF3FE143E0F5
:1003B000215030404040E1F700C000006DE08AE08D
:1003C0000E944D0020E040E062E188E00E94810050
:1003D00020E040E06CE087E00E9481005FEF8FE169
:1003E00093E0515080409040E1F700C000006BE086
:1003F0008AE00E944D0020E040E061E288E00E9437
:10040000810020E040E062E187E00E94810020E07E
:1004100040E06CE086E00E948100AFEFBFE1E3E0E6
:10042000A150B040E040E1F700C0000011E060E002
:10043000812F0E944D001F5F1930C9F76FE08AE0DD
:100440000E944D00FE01EF5FFE4FC554DE4FE88372
:10045000CB5BD140C454DE4FF883CC5BD140CF019D
:100460000A961192E817F907E1F72E01FDE74F1AF6
:10047000FEEF5F0AD2011C9211961C921197129600
:100480001C92129713961C92139714961C92149711
:1004900015961C92159716961C92169717961C92F5
:1004A000179718961C92189719961C9219971A96D6
:1004B0001C921A971B961C921B971C961C921C97B9
:1004C0001D961C921D971E961C921E971F961C929D
:1004D0001F9750961C92509751961C925197529686
:1004E0001C92529753961C92539754961C92549771
:1004F00055961C92559756961C92569757961C9255
:10050000579758961C92589759961C9259975A96F5
:100510001C925A975B961C925B975C961C925C9718
:100520005D961C925D975E961C925E975F961C92FC
:100530000E94F10084B5846084BD80916E00826069
:1005400080936E0082E087BD7894CD55DE4F18828F
:10055000C35AD140D12C54E610E088248394912CC6
:100560007201E1E0F1E0EC0FFD1F3396C754DE4F5E
:10057000F983E883C95BD14022242394312C2C0ECB
:100580003D1E1BB81AB800E0C12CA3C24398F5E089
:10059000FA95F1F7000089B1E1E0F1E0EC0FFD1F01
:1005A000E10FF11D8083439A111112C0CF5FDE4F1E
:1005B0008881C150D140803260F4E82FF0E0E050F3
:1005C000FF4F9081D82E992321F0592F11E001C0BF
:1005D0001F5F15137EC2D11025C0F101E00FF11D80
:1005E0001082802F8F5FF101E80FF11D21E0208341
:1005F0008F5FF101E80FF11D84E08083902F9D5FF4
:10060000F101E90FF11D10829F5FF101E90FF11D6A
:1006100092E09083902F9B5FF101E90FF11D8083A1
:100620000A5F55C231E0D31215C0F101E00FF11D90
:10063000D082802F8F5F902F9F5DFE01ED5BFE4F7C
:100640002191D101A80FB11D2C938F5F8913F8CF91
:100650000F5D3DC245E0D41214C0F101E00FF11D61
:1006600083E08083802F8F5FF101E80FF11D80E12F
:100670008083902F9E5FF101E90FF11D80830D5F54
:1006800026C250E1D5122AC0CE5FDE4F9881C250FB
:10069000D140CD5FDE4F8881C350D140E82FE69531
:1006A000E695E695EE0F292F269526952695E20FDD
:1006B00090959770A8E0EA9FF0011124E90FF11DD1
:1006C000EE0DFF1D8770940102C0220F331F8A9523
:1006D000E2F7C9018095908189232BC131E1D312C2
:1006E0002AC0CE5FDE4F9881C250D140CD5FDE4F31
:1006F0008881C350D140E82FE695E695E695EE0F48
:10070000292F269526952695E20F9095977048E01B
:10071000E49FF0011124E90FF11DEE0DFF1D87701C
:10072000D40102C0AA0FBB1F8A95E2F7CD019081C8
:10073000982B9083CBC1B2E1DB1222C0F70110826B
:1007400011821282138214821582168217821086F9
:100750001186128613861486158616861786108AC9
:10076000118A128A138A148A158A168A178A108E99
:10077000118E128E138E148E158E168E178EA6C1A4
:10078000F3E1DF1260C08FEFD7018C9311968C9349
:10079000119712968C93129713968C931397149625
:1007A0008C93149715968C93159716968C93169791
:1007B00017968C93179718968C93189719968C9375
:1007C00019971A968C931A971B968C931B971C96C5
:1007D0008C931C971D968C931D971E968C931E9739
:1007E0001F968C931F9750968C93509751968C938D
:1007F000519752968C93529753968C935397549645
:100800008C93549755968C93559756968C935697F0
:1008100057968C93579758968C93589759968C93D4
:1008200059975A968C935A975B968C935B975C96E4
:100830008C935C975D968C935D975E968C935E9798
:100840005F968C9343C1B4E1DB124CC0CD5FDE4FA9
:100850002881C350D140269526952695220FCE5F3C
:10086000DE4F8881C250D140869586958695280FA7
:10087000C754DE4FA881B981C95BD14080E090E0C8
:100880005701E8E02E9FA00CB11C1124B401082EE2
:1008900001C0660F0A94EAF7662EED91F0E0E05E83
:1008A000FE4F408150E0F50120E030E0762E70945C
:1008B000BA01022E02C0759567950A94E2F760FFAF
:1008C00003C06081662902C06081672160832F5F59
:1008D0003F4F31962830310559F701968830910500
:1008E000A9F6F4C0F6E1DF1226C0CE5FDE4F988194
:1008F000C250D140E92FF0E0E095F095E770FF2776
:10090000CD5FDE4F8881C350D14086958695869510
:10091000880F969596959695890F28E0829FE00D11
:10092000F11D1124EE0DFF1DCC5FDE4F8881C450F8
:10093000D1408083CBC035E1D31243C0CD5FDE4FC1
:100940008881C350D140282F2770A40102C0440FD2
:10095000551F2A95E2F79A01CC5FDE4FE881C4501B
:10096000D140F0E0E05EFE4F5081869586958695F9
:10097000880FCE5FDE4F9881C250D14096959695F4
:100980009695890FF70198E0899FE00DF11D1124DC
:1009900080E090E0622F60959401082E01C0220F44
:1009A0000A94EAF7252321F02081242B208303C019
:1009B000308136233083019631968830910561F776
:1009C00085C0A7E1DA120AC0CE5FDE4F6881C2504F
:1009D000D1406F708AE00E944D0079C0BAE1DB120D
:1009E00076C0CD5FDE4F4881C350D14046954695D5
:1009F0004695440FCE5FDE4F8881C250D140869528
:100A000086958695480FC554DE4F3881CB5BD14023
:100A1000CC55DE4F3883C45AD140C454DE4F588180
:100A2000CC5BD140CB55DE4F5883C55AD14020E036
:100A300030E0B70188E0489F600D711D1124695FA7
:100A40007F4FD401022E01C0AA0F0A94EAF76A2E42
:100A5000FB0140E050E07A2E7094CC55DE4FA88127
:100A6000B981C45AD140A40FB51F1396BC91A0817F
:100A7000B7FF02C0A62901C0A721A083BF70AB2E7B
:100A8000B12CDF01119798E0A916B1041CF0BC90BD
:100A9000B62802C0BC90B720BC924F5F5F4F329720
:100AA00044305105D1F62F5F3F4FCC55DE4FA88122
:100AB000B981C45AD1401496CC55DE4FB983A8836E
:100AC000C45AD1402830310509F0BBCFC394512F0F
:100AD00010E0319B5BCD80912402882309F4B2C2DF
:100AE000109224021BB88FEF8AB9CD55DE4F3881A2
:100AF000C35AD140832F90E0DC01AA5DBD4FFC01B9
:100B0000EA59FC4F20812C939C01285F3F4FB9018B
:100B10006A5D7D4F2A593C4FD9012C91DB012C9302
:100B20009C01205F3F4FB9016A5D7D4F2A593C4FC0
:100B3000D9012C91DB012C939C01285E3F4FB90118
:100B40006A5D7D4F2A593C4FD9012C91DB012C93D2
:100B5000B5E1BA95F1F70000779A2AE02A95F1F706
:100B600000C0A12CB12CCC55DE4FF983E883C45AC8
:100B7000D1409C012A573C4FC255DE4F3983288310
:100B8000CE5AD14037E0CD55DE4F9881C35AD1407F
:100B9000391BCA55DE4F3883C65AD140985FC055BD
:100BA000DE4F9883C05BD140292F30E0CF54DE4F19
:100BB00039832883C15BD1402A593C4FC855DE4F49
:100BC00039832883C85AD140CD55DE4F9881C35A06
:100BD000D140905FCD54DE4F9883C35BD140292F25
:100BE00030E0CC54DE4F39832883C45BD1402A598E
:100BF0003C4FC655DE4F39832883CA5AD140CD5564
:100C0000DE4F9881C35AD140985ECA54DE4F988314
:100C1000C65BD140292F30E0C954DE4F3983288389
:100C2000C75BD1402A593C4FC455DE4F39832883D6
:100C3000CC5AD1406A2C83B183FB332730F983FD32
:100C400010C0C4010A2C01C0880F0A94EAF7CC55E1
:100C5000DE4FA881B981C45AD1409C91982B9C93B6
:100C600010C0C4010A2C01C0880F0A94EAF78095CD
:100C7000CC55DE4FE881F981C45AD1409081892357
:100C80008083662DCD55DE4F8881C35AD140C35431
:100C9000DE4F3883CD5BD140C254DE4F5883CE5BEC
:100CA000D1400E940A01C255DE4FA881B981CE5AB7
:100CB000D1402C917A2C822F90E00A2C02C095957D
:100CC00087950A94E2F7C354DE4F3881CD5BD1405B
:100CD000C254DE4F5881CE5BD14080FF24C0C40196
:100CE0000A2C01C0880F0A94EAF7809582238C931E
:100CF000E02FF0E0311102C081E201C080E2E20D9C
:100D0000F31D8083802F8F5FF101E80FF11DCA551D
:100D1000DE4F2881C65AD14020838F5FF101E80F52
:100D2000F11D60820D5F83B182FB332730F982FDB4
:100D300010C0C401072C01C0880F0A94EAF7C855F7
:100D4000DE4FA881B981C85AD1409C91982B9C93C1
:100D500010C0C401072C01C0880F0A94EAF78095DF
:100D6000C855DE4FE881F981C85AD1409081892366
:100D70008083662DC055DE4F8881C05BD140C3544F
:100D8000DE4F3883CD5BD140C254DE4F5883CE5BFB
:100D9000D1400E940A01CF54DE4FE881F981C15B46
:100DA000D140EA57FC4F2081822F90E0072C02C0EF
:100DB000959587950A94E2F7C354DE4F3881CD5B51
:100DC000D140C254DE4F5881CE5BD14080FF27C056
:100DD000C401072C01C0880F0A94EAF7809582238A
:100DE0008083E02FF0E0311102C081E201C080E297
:100DF000E20DF31D8083802F8F5FF101E80FF11D5D
:100E00008FE0CD55DE4F3881C35AD140831B80839C
:100E1000802F8E5FF101E80FF11D60820D5F83B1BD
:100E200081FB332730F981FD10C0C401072C01C0BC
:100E3000880F0A94EAF7C655DE4FA881B981CA5ACD
:100E4000D1409C91982B9C9310C0C401072C01C0E9
:100E5000880F0A94EAF78095C655DE4FE881F9813C
:100E6000CA5AD140908189238083662DCD54DE4FAC
:100E70008881C35BD140C354DE4F3883CD5BD14002
:100E8000C254DE4F5883CE5BD1400E940A01CC543D
:100E9000DE4FE881F981C45BD140EA57FC4F2081E5
:100EA000822F90E0072C02C0959587950A94E2F76F
:100EB000C354DE4F3881CD5BD140C254DE4F5881E0
:100EC000CE5BD14080FF26C0C401072C01C0880F33
:100ED0000A94EAF7809582238083E02FF0E03111B5
:100EE00002C081E201C080E2E20DF31D8083802F09
:100EF0008F5FF101E80FF11DCA55DE4F2881C65AF8
:100F0000D14020838F5FF101E80FF11D862D885FAE
:100F100080830D5F83B1382F317080FD10C0C40114
:100F2000072C01C0880F0A94EAF7C455DE4FA88148
:100F3000B981CC5AD1409C91982B9C9310C0C4018C
:100F4000072C01C0880F0A94EAF78095C455DE4F3C
:100F5000E881F981CC5AD140908189238083662D24
:100F6000CA54DE4F8881C65BD140C354DE4F3883FC
:100F7000CD5BD140C254DE4F5883CE5BD1400E943E
:100F80000A01C954DE4FE881F981C75BD140EA57B5
:100F9000FC4F2081822F90E0072C02C09595879509
:100FA0000A94E2F7C354DE4F3881CD5BD140C2547E
:100FB000DE4F5881CE5BD14080FF29C0C401072C91
:100FC00001C0880F0A94EAF7809582238083E02F7E
:100FD000F0E0311102C081E201C080E2E20DF31DB8
:100FE0008083802F8F5FF101E80FF11D8FE0CD55D9
:100FF000DE4F3881C35AD140831B8083802F8E5FA0
:10100000F101E80FF11D862D885F80830D5F769AD0
:1010100076984FEFA41AB40A88E0A816B10409F034
:1010200009CE7798CD55DE4F9881C35AD1409F5F46
:101030009770CD55DE4F9883C35AD140892F829542
:10104000807F85B9011103C0C1100FC09ACA1BB8B7
:101050008FEF8AB9F10104C0429A81918BB942980D
:101060008E2F82198017C0F3EFCFD7015896CC5539
:10107000DE4FB983A883C45AD1403701B0E16B0E6B
:10108000711CF7013896CA55DE4FF983E883C65ABA
:10109000D1405201C12CCC55DE4FA881B981C45A30
:1010A000D1400D91CC55DE4FB983A883C45AD140AD
:1010B000F30121913F01CA55DE4FA881B981C65A7B
:1010C000D1404D91CA55DE4FB983A883C65AD1404D
:1010D000F50161915F01C3948C2DC254DE4F58839A
:1010E000CE5BD1400E948100C254DE4F5881CE5B5E
:1010F000D140F8E0CF12CFCF44CA2F923F924F9207
:101100005F926F927F928F929F92AF92BF92CF9297
:10111000DF92EF92FF920F931F93CF93DF93CDB7A0
:10112000DEB7CA1BDB0B0FB6F894DEBF0FBECDBF18
:101130000994FB01DC0101900D920020E1F7089574
:04114000F894FFCF51
:10114400010121010401030103000000000000016A
:10115400030301010B040402040223070700000037
:10116400008040C020A060E0109050D030B070F0FB
:10117400088848C828A868E8189858D838B878F86B
:10118400048444C424A464E4149454D434B474F49B
:101194000C8C4CCC2CAC6CEC1C9C5CDC3CBC7CFC0B
:1011A400028242C222A262E2129252D232B272F29B
:1011B4000A8A4ACA2AAA6AEA1A9A5ADA3ABA7AFA0B
:1011C400068646C626A666E6169656D636B676F63B
:1011D4000E8E4ECE2EAE6EEE1E9E5EDE3EBE7EFEAB
:1011E400018141C121A161E1119151D131B171F16B
:1011F400098949C929A969E9199959D939B979F9DB
:10120400058545C525A565E5159555D535B575F50A
:101214000D8D4DCD2DAD6DED1D9D5DDD3DBD7DFD7A
:10122400038343C323A363E3139353D333B373F30A
:101234000B8B4BCB2BAB6BEB1B9B5BDB3BBB7BFB7A
:10124400078747C727A767E7179757D737B777F7AA
:101254000F8F4FCF2FAF6FEF1F9F5FDF3FBF7FFF1A
:041264006D6B0000AE
:00000001FF
