:100000000C942E000C944B000C944B000C944B0061
:100010000C944B000C944B000C944B000C944B0034
:100020000C944B000C944B000C94E1000C944B008E
:100030000C944B000C944B000C944B000C944B0014
:100040000C944B000C944B000C944B000C944B0004
:100050000C944B000C944B000C944B0011241FBECD
:10006000CFEFD8E0DEBFCDBF12E0A0E0B1E0EEE11F
:10007000FFE002C005900D92A432B107D9F713E05A
:10008000A4E2B2E001C01D92A63AB107E1F70E94D6
:100090008F010C948D070C940000719827E030E0DC
:1000A000992787FD9095AC01022E02C05595479582
:1000B0000A94E2F740FF03C04EB14C6302C04EB158
:1000C000437C4EB9709A70982150310960F787E0EF
:1000D00090E0772767FD70959B01082E02C035954B
:1000E00027950A94E2F720FF03C02EB12C6302C0CB
:1000F0002EB1237C2EB9709A7098019768F7719A87
:1001000008950F931F937198E7E0F0E0992787FD1A
:100110009095DC010E2E02C0B595A7950A94E2F7E2
:100120003EB1A0FF02C03C6301C0337C3EB9709A6F
:100130007098319770F787E090E0772767FD7095AA
:10014000552747FD5095332727FD3095112707FD8B
:100150001095E82FDB01082E02C0B595A7950A94EB
:10016000E2F7A0FF02C0759A01C07598DA010E2E61
:1001700002C0B595A7950A94E2F7A0FF02C0749A51
:1001800001C07498D9010E2E02C0B595A7950A94A6
:10019000E2F7A0FF02C0739A01C07398D80102C0B1
:1001A000B595A795EA95E2F7A0FF02C0729A01C043
:1001B0007298709A7098019760F6719A1F910F91DA
:1001C00008951F920F920FB60F9211248F9381E022
:1001D0008093240216BC8F910F900FBE0F901F903A
:1001E0001895CF93DF93E6E6F3E086E292E0C6E46B
:1001F000D3E046E853E01192DC011D92CD01199243
:10020000DA011D92AD01B3E0E638FB07A1F7DF91FB
:10021000CF9108951F93CF93DF9390E0FC01EA59AB
:10022000FC4F7081C62FD0E0FC01EA5DFD4F2081BC
:10023000272730E0062E02C0359527950A94E2F76D
:10024000DC01AA5BBC4F20FF2FC01C91E12FE727E8
:10025000F0E0062E02C0F595E7950A94E2F7E0FF7C
:100260005AC0472F50E0062E02C0559547950A9474
:10027000E2F740FF0CC021E030E002C0220F331F44
:100280006A95E2F78A579C4FFC0120833FC0FC012E
:1002900033E0EE0FFF1F3A95E1F7EC0FFD1FEA5B2D
:1002A000FD4F88E0808337C01C91412F472750E0E5
:1002B000062E02C0559547950A94E2F740FF2BC0E1
:1002C000FC0123E0EE0FFF1F2A95E1F7EC0FFD1F65
:1002D000EA5BFD4F20812223F1F02150208322236D
:1002E000D1F421E030E0062E02C0220F331F0A9421
:1002F000E2F7FC01EA57FC4F2083872F90E002C011
:10030000959587956A95E2F780FF02C0212B02C080
:10031000209521232C93DF91CF911F910895A4EB79
:10032000B1E0E5E9F1E00C946A078FEF8DB990E751
:1003300094B99CE097B91AB81EB815B81BB811B893
:1003400010BA82B981BB83E491E08C0F9D1F809627
:10035000FE01ED5BFE4F1192E817F907E1F760E24D
:1003600072E0CE018D5B9E4F0E94860767E08BE0B6
:100370000E944D006FE08AE00E944D0011E060E0B5
:10038000812F0E944D001F5F1930C9F761E08CE09A
:100390000E944D0060E08FE00E944D0000E020E0F0
:1003A00040E06CE088E00E9481002FEF4FE153E0D5
:1003B000215040405040E1F700C000006DE08AE06D
:1003C0000E944D0020E040E062E188E00E94810050
:1003D00020E040E06CE087E00E9481006FEF7FE169
:1003E00083E0615070408040E1F700C000006BE0A6
:1003F0008AE00E944D0020E040E061E288E00E9437
:10040000810020E040E062E187E00E94810020E07E
:1004100040E06CE086E00E9481009FEFAFE1B3E036
:100420009150A040B040E1F700C0000011E060E052
:10043000812F0E944D001F5F1930C9F76FE08AE0DD
:100440000E944D00FE01EF5FFE4FC155DE4FE88375
:10045000CF5AD140C055DE4FF883C05BD140CF01A9
:100460000A961192E817F907E1F76E01EDE7CE1A47
:10047000EEEFDE0AD6011C9211961C92119712968D
:100480001C92129713961C92139714961C92149711
:1004900015961C92159716961C92169717961C92F5
:1004A000179718961C92189719961C9219971A96D6
:1004B0001C921A971B961C921B971C961C921C97B9
:1004C0001D961C921D971E961C921E971F961C929D
:1004D0001F9750961C92509751961C925197529686
:1004E0001C92529753961C92539754961C92549771
:1004F00055961C92559756961C92569757961C9255
:10050000579758961C92589759961C9259975A96F5
:100510001C925A975B961C925B975C961C925C9718
:100520005D961C925D975E961C925E975F961C92FC
:100530000E94F10084B5846084BD80916E00826069
:1005400080936E0082E087BD7894CD55DE4F18828F
:10055000C35AD14030E074E610E044244394512C57
:100560007601E1E0F1E0EC0FFD1F3396C355DE4F5D
:10057000F983E883CD5AD14022242394312C2C0EC8
:100580003D1E1BB81AB800E0912C9CC24398F5E0C0
:10059000FA95F1F7000089B1E1E0F1E0EC0FFD1F01
:1005A000E10FF11D8083439A111112C0CF5FDE4F1E
:1005B0008881C150D140803260F4E82FF0E0E050F3
:1005C000FF4F9081382F992321F0792F11E001C03E
:1005D0001F5F171377C2311123C0F101E00FF11D26
:1005E0001082802F8F5FF101E80FF11D21E0208341
:1005F0008F5FF101E80FF11D82E08083902F9D5FF6
:10060000F101E90FF11D10829F5FF101E90FF11D6A
:1006100080839F5FF101E90FF11D80830A5F50C263
:100620003130A9F4F101E00FF11D3083802F8F5F8D
:10063000902F9F5DFE01ED5BFE4F2191D101A80F30
:10064000B11D2C938F5F8913F8CF0F5D39C2353000
:10065000A9F4F101E00FF11D83E08083802F8F5F0B
:10066000F101E80FF11D80E18083802F8E5FF101A1
:10067000E80FF11D88E080830D5F22C2303151F513
:10068000CE5FDE4F9881C250D140CD5FDE4F888172
:10069000C350D140E82FE695E695E695EE0F292F59
:1006A000269526952695E20F9095977048E0E49F51
:1006B000F0011124E90FF11DEE0DFF1D8770B2014D
:1006C00002C0660F771F8A95E2F7CB018095908173
:1006D000892328C1313151F5CE5FDE4F9881C25058
:1006E000D140CD5FDE4F8881C350D140E82FE695E1
:1006F000E695E695EE0F292F269526952695E20F8D
:100700009095977078E0E79FF0011124E90FF11DB3
:10071000EE0DFF1D8770D20102C0AA0FBB1F8A9584
:10072000E2F7CD019081982B9083C9C1323111F548
:10073000F7011082118212821382148215821682AE
:1007400017821086118612861386148615861686E1
:100750001786108A118A128A138A148A158A168AB1
:10076000178A108E118E128E138E148E158E168E81
:10077000178EA5C1333109F060C08FEFD7018C937C
:1007800011968C93119712968C93129713968C93C3
:10079000139714968C93149715968C931597169619
:1007A0008C93169717968C93179718968C93189787
:1007B00019968C9319971A968C931A971B968C936B
:1007C0001B971C968C931C971D968C931D971E96B9
:1007D0008C931E971F968C931F9750968C935097CF
:1007E00051968C93519752968C93529753968C9323
:1007F000539754968C93549755968C935597569639
:100800008C93569757968C93579758968C935897E6
:1008100059968C9359975A968C935A975B968C93CA
:100820005B975C968C935C975D968C935D975E96D8
:100830008C935E975F968C9342C1343109F04CC023
:10084000CD5FDE4F2881C350D14026952695269551
:10085000220FCE5FDE4F8881C250D14086958695AB
:100860008695280FC355DE4FA881B981CD5AD14056
:1008700080E090E03701E8E02E9F600C711C1124AD
:10088000B201082E01C0660F0A94EAF7262FED91F7
:10089000F0E0E05EFE4FA080B12CF30140E050E0BC
:1008A000862E8094B501042E02C0759567950A9432
:1008B000E2F760FF03C06081622B02C060816821A3
:1008C00060834F5F5F4F31964830510559F701966D
:1008D00088309105A9F6F3C0363131F5CE5FDE4F91
:1008E0009881C250D140E92FF0E0E095F095E77093
:1008F000FF27CD5FDE4F8881C350D1408695869516
:100900008695880F969596959695890F28E0829FF3
:10091000E00DF11D1124EE0DFF1DCC5FDE4F88812F
:10092000C450D1408083CBC0353109F044C0CD5F85
:10093000DE4F8881C350D140482F4770B20102C0BA
:10094000660F771F4A95E2F7AB01262FCC5FDE4F8B
:10095000E881C450D140F0E0E05EFE4F60818695B2
:1009600086958695880FCE5FDE4F9881C250D14024
:10097000969596959695890FF70178E0879FE00DFB
:10098000F11D112480E090E0742F7095A201082ED3
:1009900001C0440F0A94EAF7462321F04081422B1C
:1009A000408303C05081572350830196319688308D
:1009B000910561F784C03731B1F4CE5FDE4F6881B5
:1009C000C250D1406F708AE0CC54DE4F3883C45B94
:1009D000D1400E944D00712F10E0CC54DE4F388181
:1009E000C45BD1406FC03A3109F06AC0CD5FDE4FC1
:1009F0002881C350D140269526952695220FCE5F9B
:100A0000DE4F8881C250D140869586958695280F05
:100A1000C155DE4F6880CF5AD140C055DE4F788037
:100A2000C05BD14080E090E0B701A8E02A9F600D54
:100A3000711D1124695F7F4FD201082E01C0AA0FDA
:100A40000A94EAF7CC55DE4FA883C45AD140FB0183
:100A500040E050E08A2E8094D301A40FB51F139676
:100A6000BC91A081B7FF07C0CC55DE4F2881C45A86
:100A7000D140A22B01C0A821A083BF70AB2EB12C06
:100A8000DF01119728E0A216B10444F0BC90CC55C8
:100A9000DE4F2881C45AD140B22A02C0BC90B8208F
:100AA000BC924F5F5F4F329744305105A9F60196D3
:100AB00044E0640E711C8830910509F0BDCF939419
:100AC000712F10E0319B62CD80912402882309F4BC
:100AD000A1C1109224021BB88FEF8AB9CD55DE4F09
:100AE0005881C35AD140852F90E0DC01AA5DBD4FEB
:100AF000FC01EA59FC4F20812C93AC01485F5F4F09
:100B000026E2A22E22E0B22EA40EB51E4A595C4F58
:100B1000DA012C91D5012C93AC01405F5F4F66E266
:100B2000A62E62E0B62EA40EB51E4A595C4FDA011D
:100B30002C91D5012C93AC01485E5F4FA6E2AA2E02
:100B4000A2E0BA2EA40EB51E4A595C4FDA012C91D0
:100B5000D5012C93B5E1BA95F1F70000779A2AE018
:100B60002A95F1F700C0A12CB12CCC55DE4FF983AA
:100B7000E883C45AD140AC014A575C4FC855DE4F98
:100B800059834883C85AD140B7E08B2ECD55DE4FEC
:100B90005881C35AD140851A585FC655DE4F5883D5
:100BA000CA5AD140852F90E0AC014A595C4FCA55D2
:100BB000DE4F59834883C65AD140AC014A575C4F37
:100BC000C555DE4F59834883CB5AD1402FE0CD55D0
:100BD000DE4F5881C35AD140251B6A2C83B183FB59
:100BE000992790F9A2010A2C01C0440F0A94EAF750
:100BF00083FD0AC0CC55DE4FA881B981C45AD140CB
:100C00008C91842B8C930AC04095CC55DE4FE881A3
:100C1000F981C45AD140808148234083662DCD5547
:100C2000DE4F8881C35AD140CF54DE4F2883C15B49
:100C3000D140CC54DE4F3883C45BD140CE54DE4F1C
:100C40007883C25BD140CD54DE4F9883C35BD140E3
:100C50000E940A01C855DE4FA881B981C85AD14007
:100C60008C917A2C482F50E00A2C02C0559547955C
:100C70000A94E2F7CF54DE4F2881C15BD140CC54B7
:100C8000DE4F3881C45BD140CE54DE4F7881C25BE9
:100C9000D140CD54DE4F9881C35BD14040FF1FC08F
:100CA000A2010A2C01C0440F0A94EAF74095482398
:100CB0004C93E02FF0E0911102C081E201C080E28C
:100CC000E20DF31D8083802F8F5FF101E80FF11D8E
:100CD00080828F5FF101E80FF11D60820D5F83B1AB
:100CE00082FB992790F9A201072C01C0440F0A94B6
:100CF000EAF782FD0AC0CA55DE4FE881F981C65A7B
:100D0000D1408081842B80830AC04095CA55DE4F34
:100D1000A881B981C65AD1408C9148234C93662D45
:100D2000C655DE4F8881CA5AD140CF54DE4F288342
:100D3000C15BD140CC54DE4F3883C45BD140CE542C
:100D4000DE4F7883C25BD140CD54DE4F9883C35BC6
:100D5000D1400E940A01C555DE4FE881F981CB5A86
:100D6000D1408081482F50E0072C02C0559547950F
:100D70000A94E2F7CF54DE4F2881C15BD140CC54B6
:100D8000DE4F3881C45BD140CE54DE4F7881C25BE8
:100D9000D140CD54DE4F9881C35BD14040FF1FC08E
:100DA000A201072C01C0440F0A94EAF7409548239A
:100DB0004083E02FF0E0911102C081E201C080E2A7
:100DC000E20DF31D8083802F8F5FF101E80FF11D8D
:100DD00020838F5FF101E80FF11D60820D5F769A2D
:100DE0007698FFEFAF1ABF0A48E0A416B10409F0E5
:100DF000F4CE7798CD55DE4F5881C35AD1405F5F0E
:100E00005770CD55DE4F5883C35AD140852F8295F8
:100E1000807F85B9011103C091100FC0B2CB1BB800
:100E20008FEF8AB9F10104C0429A81918BB942983F
:100E30008E2F82198017C0F3EFCFC7014896CC558B
:100E4000DE4F99838883C45AD140370190E1690EFF
:100E5000711C4701A8E08A0E911C560190E0CC5508
:100E6000DE4FE881F981C45AD1400191CC55DE4F63
:100E7000F983E883C45AD140D3012D913D01F40197
:100E800041914F01D5016D915D019F5F892FCC5438
:100E9000DE4F3883C45BD140CE54DE4F7883C25BD3
:100EA000D140CD54DE4F9883C35BD1400E94810076
:100EB000CD54DE4F9881C35BD140CC54DE4F388196
:100EC000C45BD140CE54DE4F7881C25BD1409830B4
:100ED00031F657CB2F923F924F925F926F927F9253
:100EE0008F929F92AF92BF92CF92DF92EF92FF923A
:100EF0000F931F93CF93DF93CDB7DEB7CA1BDB0BE6
:100F00000FB6F894DEBF0FBECDBF0994FB01DC0124
:0E0F100001900D920020E1F70895F894FFCFB4
:100F1E000101210104010301030000000000000192
:100F2E00030301010B04040204022307070000005F
:100F3E00008040C020A060E0109050D030B070F023
:100F4E00088848C828A868E8189858D838B878F893
:100F5E00048444C424A464E4149454D434B474F4C3
:100F6E000C8C4CCC2CAC6CEC1C9C5CDC3CBC7CFC33
:100F7E00028242C222A262E2129252D232B272F2C3
:100F8E000A8A4ACA2AAA6AEA1A9A5ADA3ABA7AFA33
:100F9E00068646C626A666E6169656D636B676F663
:100FAE000E8E4ECE2EAE6EEE1E9E5EDE3EBE7EFED3
:100FBE00018141C121A161E1119151D131B171F193
:100FCE00098949C929A969E9199959D939B979F903
:100FDE00058545C525A565E5159555D535B575F533
:100FEE000D8D4DCD2DAD6DED1D9D5DDD3DBD7DFDA3
:100FFE00038343C323A363E3139353D333B373F333
:10100E000B8B4BCB2BAB6BEB1B9B5BDB3BBB7BFBA2
:10101E00078747C727A767E7179757D737B777F7D2
:10102E000F8F4FCF2FAF6FEF1F9F5FDF3FBF7FFF42
:04103E006D6B0000D6
:00000001FF
