:100000000C942E000C944B000C944B000C944B0061
:100010000C944B000C944B000C944B000C944B0034
:100020000C944B000C944B000C94F7000C944B0078
:100030000C944B000C944B000C944B000C944B0014
:100040000C944B000C944B000C944B000C944B0004
:100050000C944B000C944B000C944B0011241FBECD
:10006000CFEFD8E0DEBFCDBF13E0A0E0B1E0E2EB20
:10007000FEE002C005900D92A430B107D9F714E05C
:10008000A4E0B3E001C01D92A638B107E1F70E94D9
:1000900007010C9457070C940000719827E030E09A
:1000A000482F552747FD5095CA01022E02C095954D
:1000B00087950A94E2F780FF03C08EB18C6302C07B
:1000C0008EB1837C8EB9709A7098215030408FEF3A
:1000D0002F3F380749F727E030E0772767FD709515
:1000E000CB01022E02C0959587950A94E2F780FF16
:1000F00003C08EB18C6302C08EB1837C8EB9709ABE
:100100007098215030408FEF2F3F380749F7719A90
:1001100008950F93CF93DF937198E7E0F0E0A82F55
:10012000BB27A7FDB095CD010E2E02C095958795F2
:100130000A94E2F780FF03C08EB18C6302C08EB1D7
:10014000837C8EB9709A709831978FEFEF3FF807E4
:1001500051F7E7E0F0E0C62FDD27C7FDD095642F0B
:10016000772767FD7095422F552747FD5095A02FA3
:10017000BB27A7FDB0953E2FCE010E2E02C0959550
:1001800087950A94E2F780FF02C0759A01C07598BE
:10019000CB01032E02C0959587950A94E2F780FF64
:1001A00002C0749A01C07498CA01032E02C09595CA
:1001B00087950A94E2F780FF02C0739A01C0739892
:1001C000CD0102C0959587953A95E2F780FF02C070
:1001D000729A01C07298709A709831978FEFEF3FC2
:1001E000F80749F6719ADF91CF910F9108951F9208
:1001F0000F920FB60F9211248F9381E08093040326
:1002000016BC8F910F900FBE0F901F901895ABEA00
:10021000B1E0EDE0F1E00C9434079FEF9DB980E789
:1002200084B98CE087B91AB81EB815B81BB811B8D4
:1002300010BA92B991BB9E012F5D3F4FCC55DE4F56
:1002400039832883C45AD140C90121E230E02C0F00
:100250003D1F205E3F4FCC55DE4FA881B981C45A67
:10026000D1401D92CC55DE4FB983A883C45AD140EA
:10027000A217B30781F760E071E00E9450078BE09E
:1002800067E00E944D008AE06FE00E944D0001E0AF
:10029000802F60E00E944D000F5F0930C9F78CE0AD
:1002A00061E00E944D008FE060E00E944D0088E018
:1002B0006CE040E020E000E00E94890080E892E0ED
:1002C00020E931E0F9013197F1F70197D9F78AE098
:1002D0006DE00E944D0088E062E140E020E000E037
:1002E0000E94890087E06CE040E020E00E948900E5
:1002F00080E892E020E931E0F9013197F1F70197C8
:10030000D9F78AE06BE00E944D0088E061E240E0AE
:1003100020E000E00E94890087E062E140E020E008
:100320000E94890086E06CE040E020E00E948900A5
:1003300080E892E020E931E0F9013197F1F7019787
:10034000D9F78AE069E00E944D0088E060E440E06F
:1003500020E000E00E94890087E060E440E020E0C7
:100360000E94890086E061E240E020E00E9489006E
:1003700085E06EE140E020E00E94890080E892E0A4
:1003800020E931E0F9013197F1F70197D9F78AE0D7
:1003900067E00E944D0088E060E040E021E000E07E
:1003A0000E94890087E060E040E021E00E9489002F
:1003B00086E060E040E021E00E94890085E060E89E
:1003C00040E020E00E94890084E060E440E020E01A
:1003D0000E94890083E061E240E020E00E94890001
:1003E00082E06EE140E020E00E94890080E892E037
:1003F00020E931E0F9013197F1F70197D9F78AE067
:1004000065E00E944D0088E060E040EC20E100E003
:100410000E94890087E060E048E320E10E948900B3
:1004200086E060E047E028E00E94890085E060E027
:1004300040E028E00E94890084E060E040E024E0A1
:100440000E94890083E060E040E024E00E9489008F
:1004500082E060E040E022E00E94890081E060E00C
:1004600040E021E00E94890080E892E020E931E04C
:10047000F9013197F1F70197D9F78AE063E00E941B
:100480004D0088E060E040E020E800E20E94890042
:1004900087E060E040E020E800E10E94890086E01B
:1004A00060E040E020E80E94890085E060E040E0F4
:1004B00020E808E00E94890084E060E040E020E459
:1004C00006E00E94890083E060E040E820E401E06B
:1004D0000E94890082E060E040E720E400E00E94A2
:1004E000890081E060E04FE020E20E94890080E81E
:1004F00092E020E931E0F9013197F1F70197D9F75E
:100500008AE061E00E944D0088E060E040E020E089
:1005100000E00E94890087E060E040E020E00E9467
:10052000890086E060E040E020E00E94890085E0EC
:1005300060E040E020E00E94890084E060E040E06C
:1005400020E000E80E94890083E060E040E020E0D5
:100550000E94890082E060E040E020E000E40E9428
:10056000890081E060E040E020E000E30E94890033
:1005700080E892E020E931E0F9013197F1F7019745
:10058000D9F701E0802F60E00E944D000F5F093035
:10059000C9F78AE06FE00E944D00FE01EF59FF4F5E
:1005A000CF010A961192E817F907E1F79E01275F3C
:1005B0003F4F80E090E0AE014F5F5F4F0BC0119264
:1005C000E217F307E1F701969F01285F3F4F843060
:1005D000910549F0FC0163E0EE0FFF1F6A95E1F71A
:1005E000E40FF51FECCF0E948F0684B5856084BDB3
:1005F00080916E00826080936E008FE087BD78945A
:10060000DD24B1E0C755DE4FB883C95AD140332449
:10061000C855DE4F1882C85AD14041E0BB24C955A5
:10062000DE4F1882C75AD140AA24CA55DE4F18821D
:10063000C65AD14031E6832E912C8C0E9D1EF401BA
:100640003396C655DE4FF983E883CA5AD14023EA70
:10065000622E712C6C0E7D1E442341F1349B02C02E
:1006600041E015C08CE061E00E944D0010E0E12CFB
:100670009DE7F92E612F669566958AE00E944D00F0
:10068000C7010197F1F71F5F1034A1F740E086EF33
:1006900099E020E931E0F9013197F1F70197D9F7B5
:1006A00080916E00826080936E00D6CF1BB81AB81E
:1006B000C855DE4FF881C85AD140F93210F0DD2418
:1006C0000BC0C855DE4F2881C85AD1402F5FC8558E
:1006D000DE4F2883C85AD140CC2482E0582EF3C183
:1006E000439885E08A95F1F789B1F401ED0DF11D8C
:1006F0008083DD2089F4D4013C90E32DF0E0ED5FB0
:10070000FE4FE081EE2349F0DD24D394C855DE4F3F
:100710001882C85AD14006C0D394C755DE4FE8812D
:10072000C95AD140DE1609F0C7C1332001F5F301E3
:10073000EA0DF11D10828A2D8F5FF301E80FF11D84
:10074000B1E0B0838F5FF301E80FF11DB0838F5FDD
:10075000F301E80FF11D10828F5FF301E80FF11D27
:1007600050828F5FF301E80FF11DB08330C0E1E0EC
:100770003E16C9F4F301EA0DF11D30822A2D2F5FD8
:10078000922FDE019196F301E90FF11D8D91808387
:100790009F5FCC55DE4F48815981C45AD140A41780
:1007A000B50789F7B8C255E03516A1F4F301EA0D93
:1007B000F11D83E080838A2D8F5FF301E80FF11D27
:1007C00098E090838F5FF301E80FF11D9083A82ECE
:1007D000A39470C1A0E13A1651F5F40131818281F0
:1007E000E82FE695E695E695EE0F232F26952695BC
:1007F0002695E20FF0E03095377003E0EE0FFF1F13
:100800000A95E1F7E30FF11D21E030E02C0F3D1FC9
:10081000E20FF31F877041E050E002C0440F551F04
:100820008A95E2F7CA018095208182232EC051E18A
:10083000351671F5D40111969C91119712962C9151
:10084000E22FE695E695E695EE0F892F869586953B
:100850008695E80FF0E09095977013E0EE0FFF1F7C
:100860001A95E1F7E90FF11D41E050E04C0F5D1FD3
:10087000E40FF51F277081E090E002C0880F991FF8
:100880002A95E2F79C018081822B8083B39412C168
:1008900092E13916F1F49E01275F3F4F80E090E02E
:1008A0000BC01192E217F307E1F701969F01285F51
:1008B0003F4F8430910551F3FC01B3E0EE0FFF1F71
:1008C000BA95E1F7A1E0B0E0AC0FBD1FEA0FFB1F46
:1008D000E8CFB3E13B16F9F49E01275F3F4F80E07C
:1008E00090E00CC04FEF4193E217F307D9F7019660
:1008F0009F01285F3F4F8430910541F2FC01A3E046
:10090000EE0FFF1FAA95E1F7A1E0B0E0AC0FBD1F0D
:10091000EA0FFB1FE7CFB4E13B1609F050C0F4012A
:100920009281969596959695990F81818695869553
:100930008695980FC655DE4FA881B981CA5AD14015
:1009400060E070E0492F50E0E3E0440F551FEA9566
:10095000E1F721E030E02C0F3D1F420F531F81E0F3
:1009600090E0062E02C0880F991F0A94E2F7E82E45
:10097000EC91F0E0ED5FFD4F8081082F10E0FA016F
:1009800020E030E0FE2CF094C801022E02C09595C4
:1009900087950A94E2F7908180FF02C09E2901C0EA
:1009A0009F2190832F5F3F4F31962830310561F7AB
:1009B0006F5F7F4F11966830710589F667CF36E11A
:1009C000331631F5D40111962C911197822F90E0B6
:1009D00080959095877090701296EC911297E6959D
:1009E000E695E695EE0F269526952695E20FF0E022
:1009F00073E0EE0FFF1F7A95E1F7E80FF91F21E092
:100A000030E02C0F3D1FE20FF31F13968C913DCF6A
:100A100035E1331609F044C0D40112969C91129727
:100A2000892F877051E001C0550F8A95EAF7139618
:100A3000EC911397F0E0ED5FFD4FE0819695969570
:100A40009695990F11968C91869586958695980F17
:100A5000A92FB0E063E0AA0FBB1F6A95E1F721E080
:100A600030E02C0F3D1FA20FB31F20E030E0452FD8
:100A7000409581E090E0022E02C0880F991F0A94F1
:100A8000E2F78E239C91882311F0952B01C09423CB
:100A90009C932F5F3F4F11962830310551F7F6CECA
:100AA00037E1331639F4D40111966C916F708AE0F6
:100AB0000E944D00DD24E0E0C394439AC755DE4F09
:100AC000E883C95AD140319904C0B4E1CB1609F08A
:100AD00007CEBB20A1F07E010894E11CF11C10E0C0
:100AE0001F5F812FF701608140852089008D0E9462
:100AF00089000894E11CF11C183091F7BB24809107
:100B00000403882309F4CAC0109204031BB8FFEF42
:100B1000FAB9C955DE4F4881C75AD140242F30E079
:100B2000F901EA5FFC4FA9014A5B5B4FDA018C9146
:100B30008083F9013896DF01AA5BBB4F8C91EA5F95
:100B4000FC4F8083F9017096DF01AA5BBB4F8C914B
:100B5000EA5FFC4F8083F9017896DF01AA5BBB4F07
:100B60008C91EA5FFC4F80838AE08A95F1F7779A4F
:100B700085E08A95F1F700E010E07A0146E6442E20
:100B800044E0542E420E531E37E0C32EC955DE4FAB
:100B9000B881C75AD140CB1ACD55DE4F0883C35A0E
:100BA000D14083B190E023E0969587952A95E1F7AF
:100BB00022242394282280FD0DC021E030E0002E65
:100BC00002C0220F331F0A94E2F7F7018081822BC3
:100BD00080830DC081E090E0002E02C0880F991F35
:100BE0000A94E2F78095D7012C9182238C93C95502
:100BF000DE4F8881C75AD140CD55DE4F6881C35A38
:100C0000D1400E94A606F2013081832F90E0002E91
:100C100002C0959587950A94E2F780FF26C081E08F
:100C200090E0002E02C0880F991F0A94E2F7809589
:100C300083238083222011F080E201C081E2F3014E
:100C4000EA0DF11D80838A2D8F5FF301E80FF11DFE
:100C5000C0828F5FF301E80FF11DCD55DE4F288173
:100C6000C35AD1402083A82EA394769A76980F5F1A
:100C70001F4F0830110509F08FCF7798C955DE4F07
:100C80003881C75AD1403F5F3770C955DE4F38832E
:100C9000C75AD140832F8295807F85B91BB84FEF0B
:100CA0004AB912C0429AF301CA55DE4F5881C65A5A
:100CB000D140E50FF11D80818BB942985F5FCA5525
:100CC000DE4F5883C65AD140CA55DE4F8881C65A76
:100CD000D1408A1539F7349BE9CC10926E001FE0A1
:100CE00090E9E92E91E0F92E8AE0612F0E944D00F3
:100CF00080E892E0F7013197F1F70197D9F71150A9
:100D000098F78CE060E00E944D00CA55DE4FA88243
:100D1000C65AD140A3CC80E2A82EA20ECBCE80E052
:100D200090E0FC01EA5BFB4F1082FC01EA5FFC4FA4
:100D30001082FC01EA5DFB4F1082FC01EA59FB4F77
:100D4000108201968032910561F708951F93CF9329
:100D5000DF93A82FB0E0FD01EA5BFB4F108170E04C
:100D6000FD01EA5FFC4F8081812790E0062E02C0E2
:100D7000959587950A94E2F7AC014170507080FF19
:100D800032C0FD01EA5DFB4F2081822F812790E078
:100D9000062E02C0959587950A94E2F780FF23C03E
:100DA000812F90E0062E02C0959587950A94E2F770
:100DB00080FF0DC081E090E002C0880F991F6A9506
:100DC000E2F7AA59BB4F8C93282B208349C093E0AC
:100DD000AA0FBB1F9A95E1F7A60FB71FAA5DBC4FDC
:100DE00084E08C933DC0452BD9F5ED01CA5DDB4F06
:100DF0004881842F812790E0062E02C09595879523
:100E00000A94E2F780FF2CC0FD0183E0EE0FFF1F84
:100E10008A95E1F7E60FF71FEA5DFC4F8081882392
:100E2000F9F0815080838823D9F421E030E0062E48
:100E300002C0220F331F0A94E2F7AA59BB4F2C932A
:100E4000812F90E002C0959587956A95E2F780FF23
:100E500003C0422B488304C0822F8095842388835B
:100E6000DF91CF911F9108952F923F924F925F9201
:100E70006F927F928F929F92AF92BF92CF92DF92AA
:100E8000EF92FF920F931F93CF93DF93CDB7DEB70F
:100E9000CA1BDB0B0FB6F894DEBF0FBECDBF0994A3
:100EA000FB01DC0101900D920020E1F70895F89418
:020EB000FFCF72
:100EB2006D6B000101210104010301030000000028
:100EC200000001030301010B040402000000000002
:100ED2000000000000000000000000000000000010
:100EE2000000000000000000000000000000000000
:100EF20000000000000000000000000000000000F0
:100F020000000000000000000000000000000000DF
:100F120000000000000000000000000000000000CF
:100F220000000000000000000000000000000000BF
:100F320000000000000000000000000000000000AF
:100F4200000000000000000000000000000000009F
:100F5200000000000000000000000000000000008F
:100F6200000000000000000000000000000000007F
:100F7200000000000000000000000000000000006F
:100F8200000000000000000000000000000000005F
:100F9200000000000000000000000000000000004F
:100FA200000000000000000000000000000000003F
:100FB200000000008040C020A060E0109050D030BF
:100FC200B070F0088848C828A868E8189858D83837
:100FD200B878F8048444C424A464E4149454D43443
:100FE200B474F40C8C4CCC2CAC6CEC1C9C5CDC3CD7
:100FF200BC7CFC028242C222A262E2129252D23231
:10100200B272F20A8A4ACA2AAA6AEA1A9A5ADA3AD6
:10101200BA7AFA068646C626A666E6169656D636E2
:10102200B676F60E8E4ECE2EAE6EEE1E9E5EDE3E76
:10103200BE7EFE018141C121A161E1119151D131F7
:10104200B171F1098949C929A969E9199959D939A6
:10105200B979F9058545C525A565E5159555D535B2
:10106200B575F50D8D4DCD2DAD6DED1D9D5DDD3D46
:10107200BD7DFD038343C323A363E3139353D333A0
:10108200B373F30B8B4BCB2BAB6BEB1B9B5BDB3B46
:10109200BB7BFB078747C727A767E7179757D73752
:1010A200B777F70F8F4FCF2FAF6FEF1F9F5FDF3FE6
:0410B200BF7FFF00FD
:00000001FF
