:100000000C942E000C944B000C944B000C944B0061
:100010000C944B000C944B000C944B000C944B0034
:100020000C944B000C944B000C94E1000C944B008E
:100030000C944B000C944B000C944B000C944B0014
:100040000C944B000C944B000C944B000C944B0004
:100050000C944B000C944B000C944B0011241FBECD
:10006000CFEFD8E0DEBFCDBF12E0A0E0B1E0E6E622
:10007000FDE002C005900D92A432B107D9F713E05C
:10008000A4E2B2E001C01D92A63AB107E1F70E94D6
:100090008F010C94B1060C940000719827E030E0B9
:1000A000992787FD9095AC01022E02C05595479582
:1000B0000A94E2F740FF03C04EB14C6302C04EB158
:1000C000437C4EB9709A70982150310960F787E0EF
:1000D00090E0772767FD70959B01082E02C035954B
:1000E00027950A94E2F720FF03C02EB12C6302C0CB
:1000F0002EB1237C2EB9709A7098019768F7719A87
:1001000008950F931F937198E7E0F0E0992787FD1A
:100110009095DC010E2E02C0B595A7950A94E2F7E2
:100120003EB1A0FF02C03C6301C0337C3EB9709A6F
:100130007098319770F787E090E0772767FD7095AA
:10014000552747FD5095332727FD3095112707FD8B
:100150001095E82FDB01082E02C0B595A7950A94EB
:10016000E2F7A0FF02C0759A01C07598DA010E2E61
:1001700002C0B595A7950A94E2F7A0FF02C0749A51
:1001800001C07498D9010E2E02C0B595A7950A94A6
:10019000E2F7A0FF02C0739A01C07398D80102C0B1
:1001A000B595A795EA95E2F7A0FF02C0729A01C043
:1001B0007298709A7098019760F6719A1F910F91DA
:1001C00008951F920F920FB60F9211248F9381E022
:1001D0008093240216BC8F910F900FBE0F901F903A
:1001E0001895CF93DF93E6E6F3E086E292E0C6E46B
:1001F000D3E046E853E01192DC011D92CD01199243
:10020000DA011D92AD01B3E0E638FB07A1F7DF91FB
:10021000CF9108951F93CF93DF9390E0FC01EA59AB
:10022000FC4F7081C62FD0E0FC01EA5DFD4F2081BC
:10023000272730E0062E02C0359527950A94E2F76D
:10024000DC01AA5BBC4F20FF2FC01C91E12FE727E8
:10025000F0E0062E02C0F595E7950A94E2F7E0FF7C
:100260005AC0472F50E0062E02C0559547950A9474
:10027000E2F740FF0CC021E030E002C0220F331F44
:100280006A95E2F78A579C4FFC0120833FC0FC012E
:1002900033E0EE0FFF1F3A95E1F7EC0FFD1FEA5B2D
:1002A000FD4F88E0808337C01C91412F472750E0E5
:1002B000062E02C0559547950A94E2F740FF2BC0E1
:1002C000FC0123E0EE0FFF1F2A95E1F7EC0FFD1F65
:1002D000EA5BFD4F20812223F1F02150208322236D
:1002E000D1F421E030E0062E02C0220F331F0A9421
:1002F000E2F7FC01EA57FC4F2083872F90E002C011
:10030000959587956A95E2F780FF02C0212B02C080
:10031000209521232C93DF91CF911F910895ABEA73
:10032000B1E0E5E9F1E00C948E068FEF8DB990E72E
:1003300094B99CE097B91AB81EB815B81BB811B893
:1003400010BA82B981BB83E491E08C0F9D1F809627
:10035000FE01ED5BFE4F1192E817F907E1F760E24D
:1003600072E0CE018D5B9E4F0E94AA0667E08BE093
:100370000E944D006FE08AE00E944D0011E060E0B5
:10038000812F0E944D001F5F1930C9F761E08CE09A
:100390000E944D0060E08FE00E944D0000E020E0F0
:1003A00040E06CE088E00E9481002FEF3FE143E0F5
:1003B000215030404040E1F700C000006DE08AE08D
:1003C0000E944D0020E040E062E188E00E94810050
:1003D00020E040E06CE087E00E9481005FEF8FE169
:1003E00093E0515080409040E1F700C000006BE086
:1003F0008AE00E944D0020E040E061E288E00E9437
:10040000810020E040E062E187E00E94810020E07E
:1004100040E06CE086E00E948100AFEFBFE1E3E0E6
:10042000A150B040E040E1F700C0000011E060E002
:10043000812F0E944D001F5F1930C9F76FE08AE0DD
:100440000E944D00FE01EF5FFE4FC855DE4FE8836E
:10045000C85AD140C755DE4FF883C95AD140CF01A1
:100460000A961192E817F907E1F76E01FDE7CF1A36
:10047000FEEFDF0AD6011C9211961C92119712967C
:100480001C92129713961C92139714961C92149711
:1004900015961C92159716961C92169717961C92F5
:1004A000179718961C92189719961C9219971A96D6
:1004B0001C921A971B961C921B971C961C921C97B9
:1004C0001D961C921D971E961C921E971F961C929D
:1004D0001F9750961C92509751961C925197529686
:1004E0001C92529753961C92539754961C92549771
:1004F00055961C92559756961C92569757961C9255
:10050000579758961C92589759961C9259975A96F5
:100510001C925A975B961C925B975C961C925C9718
:100520005D961C925D975E961C925E975F961C92FC
:100530000E94F10084B5846084BD80916E00826069
:1005400080936E0082E087BD7894CD55DE4F18828F
:10055000C35AD14090E024E6222E312C7601E1E00E
:10056000F1E0EC0FFD1F3396CA55DE4FF983E883A7
:10057000C65AD140AA24A394B12CAC0EBD1E1BB800
:100580001AB870E0712C662463949FC24398F5E01A
:10059000FA95F1F7000089B1E1E0F1E0EC0FFD1F01
:1005A000E30DF11D8083439A311013C0CF5FDE4FFE
:1005B0008881C150D140803268F4E82FF0E0E050EB
:1005C000FF4F2081982F222329F0222E33243394A9
:1005D00001C03394321079C2911122C0F501E70FA6
:1005E000F11D1082872F8F5FF501E80FF11D6082EA
:1005F0008F5FF501E80FF11D60828F5FF501E80F55
:10060000F11D10828F5FF501E80FF11D82E08083FC
:10061000872F8B5FF501E80FF11D60827A5F53C26F
:100620009130A9F4F501E70FF11D9083872F8F5FBB
:10063000272F2F5DFE01ED5BFE4F3191D501A80FF5
:10064000B11D3C938F5F8213F8CF7F5D3CC2953024
:10065000A1F4F501E70FF11D83E08083872F8F5F01
:10066000F501E80FF11D88E08083272F2E5FF5014B
:10067000E20FF11D80837D5F26C2903161F5CE5F70
:10068000DE4F8881C250D140CD5FDE4F2881C350FC
:10069000D140E22FE695E695E695EE0F382F369598
:1006A00036953695E30F8095877038E0E39FF0012B
:1006B0001124E80FF11DEE0DFF1D277041E050E001
:1006C00002C0440F551F2A95E2F79A0120958081B8
:1006D00028232083F7C1913149F5CE5FDE4F888111
:1006E000C250D140CD5FDE4F2881C350D140E22FB0
:1006F000E695E695E695EE0F382F369536953695C4
:10070000E30F8095877058E0E59FF0011124E80F12
:10071000F11DEE0DFF1D2770A1E0B0E002C0AA0F91
:10072000BB1F2A95E2F780818A2B00C1923111F517
:10073000F7011082118212821382148215821682AE
:1007400017821086118612861386148615861686E1
:100750001786108A118A128A138A148A158A168AB1
:10076000178A108E118E128E138E148E158E168E81
:10077000178EA8C1933109F060C08FEFD7018C9319
:1007800011968C93119712968C93129713968C93C3
:10079000139714968C93149715968C931597169619
:1007A0008C93169717968C93179718968C93189787
:1007B00019968C9319971A968C931A971B968C936B
:1007C0001B971C968C931C971D968C931D971E96B9
:1007D0008C931E971F968C931F9750968C935097CF
:1007E00051968C93519752968C93529753968C9323
:1007F000539754968C93549755968C935597569639
:100800008C93569757968C93579758968C935897E6
:1008100059968C9359975A968C935A975B968C93CA
:100820005B975C968C935C975D968C935D975E96D8
:100830008C935E975F968C9345C1943109F050C0BC
:10084000CD5FDE4F8881C350D140869586958695D1
:10085000880FCE5FDE4F2881C250D1402695269565
:100860002695820FCA55DE4F08811981C65AD1409C
:10087000A0E0B0E02701E8E08E9F400C511C11245D
:1008800041E050E00A2E01C0440F0A94EAF7842F99
:10089000F80121918F01E22FF0E0E05EFE4F8080B1
:1008A000912CF20120E030E0642F6095A401022E2B
:1008B00002C0559547950A94E2F740FF03C0408176
:1008C000482B02C04081462340832F5F3F4F319623
:1008D0002830310559F71196A830B10589F6F2C0D4
:1008E000963131F5CE5FDE4F2881C250D140E22FE4
:1008F000F0E0E095F095E770FF27CD5FDE4F88814F
:10090000C350D140869586958695880F2695269565
:100910002695820F28E0829FE00DF11D1124EE0D37
:10092000FF1DCC5FDE4F8881C450D1408083CAC098
:10093000953109F047C0CD5FDE4F2881C350D140CB
:10094000422F4770A1E0B0E002C0AA0FBB1F4A953A
:10095000E2F7AD018A2FCC5FDE4FE881C450D14071
:10096000F0E0E05EFE4F6081269526952695220FE9
:10097000CE5FDE4F3881C250D140369536953695E0
:10098000230FF701B8E02B9FE00DF11D112420E0AB
:1009900030E0A42FA09541E050E0022E01C0440FAA
:1009A0000A94EAF7462321F04081482B408303C094
:1009B00050815A2350832F5F3F4F319628303105A5
:1009C00051F780C0973101F5CE5FDE4F6881C2508C
:1009D000D1406F708AE0C655DE4F7883CA5AD14045
:1009E000C555DE4F9883CB5AD1400E944D00232C31
:1009F000312CC655DE4F7881CA5AD140C555DE4FDD
:100A00009881CB5AD14061C09A3109F05CC0CD5F6A
:100A1000DE4F8881C350D140869586958695880F94
:100A2000CE5FDE4F2881C250D1402695269526956F
:100A3000820FC855DE4F4880C85AD140C755DE4F97
:100A40005880C95AD14000E010E04701E8E08E9F8D
:100A5000800C911C112427E0820E911C21E030E0D3
:100A6000002E01C0220F0A94EAF7822FF40140E021
:100A700050E0622F6095D201A40FB51F13962C9100
:100A8000308127FF02C0382B01C0362330832F70FE
:100A900030E0DF011197283031051CF02C91282B14
:100AA00002C02C9126232C934F5F5F4F3297443026
:100AB000510509F70F5F1F4F34E0430E511C0830FA
:100AC000110561F67394232C312C319B5FCD8091FD
:100AD0002402882309F4D5C0109224021BB88FEF9A
:100AE0008AB9CD55DE4F5881C35AD140252F30E009
:100AF000D901AA5DBD4FF901EA59FC4F80818C9361
:100B0000A901485F5F4F8A010A5D1D4F4A595C4F3A
:100B1000DA018C91D8018C93A901405F5F4F8A0163
:100B20000A5D1D4F4A595C4FDA018C91D8018C93B4
:100B3000A901485E5F4F8A010A5D1D4F4A595C4F0B
:100B4000DA018C91D8018C93B5E1BA95F1F70000E8
:100B5000779A4AE04A95F1F700C0812C912C8F01D9
:100B6000A9014A575C4FCC55DE4F59834883C45A7C
:100B7000D14087E0682ECD55DE4F5881C35AD14011
:100B8000651A582C83B183FB442440F821E030E0FF
:100B9000082C01C0220F0A94EAF783FD05C0D80192
:100BA0008C91822B8C9305C02095F801808128239D
:100BB0002083652DCD55DE4F8881C35AD140C6555F
:100BC000DE4F7883CA5AD140C555DE4F9883CB5A41
:100BD000D1400E940A01CC55DE4FA881B981C45A88
:100BE000D1408C91282F30E0082C02C035952795F4
:100BF0000A94E2F7C655DE4F7881CA5AD140C555EE
:100C0000DE4F9881CB5AD14020FF20C021E030E058
:100C1000082C01C0220F0A94EAF7209528232C9370
:100C2000E72FF0E0411002C081E201C080E2EA0D4E
:100C3000FB1D8083872F8F5FF501E80FF11D608218
:100C40008F5FF501E80FF11D50827D5F769A7698EF
:100C5000BFEF8B1A9B0AE8E08E16910409F091CF42
:100C60007798CD55DE4F3881C35AD1403F5F3770FA
:100C7000CD55DE4F3883C35AD140832F8295807F74
:100C800085B9711103C071100FC079CC1BB88FEFFB
:100C90008AB9F50104C0429A81918BB942988E2F8E
:100CA0008A198717C0F3EFCF270148E1440E511C82
:100CB000370150E1650E711C470188E0880E911CD8
:100CC000CC55DE4FD982C882C45AD14010E0D2013F
:100CD0000D912D01F30121913F01D4014D914D0161
:100CE000CC55DE4FE881F981C45AD1406191CC5591
:100CF000DE4FF983E883C45AD1401F5F812FC55569
:100D0000DE4F9883CB5AD1400E948100C555DE4FFB
:100D10009881CB5AD1401830D1F631CC2F923F92E6
:100D20004F925F926F927F928F929F92AF92BF92FB
:100D3000CF92DF92EF92FF920F931F93CF93DF93A7
:100D4000CDB7DEB7CA1BDB0B0FB6F894DEBF0FBE04
:100D5000CDBF0994FB01DC0101900D920020E1F769
:060D60000895F894FFCF96
:100D6600010121010401030103000000000000014C
:100D7600030301010B040402040223070700000019
:100D8600008040C020A060E0109050D030B070F0DD
:100D9600088848C828A868E8189858D838B878F84D
:100DA600048444C424A464E4149454D434B474F47D
:100DB6000C8C4CCC2CAC6CEC1C9C5CDC3CBC7CFCED
:100DC600028242C222A262E2129252D232B272F27D
:100DD6000A8A4ACA2AAA6AEA1A9A5ADA3ABA7AFAED
:100DE600068646C626A666E6169656D636B676F61D
:100DF6000E8E4ECE2EAE6EEE1E9E5EDE3EBE7EFE8D
:100E0600018141C121A161E1119151D131B171F14C
:100E1600098949C929A969E9199959D939B979F9BC
:100E2600058545C525A565E5159555D535B575F5EC
:100E36000D8D4DCD2DAD6DED1D9D5DDD3DBD7DFD5C
:100E4600038343C323A363E3139353D333B373F3EC
:100E56000B8B4BCB2BAB6BEB1B9B5BDB3BBB7BFB5C
:100E6600078747C727A767E7179757D737B777F78C
:100E76000F8F4FCF2FAF6FEF1F9F5FDF3FBF7FFFFC
:040E86006D6B000090
:00000001FF
