:100000000C942E000C944B000C944B000C944B0061
:100010000C944B000C944B000C944B000C94070177
:100020000C944B000C944B000C94F7000C944B0078
:100030000C944B000C944B000C944B000C944B0014
:100040000C944B000C944B000C944B000C944B0004
:100050000C944B000C944B000C944B0011241FBECD
:10006000CFEFD8E0DEBFCDBF13E0A0E0B1E0ECEA17
:10007000F3E102C005900D92A431B107D9F715E064
:10008000A4E1B3E001C01D92A43BB107E1F70E94D7
:1000900020020C94D4090C940000719827E030E001
:1000A000482F552747FD5095CA01022E02C095954D
:1000B00087950A94E2F780FF03C08EB18C6302C07B
:1000C0008EB1837C8EB9709A7098215030408FEF3A
:1000D0002F3F380749F727E030E0772767FD709515
:1000E000CB01022E02C0959587950A94E2F780FF16
:1000F00003C08EB18C6302C08EB1837C8EB9709ABE
:100100007098215030408FEF2F3F380749F7719A90
:1001100008950F93CF93DF937198E7E0F0E0A82F55
:10012000BB27A7FDB095CD010E2E02C095958795F2
:100130000A94E2F780FF03C08EB18C6302C08EB1D7
:10014000837C8EB9709A709831978FEFEF3FF807E4
:1001500051F7E7E0F0E0C62FDD27C7FDD095642F0B
:10016000772767FD7095422F552747FD5095A02FA3
:10017000BB27A7FDB0953E2FCE010E2E02C0959550
:1001800087950A94E2F780FF02C0759A01C07598BE
:10019000CB01032E02C0959587950A94E2F780FF64
:1001A00002C0749A01C07498CA01032E02C09595CA
:1001B00087950A94E2F780FF02C0739A01C0739892
:1001C000CD0102C0959587953A95E2F780FF02C070
:1001D000729A01C07298709A709831978FEFEF3FC2
:1001E000F80749F6719ADF91CF910F9108951F9208
:1001F0000F920FB60F9211248F9381E08093280401
:1002000016BC8F910F900FBE0F901F9018951F92E4
:100210000F920FB60F9211242F933F934F938F930A
:100220009F93EF93FF9380913104882309F4F8C0E2
:1002300040B1842F83708093160390912904E0913C
:10024000200480911603F0E0EE0FFF1FEE0FFF1F5A
:10025000E80FF11DED5FFD4F8081980F9093290409
:100260008091160380932004242F30E0C9018C7004
:1002700090709595879595958795809317039091A4
:100280002A04E091210480911703F0E0EE0FFF1F94
:10029000EE0FFF1FE80FF11DED5FFD4F8081980FFE
:1002A00090932A0480911703809321042073307067
:1002B000E4E035952795EA95E1F7209318039091AE
:1002C0002B04E091220480911803F0E0EE0FFF1F51
:1002D000EE0FFF1FE80FF11DED5FFD4F8081980FBE
:1002E00090932B04809118038093220442954695A5
:1002F000469543704093190390912C04E091230498
:1003000080911903F0E0EE0FFF1FEE0FFF1FE80FC3
:10031000F11DED5FFD4F8081980F90932C0480912B
:100320001903809323044FB140931E04842F8370DC
:1003300080931A0390912D04E091240480911A0374
:10034000F0E0EE0FFF1FEE0FFF1FE80FF11DED5F56
:10035000FD4F8081980F90932D0480911A03809314
:100360002404242F30E0C9018C70907095958795F6
:100370009595879580931B0390912E04E091250419
:1003800080911B03F0E0EE0FFF1FEE0FFF1FE80F41
:10039000F11DED5FFD4F8081980F90932E048091A9
:1003A0001B038093250420733070E4E03595279576
:1003B000EA95E1F720931C0390912F04E091260425
:1003C00080911C03F0E0EE0FFF1FEE0FFF1FE80F00
:1003D000F11DED5FFD4F8081980F90932F04809168
:1003E0001C0380932604429546954695437040939E
:1003F0001D0390913004E091270480911D03F0E0EB
:10040000EE0FFF1FEE0FFF1FE80FF11DED5FFD4F19
:100410008081980F9093300480911D03809327046E
:100420001092850010928400FF91EF919F918F911F
:100430004F913F912F910F900FBE0F901F901895E5
:10044000A1E9B0E0E6E2F2E00C94B1099FEF9DB9BA
:1004500080E784B98CE087B91AB81EB815B81BB804
:1004600011B810BA92B991BB9E01275D3F4FC55795
:10047000DF4F39832883CB58D040C90129E230E0CF
:100480002C0F3D1F205E3F4FC557DF4FA881B9811C
:10049000CB58D0401D92C557DF4FB983A883CB58A6
:1004A000D040A217B30781F760E071E00E94CD0948
:1004B0008BE067E00E944D008AE06FE00E944D00F3
:1004C00001E0802F60E00E944D000F5F0930C9F706
:1004D0008CE061E00E944D008FE060E00E944D00E2
:1004E00088E06CE040E020E000E00E94890080E8C5
:1004F00092E020E931E0F9013197F1F70197D9F75E
:100500008AE06DE00E944D0088E062E140E020E07A
:1005100000E00E94890087E06CE040E020E00E945B
:10052000890080E892E020E931E0F9013197F1F7A4
:100530000197D9F78AE06BE00E944D0088E061E204
:1005400040E020E000E00E94890087E062E140E0B6
:1005500020E00E94890086E06CE040E020E00E94FC
:10056000890080E892E020E931E0F9013197F1F764
:100570000197D9F78AE069E00E944D0088E060E4C5
:1005800040E020E000E00E94890087E060E440E075
:1005900020E00E94890086E061E240E020E00E94C5
:1005A000890085E06EE140E020E00E94890080E85B
:1005B00092E020E931E0F9013197F1F70197D9F79D
:1005C0008AE067E00E944D0088E060E040E021E0C2
:1005D00000E00E94890087E060E040E021E00E94A6
:1005E000890086E060E040E021E00E94890085E02B
:1005F00060E840E020E00E94890084E060E440E0A0
:1006000020E00E94890083E061E240E020E00E9457
:10061000890082E06EE140E020E00E94890080E8ED
:1006200092E020E931E0F9013197F1F70197D9F72C
:100630008AE065E00E944D0088E060E040EC20E147
:1006400000E00E94890087E060E048E320E10E942A
:10065000890086E060E047E028E00E94890085E0AC
:1006600060E040E028E00E94890084E060E040E033
:1006700024E00E94890083E060E040E024E00E94E2
:10068000890082E060E040E022E00E94890081E091
:1006900060E040E021E00E94890080E892E020E9EB
:1006A00031E0F9013197F1F70197D9F78AE063E07A
:1006B0000E944D0088E060E040E020E800E20E94F7
:1006C000890087E060E040E020E800E10E948900C6
:1006D00086E060E040E020E80E94890085E060E07C
:1006E00040E020E808E00E94890084E060E040E00B
:1006F00020E406E00E94890083E060E040E820E416
:1007000001E00E94890082E060E040E720E400E030
:100710000E94890081E060E04FE020E20E948900B1
:1007200080E892E020E931E0F9013197F1F7019793
:10073000D9F78AE061E00E944D0088E060E040E087
:1007400020E000E00E94890087E060E040E020E0D7
:100750000E94890086E060E040E020E00E9489007D
:1007600085E060E040E020E00E94890084E060E0F5
:1007700040E020E000E80E94890083E060E040E083
:1007800020E00E94890082E060E040E020E000E498
:100790000E94890081E060E040E020E000E30E94E8
:1007A000890080E892E020E931E0F9013197F1F722
:1007B0000197D9F701E0802F60E00E944D000F5FA4
:1007C0000930C9F78AE06FE00E944D00FE01E75B47
:1007D000FF4FCF010A961192E817F907E1F79E0142
:1007E0002F5E3F4F80E090E0AE01475F5F4F0BC050
:1007F0001192E217F307E1F701969F01285F3F4F3F
:100800008430910549F0FC0113E0EE0FFF1F1A95AB
:10081000E1F7E40FF51FECCF1092140310923204AD
:1008200080E090E0FC01E75DFB4F1082FC01EA5E96
:10083000FC4F1082FC01E05EFB4F10820196883075
:10084000910581F70E940C09F999FECF81E090E0B3
:1008500092BD81BDF89A80B5809331048FEF80936B
:10086000310484B5856084BD80916E008260809380
:100870006E008FE087BD10928000809181008460BF
:100880008093810080916F00826080936F0085E08B
:1008900090E090938900809388007894DD2466240A
:1008A00063947724C257DF4F1882CE58D04041E07E
:1008B000CC24C357DF4F1882CD58D040B9E4AB2EBB
:1008C000B12CAC0EBD1EA9E04A2E512C4C0E5D1E63
:1008D000F5013B96C057DF4FF983E883C059D040FC
:1008E000442341F1349B02C041E015C08CE061E03B
:1008F0000E944D0010E0E12CFDE7FF2E612F669570
:1009000066958AE00E944D00C7010197F1F71F5FCD
:100910001034A1F740E086EF99E020E931E0F901D9
:100920003197F1F70197D9F780916E00826080933B
:100930006E00D6CFE1E08E2E912C73E0272E312C65
:100940002A0C3B1C1BB81AB8C257DF4FF881CE588F
:10095000D040F93210F0DD240BC0C257DF4F2881A0
:10096000CE58D0402F5FC257DF4F2883CE58D0409B
:10097000C157DF4F1882CF58D04067E0E62EF12CE8
:1009800068C3439885E08A95F1F789B1F501ED0DCB
:10099000F11D8083DD2089F4D5017C90E72DF0E006
:1009A000ED5FFE4FE081EE2349F0DD24D394C25782
:1009B000DF4F1882CE58D04002C0D394E62DDE1609
:1009C00009F03AC37720E1F580913204E82FF0E096
:1009D000E25EFC4F10828F5FE82FF0E0E25EFC4F9A
:1009E000B1E0B0838F5FE82FF0E0E25EFC4F108251
:1009F0008F5FE82FF0E0E25EFC4F10828F5FE82F00
:100A0000F0E0E25EFC4F92E090838F5FE82FF0E031
:100A1000E25EFC4F10828F5FE82FF0E0E25EFC4F59
:100A200010828F5FE82FF0E0E25EFC4F25E020832C
:100A30008F5FE82FF0E0E25EFC4F98E090833BC0D0
:100A400031E0731609F580913204E82FF0E0E25EA0
:100A5000FC4F70828F5F80933204DE019996809103
:100A60003204E82FF0E0E25EFC4F9D9190838F5FAF
:100A700080933204C557DF4F48815981CB58D0400D
:100A8000A417B50761F7D6C255E07516C1F4809179
:100A90003204E82FF0E0E25EFC4F93E090838F5F3A
:100AA000E82FF0E0E25EFC4F10828F5FE82FF0E06D
:100AB000E25EFC4F10828F5F80933204BBC280E104
:100AC000781609F05EC0D50111968C911197129697
:100AD0002C91322F369536953695330F982F969563
:100AE00096959695390F809587702770332369F412
:100AF000F701E21BF109E40DF51D940102C0220F7C
:100B0000331F8A95E2F7C90138C03130A1F4F701EB
:100B1000E81BF10941E150E04C0F5D1FE40FF51FA8
:100B2000C701821B9109D40102C0AA0FBB1F8A957D
:100B3000E2F7CD0122C0323069F4E9E1F0E0EC0FD8
:100B4000FD1FE80FF11DC40102C0880F991F2A95EF
:100B5000E2F713C0333009F062C2E1E2F0E0EC0FDB
:100B6000FD1FE20FF11D9701281B3109A40102C0EE
:100B7000440F551F2A95E2F7CA01809520818223F0
:100B80004DC251E1751609F061C0D50111968C91E5
:100B9000119712962C91322F369536953695330F44
:100BA000982F969596959695390F80958770277012
:100BB000332361F4F701E21BF109E40DF51D940103
:100BC00002C0220F331F8A95E2F725C03130A1F40D
:100BD000F701E81BF10941E150E04C0F5D1FE40F04
:100BE000F51FC701821B9109D40102C0AA0FBB1FC8
:100BF0008A95E2F7CD0126C0323081F4E9E1F0E0D8
:100C0000EC0FFD1FE80FF11DA40102C0440F551F9A
:100C10002A95E2F79A018081822B00C2333009F0D5
:100C2000FEC1E1E2F0E0EC0FFD1FE20FF11DD70184
:100C3000A81BB10994010A2E02C0220F331F0A9487
:100C4000E2F7C9012081282B2083E9C132E1731624
:100C5000D9F49E012F5E3F4F80E090E00CC01192CE
:100C6000E217F307E1F701969F01285F3F4F8430B9
:100C7000910509F4D4C1FC0153E0EE0FFF1F5A9512
:100C8000E1F7E40DF51DEBCF43E17416E1F49E01AD
:100C90002F5E3F4F80E090E00DC05FEF5193E21771
:100CA000F307D9F701969F01285F3F4F84309105E4
:100CB00009F4B5C1FC0143E0EE0FFF1F4A95E1F7CF
:100CC000E40DF51DEACF84E1781609F0A4C0D50142
:100CD00012969C911297969596959695990F1196C6
:100CE0008C91869586958695980FB9F49101DE01D1
:100CF0005096F90181919F01E82FF0E0ED5EFD4FE4
:100D000080818C931197C057DF4F48815981C0591A
:100D1000D0402417350769F782C19130A9F5D10178
:100D200047E050E0C401042E02C0880F991F0A94C6
:100D3000E2F7182F8C91682F70E0FE01719620E089
:100D400030E0012F0095CB01022E02C095958795CA
:100D50000A94E2F7908180FF02C0912B01C090239A
:100D600090832F5F3F4F31962830310561F7415016
:100D700050401196C057DF4F88819981C059D040AB
:100D8000A817B90779F64BC1923099F5D10140E027
:100D900050E0C401042E02C0880F991F0A94E2F7A4
:100DA000082FEC91F0E0ED5EFD4F8081682F70E040
:100DB000FE01799620E030E0102F1095CB01022E35
:100DC00002C0959587950A94E2F7908180FF02C052
:100DD000902B01C0912390832F5F3F4F3196283095
:100DE000310561F74F5F5F4F11964830510589F625
:100DF00016C1933009F013C1F101DE019196819182
:100E00008D93C057DF4F28813981C059D040E217F8
:100E1000F307A9F704C136E1731609F07DC0D501C7
:100E200011969C91119712962C91129726952695C2
:100E30002695220F892F869586958695280F97707F
:100E4000222351F51396EC91F0E0ED5EFD4FE08129
:100E50009701291B3109A40102C0440F551F2A958F
:100E6000E2F7542F5095D20120E030E0C401022E69
:100E700002C0880F991F0A94E2F78E239C91882361
:100E800011F0942B01C095239C932F5F3F4F119637
:100E90002830310559F7C3C0213079F421E130E021
:100EA0002C0F3D1F290F311DF501A381B0E0AD5E70
:100EB000BD4F8C91D9018C93B2C0223039F4E7E157
:100EC000F0E0E91BF109E40DF51DA5C0233009F0A0
:100ED000A6C0F5016381482D01C0440F9A95EAF739
:100EE000542F5095FE01B19620E030E0C401022E4F
:100EF00002C0880F991F0A94E2F786239081882305
:100F000011F0942B01C0952390832F5F3F4F3196B2
:100F10002830310559F783C0F5E17F1609F081C00B
:100F2000D50112969C911297292F269526952695E4
:100F3000220F11968C911197869586958695280F8C
:100F40009770222369F4F701E91BF109E40DF51DFF
:100F500013968C91A82FB0E0AD5EBD4F8C915EC012
:100F6000213039F5F50163819701291B3109A4016D
:100F700002C0440F551F2A95E2F7542F5095FE01E9
:100F8000719620E030E0C401022E02C0880F991F44
:100F90000A94E2F786239081882311F0942B01C0F4
:100FA000952390832F5F3F4F31962830310559F7B5
:100FB00036C0223041F5D5011396EC91F0E0ED5E9C
:100FC000FD4FE081482D01C0440F9A95EAF7542F58
:100FD0005095DE01599620E030E0C401022E02C097
:100FE000880F991F0A94E2F78E239C91882311F0B1
:100FF000942B01C095239C932F5F3F4F119628306F
:10100000310559F70CC0233051F4E1E2F0E0EC0F68
:10101000FD1FE90FF11DD50113968C918083C394B8
:1010200009C0B7E17B1631F4F50161816F708AE088
:101030000E944D00DD24E0E0C157DF4FF881CF581A
:10104000D040FF5FC157DF4FF883CF58D040439A5D
:101050006E2E319908C0C157DF4F2881CF58D0403C
:10106000243109F08ECCCC20B1F0720110E01F5F6A
:10107000812FD7016C9118964C91189750962C910E
:10108000509758960C910E9489000894E11CF11C1D
:10109000183069F7CC2480912804882309F44DC0C6
:1010A000109228041BB8BFEFBAB9C357DF4FE881CD
:1010B000CD58D0408E2F90E0DC01AC5CBB4FFC01E2
:1010C000EC58FA4F20812C93FC013896DF01AC5884
:1010D000BA4F2C91EC5CFB4F2083FC017096DF0132
:1010E000AC58BA4F2C91EC5CFB4F20834896FC0126
:1010F000EC58FA4F20818C5C9B4FDC012C938AE0EA
:101100008A95F1F7779A85E08A95F1F780E0769AEB
:1011100076988F5F8830D9F77798C357DF4FB881BB
:10112000CD58D040BF5FB770C357DF4FB883CD589D
:10113000D0408B2F8295807F85B9F89420E030E0F5
:10114000AE014F5F5F4FD901A75DBB4F8C91FA0194
:10115000E20FF31F80838C9183708C932F5F3F4F3E
:101160002830310581F77894DE01119620E030E0D7
:1011700060E54C91459545954C934423B9F0809199
:10118000310490E0022E02C0959587950A94E2F70B
:1011900080FF0CC08091320490E0FC01E25EFC4FC5
:1011A0006083218342830396809332042F5F3F4FF5
:1011B000119628303105E9F61BB8EFEFEAB90BC0FC
:1011C000429AE92FF0E0E25EFC4F80818BB94298B1
:1011D0009F5F9093140390911403809132049817A9
:1011E00079F7349BAFCB10926E001FE030E9E32E0D
:1011F00031E0F32E8AE0612F0E944D0080E892E0FA
:10120000F7013197F1F70197D9F7115098F78CE072
:1012100060E00E944D0066CB80E090E0FC01EC585D
:10122000FA4F1082FC01EC5CFB4F1082FC01EC5A7F
:10123000FA4F1082FC01EC56FA4F10820196803270
:10124000910561F708951F93CF93DF93A82FB0E026
:10125000FD01EC58FA4F108170E0FD01EC5CFB4F92
:101260008081812790E0062E02C0959587950A948B
:10127000E2F7AC014170507080FF32C0FD01EC5AC2
:10128000FA4F2081822F812790E0062E02C095958B
:1012900087950A94E2F780FF23C0812F90E0062E05
:1012A00002C0959587950A94E2F780FF0DC081E012
:1012B00090E002C0880F991F6A95E2F7AC56BA4FCA
:1012C0008C93282B208349C093E0AA0FBB1F9A95CB
:1012D000E1F7A60FB71FAC5ABB4F84E08C933DC01B
:1012E000452BD9F5ED01CC5ADA4F4881842F81275F
:1012F00090E0062E02C0959587950A94E2F780FF4C
:101300002CC0FD0183E0EE0FFF1F8A95E1F7E60F89
:10131000F71FEC5AFB4F80818823F9F081508083BE
:101320008823D9F421E030E0062E02C0220F331FBB
:101330000A94E2F7AC56BA4F2C93812F90E002C08A
:10134000959587956A95E2F780FF03C0422B488305
:1013500004C0822F809584238883DF91CF911F91D1
:1013600008952F923F924F925F926F927F928F9249
:101370009F92AF92BF92CF92DF92EF92FF920F9324
:101380001F93CF93DF93CDB7DEB7CA1BDB0B0FB62E
:10139000F894DEBF0FBECDBF0994FB01DC010190C4
:0C13A0000D920020E1F70895F894FFCFB3
:1013AC006D6B000101210104010301030000000029
:1013BC00000001030301010B040402000000000003
:1013CC000000000000000000000000000000000011
:1013DC000000000000000000000000000000000001
:1013EC0000000000000000000000000000000000F1
:1013FC0000000000000000000000000000000000E1
:10140C0000000000000000000000000000000000D0
:10141C0000000000000000000000000000000000C0
:10142C0000000000000000000000000000000000B0
:10143C0000000000000000000000000000000000A0
:10144C000000000000000000000000000000000090
:10145C000000000000000000000000000000000080
:10146C000000000000000000000000000000000070
:10147C000000000000000000000000000000000060
:10148C000000000000000000000000000000000050
:10149C000000000000000000000000000000000040
:1014AC000000000001FF00FF000001010000FF0030
:1014BC00FF0100008040C020A060E0109050D030B0
:1014CC00B070F0088848C828A868E8189858D83828
:1014DC00B878F8048444C424A464E4149454D43434
:1014EC00B474F40C8C4CCC2CAC6CEC1C9C5CDC3CC8
:1014FC00BC7CFC028242C222A262E2129252D23222
:10150C00B272F20A8A4ACA2AAA6AEA1A9A5ADA3AC7
:10151C00BA7AFA068646C626A666E6169656D636D3
:10152C00B676F60E8E4ECE2EAE6EEE1E9E5EDE3E67
:10153C00BE7EFE018141C121A161E1119151D131E8
:10154C00B171F1098949C929A969E9199959D93997
:10155C00B979F9058545C525A565E5159555D535A3
:10156C00B575F50D8D4DCD2DAD6DED1D9D5DDD3D37
:10157C00BD7DFD038343C323A363E3139353D33391
:10158C00B373F30B8B4BCB2BAB6BEB1B9B5BDB3B37
:10159C00BB7BFB078747C727A767E7179757D73743
:1015AC00B777F70F8F4FCF2FAF6FEF1F9F5FDF3FD7
:0415BC00BF7FFF00EE
:00000001FF
