:100000000C942E000C944B000C944B000C944B0061
:100010000C944B000C944B000C944B000C94070177
:100020000C944B000C944B000C94F7000C944B0078
:100030000C944B000C944B000C944B000C944B0014
:100040000C944B000C944B000C944B000C944B0004
:100050000C944B000C944B000C944B0011241FBECD
:10006000CFEFD8E0DEBFCDBF13E0A0E0B1E0E0E12C
:10007000F5E102C005900D92A431B107D9F715E062
:10008000A4E1B3E001C01D92A43BB107E1F70E94D7
:100090006F010C94860A0C940000719827E030E000
:1000A000482F552747FD5095CA01022E02C095954D
:1000B00087950A94E2F780FF03C08EB18C6302C07B
:1000C0008EB1837C8EB9709A7098215030408FEF3A
:1000D0002F3F380749F727E030E0772767FD709515
:1000E000CB01022E02C0959587950A94E2F780FF16
:1000F00003C08EB18C6302C08EB1837C8EB9709ABE
:100100007098215030408FEF2F3F380749F7719A90
:1001100008950F93CF93DF937198E7E0F0E0A82F55
:10012000BB27A7FDB095CD010E2E02C095958795F2
:100130000A94E2F780FF03C08EB18C6302C08EB1D7
:10014000837C8EB9709A709831978FEFEF3FF807E4
:1001500051F7E7E0F0E0C62FDD27C7FDD095642F0B
:10016000772767FD7095422F552747FD5095A02FA3
:10017000BB27A7FDB0953E2FCE010E2E02C0959550
:1001800087950A94E2F780FF02C0759A01C07598BE
:10019000CB01032E02C0959587950A94E2F780FF64
:1001A00002C0749A01C07498CA01032E02C09595CA
:1001B00087950A94E2F780FF02C0739A01C0739892
:1001C000CD0102C0959587953A95E2F780FF02C070
:1001D000729A01C07298709A709831978FEFEF3FC2
:1001E000F80749F6719ADF91CF910F9108951F9208
:1001F0000F920FB60F9211248F9381E08093280401
:1002000016BC8F910F900FBE0F901F9018951F92E4
:100210000F920FB60F9211241F932F933F934F937A
:100220005F936F937F938F939F93AF93BF93CF937E
:10023000DF93EF93FF93809131048823C1F110B1D4
:100240007FB160E02CC0A62FB0E0872F90E08170D6
:100250009070880F991F212F2170282BAD014A5EC5
:100260005C4FEA0128839D01275D3B4FF901908196
:10027000A05EBB4FEC918881F0E0EE0FFF1FEE0F08
:10028000FF1FE80FF11DED5FFD4F8081980FE90121
:100290009883FA0180818C93169576956F5F68300C
:1002A00090F27093150310931E0460933304109220
:1002B000850010928400FF91EF91DF91CF91BF9163
:1002C000AF919F918F917F916F915F914F913F91EE
:1002D0002F911F910F900FBE0F901F901895AAE9B4
:1002E000B0E0E5E7F1E00C94630A9FEF9DB980E789
:1002F00084B98CE087B91AB81EB815B81BB811B804
:1003000010BA92B991BB9E01275D3F4FC457DF4F92
:1003100039832883CC58D040C90129E230E02C0F22
:100320003D1F205E3F4FC457DF4FA881B981CC5895
:10033000D0401D92C457DF4FB983A883CC58D0401A
:10034000A217B30781F760E071E00E947F0A8BE09B
:1003500067E00E944D008AE06FE00E944D0001E0DE
:10036000802F60E00E944D000F5F0930C9F78CE0DC
:1003700061E00E944D008FE060E00E944D0088E047
:100380006CE040E020E000E00E94890080E892E01C
:1003900020E931E0F9013197F1F70197D9F78AE0C7
:1003A0006DE00E944D0088E062E140E020E000E066
:1003B0000E94890087E06CE040E020E00E94890014
:1003C00080E892E020E931E0F9013197F1F70197F7
:1003D000D9F78AE06BE00E944D0088E061E240E0DE
:1003E00020E000E00E94890087E062E140E020E038
:1003F0000E94890086E06CE040E020E00E948900D5
:1004000080E892E020E931E0F9013197F1F70197B6
:10041000D9F78AE069E00E944D0088E060E440E09E
:1004200020E000E00E94890087E060E440E020E0F6
:100430000E94890086E061E240E020E00E9489009D
:1004400085E06EE140E020E00E94890080E892E0D3
:1004500020E931E0F9013197F1F70197D9F78AE006
:1004600067E00E944D0088E060E040E021E000E0AD
:100470000E94890087E060E040E021E00E9489005E
:1004800086E060E040E021E00E94890085E060E8CD
:1004900040E020E00E94890084E060E440E020E049
:1004A0000E94890083E061E240E020E00E94890030
:1004B00082E06EE140E020E00E94890080E892E066
:1004C00020E931E0F9013197F1F70197D9F78AE096
:1004D00065E00E944D0088E060E040EC20E100E033
:1004E0000E94890087E060E048E320E10E948900E3
:1004F00086E060E047E028E00E94890085E060E057
:1005000040E028E00E94890084E060E040E024E0D0
:100510000E94890083E060E040E024E00E948900BE
:1005200082E060E040E022E00E94890081E060E03B
:1005300040E021E00E94890080E892E020E931E07B
:10054000F9013197F1F70197D9F78AE063E00E944A
:100550004D0088E060E040E020E800E20E94890071
:1005600087E060E040E020E800E10E94890086E04A
:1005700060E040E020E80E94890085E060E040E023
:1005800020E808E00E94890084E060E040E020E488
:1005900006E00E94890083E060E040E820E401E09A
:1005A0000E94890082E060E040E720E400E00E94D1
:1005B000890081E060E04FE020E20E94890080E84D
:1005C00092E020E931E0F9013197F1F70197D9F78D
:1005D0008AE061E00E944D0088E060E040E020E0B9
:1005E00000E00E94890087E060E040E020E00E9497
:1005F000890086E060E040E020E00E94890085E01C
:1006000060E040E020E00E94890084E060E040E09B
:1006100020E000E80E94890083E060E040E020E004
:100620000E94890082E060E040E020E000E40E9457
:10063000890081E060E040E020E000E30E94890062
:1006400080E892E020E931E0F9013197F1F7019774
:10065000D9F701E0802F60E00E944D000F5F093064
:10066000C9F78AE06FE00E944D00FE01E75BFF4F93
:10067000CF010A961192E817F907E1F79E012F5E64
:100680003F4F80E090E0AE01475F5F4F0BC011929B
:10069000E217F307E1F701969F01285F3F4F84308F
:1006A000910549F0FC0163E0EE0FFF1F6A95E1F749
:1006B000E40FF51FECCF109214031092320480E087
:1006C00090E0FC01E75DFB4F1082FC01EA5EFC4F0D
:1006D0001082FC01E05EFB4F10820196883091058C
:1006E00081F70E94BE09F999FECF81E090E092BDAA
:1006F00081BDF89A80B5809331048FEF80933104E7
:1007000084B5856084BD80916E00826080936E00A8
:100710008FE087BD1092800080918100846080937B
:10072000810080916F00826080936F0085E090E08F
:10073000909389008093880078947724B1E0CF5615
:10074000DF4FB883C159D040C057DF4F1882C0591E
:10075000D040C157DF4F1882CF58D04041E06624C7
:10076000C257DF4F1882CE58D04039E4432E512C67
:100770004C0E5D1EF2013B96C756DF4FF983E883AE
:10078000C959D040442341F1349B02C041E015C017
:100790008CE061E00E944D0010E0E12C2DE7F22E8C
:1007A000612F669566958AE00E944D00C70101970A
:1007B000F1F71F5F1034A1F740E086EF99E020E9E0
:1007C00031E0F9013197F1F70197D9F780916E0087
:1007D000826080936E00D6CF91E0892E912C920199
:1007E0002D5F3F4FC956DF4F39832883C759D0400B
:1007F0001BB81AB8C157DF4F3881CF58D0403932B3
:1008000010F077240BC0C157DF4F4881CF58D0403C
:100810004F5FC157DF4F4883CF58D040DD2485E07C
:10082000C82E3324339407E0E02EF12C17E1A12EDB
:10083000B12CBEC343988C2D8A95F1F789B1F20192
:10084000E70DF11D80837720B1F4D201BC91C05730
:10085000DF4FB883C059D040EB2FF0E0ED5FFE4F83
:10086000E081EE2349F077247394C157DF4F18825B
:10087000CF58D04006C07394CF56DF4FE881C1599E
:10088000D0407E1609F08DC3C057DF4FE881C059B4
:10089000D040EE2399F580913204E82FF0E0E25E3B
:1008A000FC4F10828F5FE82FF0E0E25EFC4F308259
:1008B0008F5FE82FF0E0E25EFC4F92E090838F5F65
:1008C000E82FF0E0E25EFC4F10828F5FE82FF0E04F
:1008D000E25EFC4F90838F5FE82FF0E0E25EFC4F1A
:1008E00090838F5FE82FF0E0E25EFC4F10828F5F15
:1008F000E82FF0E0E25EFC4FC08243C0C057DF4FFC
:10090000F881C059D040F13031F580913204E82FA0
:10091000F0E0E25EFC4FC057DF4F2881C059D04065
:1009200020838F5F80933204DE0199968091320498
:10093000E82FF0E0E25EFC4F9D9190838F5F809303
:100940003204C457DF4F48815981CC58D040A41796
:10095000B50761F724C3C057DF4F5881C059D04055
:100960005530D1F480913204E82FF0E0E25EFC4F84
:1009700093E090838F5FE82FF0E0E25EFC4F90E120
:1009800090838F5FE82FF0E0E25EFC4F98E0908369
:100990008F5F8093320403C3C057DF4F8881C059F3
:1009A000D040803109F05CC0D20111968C91119732
:1009B00012962C91322F369536953695330F982F07
:1009C000969596959695390F809587702770332365
:1009D00051F4F701E21BF10929E030E02C0F3D1F33
:1009E000E20FF31F32C03130A1F4F701E81BF10927
:1009F00081E190E08C0F9D1FE80FF91FC701821B5A
:100A00009109D40102C0AA0FBB1F8A95E2F7CD015C
:100A100023C0323069F4E9E1F0E0EC0FFD1FE80F8C
:100A2000F11DC40102C0880F991F2A95E2F714C076
:100A3000333009F0A5C2E1E2F0E0EC0FFD1FE20F58
:100A4000F11D9701281B3109C901A40102C0440FFF
:100A5000551F8A95E2F7CA018095208182238FC2B3
:100A6000C057DF4F5881C059D040513109F065C09F
:100A7000D20111968C91119712962C91322F3695A6
:100A800036953695330F982F969596959695390FFE
:100A9000809587702770332381F4F701E21BF109F9
:100AA00029E030E02C0F3D1FE20FF31F940102C03C
:100AB000220F331F8A95E2F725C03130A1F4F701E8
:100AC000E81BF10941E150E04C0F5D1FE40FF51FF9
:100AD000C701821B9109D40102C0AA0FBB1F8A95CE
:100AE000E2F7CD0126C0323081F4E9E1F0E0EC0F0D
:100AF000FD1FE80FF11DA40102C0440F551F2A95E8
:100B0000E2F79A018081822B3AC2333009F038C271
:100B1000E1E2F0E0EC0FFD1FE20FF11DD701A81B91
:100B2000B10994010A2E02C0220F331F0A94E2F782
:100B3000C9012081282B208323C2C057DF4F388171
:100B4000C059D0403231F9F49E012F5E3F4F80E012
:100B500090E00CC01192E217F307E1F701969F01B4
:100B6000285F3F4F8430910509F40AC2FC01B3E0CD
:100B7000EE0FFF1FBA95E1F749E050E04C0F5D1F03
:100B8000E40FF51FE7CFC057DF4F5881C059D04061
:100B9000533101F59E012F5E3F4F80E090E00DC084
:100BA000AFEFA193E217F307D9F701969F01285FF2
:100BB0003F4F8430910509F4E3C1FC01A3E0EE0F3F
:100BC000FF1FAA95E1F749E050E04C0F5D1FE40FCD
:100BD000F51FE6CFC057DF4F5881C059D040543180
:100BE00009F0B8C0D20112969C91129796959695ED
:100BF0009695990F11968C91869586958695980F66
:100C0000E1F4C956DF4F28813981C759D040DE0150
:100C10005096F90181919F01E82FF0E0ED5EFD4FC4
:100C200080818C931197C756DF4F48815981C959EC
:100C3000D0402417350769F7A3C19130D1F5C956C3
:100C4000DF4FA881B981C759D04047E050E0C401C7
:100C5000042E02C0880F991F0A94E2F7182F8C9176
:100C6000682F70E0FE01719620E030E0012F0095C2
:100C7000CB01022E02C0959587950A94E2F79081E8
:100C800080FF02C0912B01C0902390832F5F3F4FC4
:100C900031962830310561F7415050401196C756C2
:100CA000DF4F88819981C959D040A817B90779F6D3
:100CB00067C19230C1F5C956DF4FA881B981C759C4
:100CC000D04040E050E0C401042E02C0880F991FBC
:100CD0000A94E2F7082FEC91F0E0ED5EFD4F808181
:100CE000682F70E0FE01799620E030E0102F10951B
:100CF000CB01022E02C0959587950A94E2F7908168
:100D000080FF02C0902B01C0912390832F5F3F4F43
:100D100031962830310561F74F5F5F4F11964830AB
:100D2000510589F62DC1933009F02AC1C956DF4F0C
:100D3000E881F981C759D040DE01919681918D9368
:100D4000C756DF4F28813981C959D040E217F307D0
:100D5000A9F716C1C057DF4F3881C059D04036318E
:100D600009F081C0D20111969C91119712962C9195
:100D70001297269526952695220F892F869586957A
:100D80008695280F9770222359F51396EC91F0E081
:100D9000ED5EFD4FE0819701291B3109A40102C0DE
:100DA000440F551F2A95E2F7542F5095DE011996EE
:100DB00020E030E0C401022E02C0880F991F0A947F
:100DC000E2F78E239C91882311F0942B01C0952388
:100DD0009C932F5F3F4F11962830310559F7D0C0B3
:100DE000213079F421E130E02C0F3D1F290F311D16
:100DF000F201A381B0E0AD5EBD4F8C91D9018C931F
:100E0000BFC0223051F4F501E91BF10929E030E0BF
:100E10002C0F3D1FE20FF31FAFC0233009F0B0C00D
:100E2000F2016381482D01C0440F9A95EAF7542FCF
:100E30005095FE01B19620E030E0C401022E02C0C0
:100E4000880F991F0A94E2F786239081882311F076
:100E5000942B01C0952390832F5F3F4F319628300C
:100E6000310559F78DC0C057DF4FF881C059D040C8
:100E7000F53109F087C0D20112969C911297292F63
:100E8000269526952695220F11968C911197869579
:100E900086958695280F9770222389F4F701E91B20
:100EA000F10929E030E02C0F3D1FE20FF31F1396EC
:100EB0008C91A82FB0E0AD5EBD4F8C9160C0213009
:100EC00049F5D20113966C91F701E91BF1099401E0
:100ED00002C0220F331FEA95E2F7422F522F50959E
:100EE000FE01719620E030E0C401022E02C0880F9E
:100EF000991F0A94E2F786239081882311F0942B9E
:100F000001C0952390832F5F3F4F319628303105E4
:100F100059F736C0223041F5D2011396EC91F0E03A
:100F2000ED5EFD4FE081482D01C0440F9A95EAF730
:100F3000542F5095DE01599620E030E0C401022E76
:100F400002C0880F991F0A94E2F78E239C91882390
:100F500011F0942B01C095239C932F5F3F4F119666
:100F60002830310559F70CC0233051F4E1E2F0E0AC
:100F7000EC0FFD1FE90FF11DD20113968C918083B8
:100F800063940DC0C057DF4FB881C059D040B7310E
:100F900031F4F20161816F708AE00E944D00772484
:100FA000E0E0D394439ACF56DF4FE883C159D04055
:100FB000319904C0F4E1DF1609F03CCC6620D1F091
:100FC00079E0E72EF12CEC0EFD1E10E01F5F812F63
:100FD000D7016C9118964C91189750962C91509778
:100FE00058960C910E9489000894E11CF11C18305D
:100FF00069F7662480912804882309F450C110926F
:1010000028041BB8BFEFBAB9C257DF4FE881CE58EA
:10101000D0402E2F30E0F901EC5CFB4FA9014C5879
:101020005A4FDA018C918083F9013896DF01AC5870
:10103000BA4F8C91EC5CFB4F8083F9017096DF0115
:10104000AC58BA4F8C91EC5CFB4F8083F9017896D9
:10105000DF01AC58BA4F8C91EC5CFB4F80838AE087
:101060008A95F1F7779A85E08A95F1F7EE24FF24C7
:1010700007E05A01F901EC56FA4FCE56DF4FF983DB
:10108000E883C259D040F02FC257DF4F2881CE5895
:10109000D040F21BCC56DF4FF883C459D040222EEB
:1010A00038E0230E822D90E064E7C62E65E0D62E50
:1010B000C80ED91EAC014C565A4FCB56DF4F598340
:1010C0004883C559D040C557DF4FE882CB58D04040
:1010D00083B190E053E0969587955A95E1F73324D4
:1010E0003394382280FD0CC094010E2C02C0220FD4
:1010F000331F0A94E2F7D5018C91822B8C930CC09C
:10110000C4010E2C02C0880F991F0A94E2F7809543
:10111000F501208182238083C257DF4F8881CE581A
:10112000D040C557DF4F6881CB58D0400E94D509C9
:10113000CE56DF4FA881B981C259D0402C911E2DC7
:10114000822F90E00E2C02C0959587950A94E2F7C5
:1011500080FF2BC0C4010E2C02C0880F991F0A9477
:10116000E2F7809582238C93E0913204332011F0D2
:1011700080E201C081E2F0E0E25EFC4F808380917A
:1011800032048F5FE82FF0E0E25EFC4F00838F5F58
:10119000E82FF0E0E25EFC4FCC56DF4FB881C45937
:1011A000D040B0838F5F8093320483B190E09695F6
:1011B00087959695879533243394382280FD0CC00B
:1011C0009401012E02C0220F331F0A94E2F7F601A8
:1011D0008081822B80830CC0C401012E02C0880F45
:1011E000991F0A94E2F78095D6012C9182238C9363
:1011F000822DC557DF4F6881CB58D0400E94D5095A
:10120000CB56DF4FE881F981C559D0402081822F2C
:1012100090E0012E02C0959587950A94E2F780FF31
:1012200025C0C40102C0880F991F1A95E2F7809566
:1012300082238083E0913204332011F080E201C0E8
:1012400081E2F0E0E25EFC4F8083809132048F5FA8
:10125000E82FF0E0E25EFC4F20828F5FE82FF0E0A5
:10126000E25EFC4F00838F5F80933204769A76981B
:101270000894E11CF11C015008F025CF7798C25763
:10128000DF4FF881CE58D040FF5FF770C257DF4F75
:10129000F883CE58D0408F2F8295807F85B9F894FF
:1012A00020E030E0AE014F5F5F4FD901A75DBB4F3B
:1012B0008C91FA01E20FF31F80838C9183708C93E1
:1012C0002F5F3F4F2830310581F77894DE0111966A
:1012D00020E030E060E54C91459545954C934423E2
:1012E000B9F08091310490E0022E02C09595879567
:1012F0000A94E2F780FF0CC08091320490E0FC0178
:10130000E25EFC4F60832183428303968093320424
:101310002F5F3F4F119628303105E9F61BB82FEFAC
:101320002AB90BC0429AE92FF0E0E25EFC4F8081BF
:101330008BB942989F5F909314039091140380910E
:101340003204981779F7349B53CA10926E001FE04D
:1013500030E9E32E31E0F32E8AE0612F0E944D0048
:1013600080E892E0F7013197F1F70197D9F7115032
:1013700098F78CE060E00E944D0006CA80E090E0A3
:10138000FC01EC58FA4F1082FC01EC5CFB4F108220
:10139000FC01EC5AFA4F1082FC01EC56FA4F108215
:1013A00001968032910561F708951F93CF93DF93E3
:1013B000A82FB0E0FD01EC58FA4F108170E0FD015C
:1013C000EC5CFB4F8081812790E0062E02C0959552
:1013D00087950A94E2F7AC014170507080FF32C0EB
:1013E000FD01EC5AFA4F2081822F812790E0062ED2
:1013F00002C0959587950A94E2F780FF23C0812F5C
:1014000090E0062E02C0959587950A94E2F780FF3A
:101410000DC081E090E002C0880F991F6A95E2F745
:10142000AC56BA4F8C93282B208349C093E0AA0F67
:10143000BB1F9A95E1F7A60FB71FAC5ABB4F84E0CC
:101440008C933DC0452BD9F5ED01CC5ADA4F48813C
:10145000842F812790E0062E02C0959587950A94E7
:10146000E2F780FF2CC0FD0183E0EE0FFF1F8A959D
:10147000E1F7E60FF71FEC5AFB4F80818823F9F064
:10148000815080838823D9F421E030E0062E02C009
:10149000220F331F0A94E2F7AC56BA4F2C93812FD8
:1014A00090E002C0959587956A95E2F780FF03C0AA
:1014B000422B488304C0822F809584238883DF9148
:1014C000CF911F9108952F923F924F925F926F920A
:1014D0007F928F929F92AF92BF92CF92DF92EF92C4
:1014E000FF920F931F93CF93DF93CDB7DEB7CA1B45
:1014F000DB0B0FB6F894DEBF0FBECDBF0994FB0126
:10150000DC0101900D920020E1F70895F894FFCFDF
:101510006D6B0001012101040103010300000000C3
:10152000000001030301010B04040200000000009D
:1015300000000000000000000000000000000000AB
:10154000000000000000000000000000000000009B
:10155000000000000000000000000000000000008B
:10156000000000000000000000000000000000007B
:10157000000000000000000000000000000000006B
:10158000000000000000000000000000000000005B
:10159000000000000000000000000000000000004B
:1015A000000000000000000000000000000000003B
:1015B000000000000000000000000000000000002B
:1015C000000000000000000000000000000000001B
:1015D000000000000000000000000000000000000B
:1015E00000000000000000000000000000000000FB
:1015F00000000000000000000000000000000000EB
:1016000000000000000000000000000000000000DA
:101610000000000001FF00FF000001010000FF00CA
:10162000FF0100008040C020A060E0109050D0304A
:10163000B070F0088848C828A868E8189858D838C2
:10164000B878F8048444C424A464E4149454D434CE
:10165000B474F40C8C4CCC2CAC6CEC1C9C5CDC3C62
:10166000BC7CFC028242C222A262E2129252D232BC
:10167000B272F20A8A4ACA2AAA6AEA1A9A5ADA3A62
:10168000BA7AFA068646C626A666E6169656D6366E
:10169000B676F60E8E4ECE2EAE6EEE1E9E5EDE3E02
:1016A000BE7EFE018141C121A161E1119151D13183
:1016B000B171F1098949C929A969E9199959D93932
:1016C000B979F9058545C525A565E5159555D5353E
:1016D000B575F50D8D4DCD2DAD6DED1D9D5DDD3DD2
:1016E000BD7DFD038343C323A363E3139353D3332C
:1016F000B373F30B8B4BCB2BAB6BEB1B9B5BDB3BD2
:10170000BB7BFB078747C727A767E7179757D737DD
:10171000B777F70F8F4FCF2FAF6FEF1F9F5FDF3F71
:04172000BF7FFF0088
:00000001FF
