:100000000C942E000C944B000C944B000C944B0061
:100010000C944B000C944B000C944B000C94070177
:100020000C944B000C944B000C94F7000C944B0078
:100030000C944B000C944B000C944B000C944B0014
:100040000C944B000C944B000C944B000C944B0004
:100050000C944B000C944B000C944B0011241FBECD
:10006000CFEFD8E0DEBFCDBF13E0A0E0B1E0E2E229
:10007000F9E102C005900D92A431B107D9F715E05E
:10008000A4E1B3E001C01D92A43BB107E1F70E94D7
:1000900020020C948F0C0C940000719827E030E043
:1000A000482F552747FD5095CA01022E02C095954D
:1000B00087950A94E2F780FF03C08EB18C6302C07B
:1000C0008EB1837C8EB9709A7098215030408FEF3A
:1000D0002F3F380749F727E030E0772767FD709515
:1000E000CB01022E02C0959587950A94E2F780FF16
:1000F00003C08EB18C6302C08EB1837C8EB9709ABE
:100100007098215030408FEF2F3F380749F7719A90
:1001100008950F93CF93DF937198E7E0F0E0A82F55
:10012000BB27A7FDB095CD010E2E02C095958795F2
:100130000A94E2F780FF03C08EB18C6302C08EB1D7
:10014000837C8EB9709A709831978FEFEF3FF807E4
:1001500051F7E7E0F0E0C62FDD27C7FDD095642F0B
:10016000772767FD7095422F552747FD5095A02FA3
:10017000BB27A7FDB0953E2FCE010E2E02C0959550
:1001800087950A94E2F780FF02C0759A01C07598BE
:10019000CB01032E02C0959587950A94E2F780FF64
:1001A00002C0749A01C07498CA01032E02C09595CA
:1001B00087950A94E2F780FF02C0739A01C0739892
:1001C000CD0102C0959587953A95E2F780FF02C070
:1001D000729A01C07298709A709831978FEFEF3FC2
:1001E000F80749F6719ADF91CF910F9108951F9208
:1001F0000F920FB60F9211248F9381E08093280401
:1002000016BC8F910F900FBE0F901F9018951F92E4
:100210000F920FB60F9211242F933F934F938F930A
:100220009F93EF93FF9380913104882309F4F8C0E2
:1002300040B1842F83708093160390912904E0913C
:10024000200480911603F0E0EE0FFF1FEE0FFF1F5A
:10025000E80FF11DED5FFD4F8081980F9093290409
:100260008091160380932004242F30E0C9018C7004
:1002700090709595879595958795809317039091A4
:100280002A04E091210480911703F0E0EE0FFF1F94
:10029000EE0FFF1FE80FF11DED5FFD4F8081980FFE
:1002A00090932A0480911703809321042073307067
:1002B000E4E035952795EA95E1F7209318039091AE
:1002C0002B04E091220480911803F0E0EE0FFF1F51
:1002D000EE0FFF1FE80FF11DED5FFD4F8081980FBE
:1002E00090932B04809118038093220442954695A5
:1002F000469543704093190390912C04E091230498
:1003000080911903F0E0EE0FFF1FEE0FFF1FE80FC3
:10031000F11DED5FFD4F8081980F90932C0480912B
:100320001903809323044FB140931E04842F8370DC
:1003300080931A0390912D04E091240480911A0374
:10034000F0E0EE0FFF1FEE0FFF1FE80FF11DED5F56
:10035000FD4F8081980F90932D0480911A03809314
:100360002404242F30E0C9018C70907095958795F6
:100370009595879580931B0390912E04E091250419
:1003800080911B03F0E0EE0FFF1FEE0FFF1FE80F41
:10039000F11DED5FFD4F8081980F90932E048091A9
:1003A0001B038093250420733070E4E03595279576
:1003B000EA95E1F720931C0390912F04E091260425
:1003C00080911C03F0E0EE0FFF1FEE0FFF1FE80F00
:1003D000F11DED5FFD4F8081980F90932F04809168
:1003E0001C0380932604429546954695437040939E
:1003F0001D0390913004E091270480911D03F0E0EB
:10040000EE0FFF1FEE0FFF1FE80FF11DED5FFD4F19
:100410008081980F9093300480911D03809327046E
:100420001092850010928400FF91EF919F918F911F
:100430004F913F912F910F900FBE0F901F901895E5
:10044000A5EAB0E0E6E2F2E00C946C0C9FEF9DB9F7
:1004500080E784B98CE087B91AB81EB815B81BB804
:1004600011B810BA92B991BB9E01275D3F4FC45796
:10047000DF4F39832883CC58D040C90129E230E0CE
:100480002C0F3D1F205E3F4FC457DF4FA881B9811D
:10049000CC58D0401D92C457DF4FB983A883CC58A5
:1004A000D040A217B30781F760E071E00E94880C8A
:1004B0008BE067E00E944D008AE06FE00E944D00F3
:1004C00001E0802F60E00E944D000F5F0930C9F706
:1004D0008CE061E00E944D008FE060E00E944D00E2
:1004E00088E06CE040E020E000E00E94890080E8C5
:1004F00092E020E931E0F9013197F1F70197D9F75E
:100500008AE06DE00E944D0088E062E140E020E07A
:1005100000E00E94890087E06CE040E020E00E945B
:10052000890080E892E020E931E0F9013197F1F7A4
:100530000197D9F78AE06BE00E944D0088E061E204
:1005400040E020E000E00E94890087E062E140E0B6
:1005500020E00E94890086E06CE040E020E00E94FC
:10056000890080E892E020E931E0F9013197F1F764
:100570000197D9F78AE069E00E944D0088E060E4C5
:1005800040E020E000E00E94890087E060E440E075
:1005900020E00E94890086E061E240E020E00E94C5
:1005A000890085E06EE140E020E00E94890080E85B
:1005B00092E020E931E0F9013197F1F70197D9F79D
:1005C0008AE067E00E944D0088E060E040E021E0C2
:1005D00000E00E94890087E060E040E021E00E94A6
:1005E000890086E060E040E021E00E94890085E02B
:1005F00060E840E020E00E94890084E060E440E0A0
:1006000020E00E94890083E061E240E020E00E9457
:10061000890082E06EE140E020E00E94890080E8ED
:1006200092E020E931E0F9013197F1F70197D9F72C
:100630008AE065E00E944D0088E060E040EC20E147
:1006400000E00E94890087E060E048E320E10E942A
:10065000890086E060E047E028E00E94890085E0AC
:1006600060E040E028E00E94890084E060E040E033
:1006700024E00E94890083E060E040E024E00E94E2
:10068000890082E060E040E022E00E94890081E091
:1006900060E040E021E00E94890080E892E020E9EB
:1006A00031E0F9013197F1F70197D9F78AE063E07A
:1006B0000E944D0088E060E040E020E800E20E94F7
:1006C000890087E060E040E020E800E10E948900C6
:1006D00086E060E040E020E80E94890085E060E07C
:1006E00040E020E808E00E94890084E060E040E00B
:1006F00020E406E00E94890083E060E040E820E416
:1007000001E00E94890082E060E040E720E400E030
:100710000E94890081E060E04FE020E20E948900B1
:1007200080E892E020E931E0F9013197F1F7019793
:10073000D9F78AE061E00E944D0088E060E040E087
:1007400020E000E00E94890087E060E040E020E0D7
:100750000E94890086E060E040E020E00E9489007D
:1007600085E060E040E020E00E94890084E060E0F5
:1007700040E020E000E80E94890083E060E040E083
:1007800020E00E94890082E060E040E020E000E498
:100790000E94890081E060E040E020E000E30E94E8
:1007A000890080E892E020E931E0F9013197F1F722
:1007B0000197D9F701E0802F60E00E944D000F5FA4
:1007C0000930C9F78AE06FE00E944D00FE01E75B47
:1007D000FF4FCF010A961192E817F907E1F79E0142
:1007E0002F5E3F4F80E090E0AE01475F5F4F0BC050
:1007F0001192E217F307E1F701969F01285F3F4F3F
:100800008430910549F0FC0163E0EE0FFF1F6A950B
:10081000E1F7E40FF51FECCF1092140310923204AD
:1008200080E090E0FC01E75DFB4F1082FC01EA5E96
:10083000FC4F1082FC01E05EFB4F10820196883075
:10084000910581F70E94C70BF999FECF81E090E0F6
:1008500092BD81BDF89A80B5809331048FEF80936B
:10086000310484B5856084BD80916E008260809380
:100870006E008FE087BD10928000809181008460BF
:100880008093810080916F00826080936F0085E08B
:1008900090E0909389008093880078945524B1E08B
:1008A000CD56DF4FB883C359D040CE56DF4F1882A4
:1008B000C259D040CF56DF4F1882C159D04041E0D5
:1008C0004424C057DF4F1882C059D04059E4A52EA8
:1008D000B12CAC0EBD1EF5013B96CC55DF4FF98314
:1008E000E883C45AD040442341F1349B02C041E024
:1008F00015C08CE061E00E944D0010E0E12C3DE766
:10090000F32E612F669566958AE00E944D00C7011F
:100910000197F1F71F5F1034A1F740E086EF99E0EF
:1009200020E931E0F9013197F1F70197D9F780918A
:100930006E00826080936E00D6CF21E0C22ED12C53
:1009400095012D5F3F4FCE55DF4F39832883C25A23
:10095000D0401BB81AB8CF56DF4F3881C159D040AC
:10096000393210F055240BC0CF56DF4F4881C159A2
:10097000D0404F5FCF56DF4F4883C159D0409924B4
:1009800095E0892E3324339487E0E82EF12C07E19B
:10099000602E712CC4C34398882D8A95F1F789B1D4
:1009A000F501E50DF11D80835520B1F4D501BC9111
:1009B000CE56DF4FB883C259D040EB2FF0E0ED5F49
:1009C000FE4FE081EE2349F055245394CF56DF4F7C
:1009D0001882C159D04006C05394CD56DF4FE881EC
:1009E000C359D0405E1609F093C3CE56DF4FE8815D
:1009F000C259D040EE23D1F580913204E82FF0E0C7
:100A0000E25EFC4F10828F5FE82FF0E0E25EFC4F69
:100A100030828F5FE82FF0E0E25EFC4F24E020831D
:100A20008F5FE82FF0E0E25EFC4F10828F5FE82FCF
:100A3000F0E0E25EFC4F92E090838F5FE82FF0E001
:100A4000E25EFC4F20838F5FE82FF0E0E25EFC4F18
:100A500010828F5FE82FF0E0E25EFC4F80828F5FB4
:100A6000E82FF0E0E25EFC4F98E048C0CE56DF4F42
:100A7000F881C259D040F13031F580913204E82F2D
:100A8000F0E0E25EFC4FCE56DF4F2881C259D040E5
:100A900020838F5F80933204DE0199968091320427
:100AA000E82FF0E0E25EFC4F9D9190838F5F809392
:100AB0003204C457DF4F48815981CC58D040A41725
:100AC000B50761F723C3CE56DF4F5881C259D040D6
:100AD0005530C9F480913204E82FF0E0E25EFC4F1B
:100AE00093E090838F5FE82FF0E0E25EFC4F90E1AF
:100AF00090838F5FE82FF0E0E25EFC4F90838F5F82
:100B00008093320403C3CE56DF4F8881C259D04050
:100B1000803109F05CC0D50111968C911197129625
:100B20002C91322F369536953695330F982F969512
:100B300096959695390F809587702770332351F4D9
:100B4000F701E21BF10929E030E02C0F3D1FE20F15
:100B5000F31F32C03130A1F4F701E81BF10981E144
:100B600090E08C0F9D1FE80FF91FC701821B9109B0
:100B7000D60102C0AA0FBB1F8A95E2F7CD0123C0A0
:100B8000323069F4E9E1F0E0EC0FFD1FE80FF11DF0
:100B9000C60102C0880F991F2A95E2F714C03330AE
:100BA00009F0A5C2E1E2F0E0EC0FFD1FE20FF11D3C
:100BB0009701281B3109C901A60102C0440F551F26
:100BC0008A95E2F7CA018095208182238FC2CE5692
:100BD000DF4F5881C259D040513109F065C0D5016D
:100BE00011968C91119712962C91322F369536953D
:100BF0003695330F982F969596959695390F809543
:100C000087702770332381F4F701E21BF10929E093
:100C100030E02C0F3D1FE20FF31F960102C0220FA0
:100C2000331F8A95E2F725C03130A1F4F701E81BA4
:100C3000F10941E150E04C0F5D1FE40FF51FC701C2
:100C4000821B9109D60102C0AA0FBB1F8A95E2F749
:100C5000CD0126C0323081F4E9E1F0E0EC0FFD1F58
:100C6000E80FF11DA60102C0440F551F2A95E2F7B7
:100C70009A018081822B3AC2333009F038C2E1E216
:100C8000F0E0EC0FFD1FE20FF11DD701A81BB10929
:100C900096010A2E02C0220F331F0A94E2F7C901FF
:100CA0002081282B208323C2CE56DF4F3881C259A2
:100CB000D0403231F9F49E012F5E3F4F80E090E04A
:100CC0000CC01192E217F307E1F701969F01285F2C
:100CD0003F4F8430910509F40AC2FC0113E0EE0F86
:100CE000FF1F1A95E1F749E050E04C0F5D1FE40F3C
:100CF000F51FE7CFCE56DF4F5881C259D040533150
:100D000001F59E012F5E3F4F80E090E00DC0AFEFF8
:100D1000A193E217F307D9F701969F01285F3F4F90
:100D20008430910509F4E3C1FC01B3E0EE0FFF1F2D
:100D3000BA95E1F749E050E04C0F5D1FE40FF51F55
:100D4000E6CFCE56DF4F5881C259D040543109F01A
:100D5000B8C0D50112969C91129796959695969546
:100D6000990F11968C91869586958695980FE1F44A
:100D7000CE55DF4F28813981C25AD040DE015096CE
:100D8000F90181919F01E82FF0E0ED5EFD4F808138
:100D90008C931197CC55DF4F48815981C45AD0406C
:100DA0002417350769F7A3C19130D1F5CE55DF4F30
:100DB000A881B981C25AD04047E050E0C601042E54
:100DC00002C0880F991F0A94E2F7182F8C91682FA0
:100DD00070E0FE01719620E030E0012F0095CB011C
:100DE000022E02C0959587950A94E2F7908180FFC4
:100DF00002C0912B01C0902390832F5F3F4F31960B
:100E00002830310561F7415050401196CC55DF4FE5
:100E100088819981C45AD040A817B90779F667C16B
:100E20009230C1F5CE55DF4FA881B981C25AD0406A
:100E300040E050E0C601042E02C0880F991F0A94BA
:100E4000E2F7082FEC91F0E0ED5EFD4F8081682F16
:100E500070E0FE01799620E030E0102F1095CB0174
:100E6000022E02C0959587950A94E2F7908180FF43
:100E700002C0902B01C0912390832F5F3F4F31968A
:100E80002830310561F74F5F5F4F119648305105AB
:100E900089F62DC1933009F02AC1CE55DF4FE88184
:100EA000F981C25AD040DE01919681918D93CC5543
:100EB000DF4F28813981C45AD040E217F307A9F7E0
:100EC00016C1CE56DF4F3881C259D040363109F0B5
:100ED00081C0D50111969C91119712962C91129771
:100EE000269526952695220F892F86958695869597
:100EF000280F9770222359F51396EC91F0E0ED5EE0
:100F0000FD4FE0819701291B3109A60102C0440F62
:100F1000551F2A95E2F7542F5095DE01199620E0CF
:100F200030E0C601022E02C0880F991F0A94E2F732
:100F30008E239C91882311F0942B01C095239C93C0
:100F40002F5F3F4F11962830310559F7D0C021301F
:100F500079F421E130E02C0F3D1F290F311DF501FF
:100F6000A381B0E0AD5EBD4F8C91D9018C93BFC021
:100F7000223051F4F301E91BF10929E030E02C0F94
:100F80003D1FE20FF31FAFC0233009F0B0C0F501E1
:100F900063814C2D01C0440F9A95EAF7542F509568
:100FA000FE01B19620E030E0C601022E02C0880F9B
:100FB000991F0A94E2F786239081882311F0942BDD
:100FC00001C0952390832F5F3F4F31962830310524
:100FD00059F78DC0CE56DF4FF881C259D040F53158
:100FE00009F087C0D50112969C911297292F26955A
:100FF00026952695220F11968C91119786958695A8
:101000008695280F9770222389F4F701E91BF109CF
:1010100029E030E02C0F3D1FE20FF31F13968C9157
:10102000A82FB0E0AD5EBD4F8C9160C0213049F576
:10103000D50113966C91F701E91BF109960102C0E5
:10104000220F331FEA95E2F7422F522F5095FE01EF
:10105000719620E030E0C601022E02C0880F991F71
:101060000A94E2F786239081882311F0942B01C023
:10107000952390832F5F3F4F31962830310559F7E4
:1010800036C0223041F5D5011396EC91F0E0ED5ECB
:10109000FD4FE0814C2D01C0440F9A95EAF7542F83
:1010A0005095DE01599620E030E0C601022E02C0C4
:1010B000880F991F0A94E2F78E239C91882311F0E0
:1010C000942B01C095239C932F5F3F4F119628309E
:1010D000310559F70CC0233051F4E1E2F0E0EC0F98
:1010E000FD1FE90FF11DD50113968C918083439468
:1010F0000DC0CE56DF4FB881C259D040B73131F460
:10110000F50161816F708AE00E944D005524E0E096
:101110009394439ACD56DF4FE883C359D040319919
:1011200004C0F4E19F1609F036CC4420D1F0A9E0C8
:10113000EA2EF12CEC0EFD1E10E01F5F812FD7016F
:101140006C9118964C91189750962C9150975896F0
:101150000C910E9489000894E11CF11C183069F779
:10116000442480912804882309F4A2C21092280400
:101170001BB8BFEFBAB9C057DF4FE881C059D040A4
:101180002E2F30E0F901EC5CFB4FA9014C585A4F6F
:10119000DA018C918083F9013896DF01AC58BA4F9F
:1011A0008C91EC5CFB4F8083F9017096DF01AC58A9
:1011B000BA4F8C91EC5CFB4F8083F9017896DF018C
:1011C000AC58BA4F8C91EC5CFB4F80838AE08A95D7
:1011D000F1F7779A85E08A95F1F7EE24FF24B7E0DE
:1011E000C157DF4FB883CF58D040E8E0C257DF4F38
:1011F000E883CE58D040CC56DF4F59834883C4593A
:10120000D040A9014C565A4FCA56DF4F59834883E4
:10121000C659D040C057DF4F5881C059D040B51B88
:10122000C856DF4FB883C859D040585FC756DF4F04
:101230005883C959D040852F90E0F4E72F2EF5E070
:101240003F2E280E391EDC01AC56BA4FC656DF4F72
:10125000B983A883CA59D040C057DF4FB881C0595D
:10126000D040B05FC456DF4FB883CC59D0408B2FED
:1012700090E0E4E76E2EE5E07E2E680E791EFC011C
:10128000EC56FA4FC356DF4FF983E883CD59D0406F
:10129000C057DF4FF881C059D040F85EC156DF4FCC
:1012A000F883CF59D0408F2F90E074E7872E75E0F8
:1012B000972E880E991E9C012C563A4FC056DF4F30
:1012C00039832883C05AD040C557DF4FE882CB58B6
:1012D000D04083B190E063E0969587956A95E1F7F9
:1012E000082F017080FD11C096010E2C02C0220F44
:1012F000331F0A94E2F7CC56DF4FA881B981C45955
:10130000D0408C91822B8C9311C0C6010E2C02C050
:10131000880F991F0A94E2F78095CC56DF4FE88139
:10132000F981C459D040208182238083C057DF4F88
:101330008881C059D040C557DF4F6881CB58D04015
:101340000E94DE0BCA56DF4FA881B981C659D04032
:101350002C911E2D822F90E00E2C02C09595879522
:101360000A94E2F780FF30C0C6010E2C02C0880F3D
:10137000991F0A94E2F7809582238C93E0913204BE
:10138000002311F080E201C081E2F0E0E25EFC4F58
:101390008083809132048F5FE82FF0E0E25EFC4FA3
:1013A000C157DF4FB881CF58D040B0838F5FE82F4F
:1013B000F0E0E25EFC4FC856DF4F2881C859D040AC
:1013C00020838F5F8093320483B190E09695879558
:1013D00096958795082F017080FD0CC09601012E0F
:1013E00002C0220F331F0A94E2F7D1018C91822BA5
:1013F0008C930CC0C601012E02C0880F991F0A945D
:10140000E2F78095F101208182238083C756DF4F68
:101410008881C959D040C557DF4F6881CB58D0402B
:101420000E94DE0BC656DF4FA881B981CA59D04051
:101430002C91822F90E0012E02C0959587950A94F9
:10144000E2F780FF30C0C601012E02C0880F991F4D
:101450000A94E2F7809582238C93E0913204002372
:1014600011F080E201C081E2F0E0E25EFC4F808397
:10147000809132048F5FE82FF0E0E25EFC4FC756A8
:10148000DF4FB881C959D040B0838F5FE82FF0E0BB
:10149000E25EFC4FC157DF4F2881CF58D0402083F8
:1014A0008F5F8093320483B190E096958795082FE3
:1014B000017080FD0CC09601012E02C0220F331F67
:1014C0000A94E2F7D3018C91822B8C930CC0C60155
:1014D000012E02C0880F991F0A94E2F78095F3014C
:1014E000208182238083C456DF4F8881CC59D0402D
:1014F000C557DF4F6881CB58D0400E94DE0BC356E2
:10150000DF4FA881B981CD59D0402C91822F90E036
:10151000012E02C0959587950A94E2F780FF30C0AE
:10152000C601012E02C0880F991F0A94E2F7809528
:1015300082238C93E0913204002311F080E201C0F9
:1015400081E2F0E0E25EFC4F8083809132048F5FA5
:10155000E82FF0E0E25EFC4FC856DF4FB881C85973
:10156000D040B0838F5FE82FF0E0E25EFC4FC257BF
:10157000DF4F2881CE58D04020838F5F8093320484
:1015800083B1082F017080FD0CC09601012E02C0AE
:10159000220F331F0A94E2F7D4018C91822B8C9393
:1015A0000CC0C601012E02C0880F991F0A94E2F7F1
:1015B0008095F401208182238083C156DF4F88818A
:1015C000CF59D040C557DF4F6881CB58D0400E94DB
:1015D000DE0BC056DF4FA881B981C05AD0402C9194
:1015E000822F90E0012E02C0959587950A94E2F72C
:1015F00080FF2FC0C60102C0880F991F1A95E2F71D
:10160000809582238C93E0913204002311F080E2D4
:1016100001C081E2F0E0E25EFC4F80838091320401
:101620008F5FE82FF0E0E25EFC4FC257DF4FB881DA
:10163000CE58D040B0838F5FE82FF0E0E25EFC4FE1
:10164000C756DF4F2881C959D04020838F5F8093D0
:101650003204769A76980894E11CF11CC157DF4F4A
:101660003881CF58D0403150C157DF4F3883CF58E1
:10167000D040C257DF4F4881CE58D0404F5FC2574D
:10168000DF4F4883CE58D0403F3F09F01DCE7798BA
:10169000C057DF4F5881C059D0405F5F5770C05767
:1016A000DF4F5883C059D040852F8295807F85B900
:1016B000F89420E030E0AE014F5F5F4FD901A75DA5
:1016C000BB4F8C91FA01E20FF31F80838C918370E2
:1016D0008C932F5F3F4F2830310581F77894DE01DE
:1016E000119620E030E060E54C91459545954C938E
:1016F0004423B9F08091310490E0022E02C0959508
:1017000087950A94E2F780FF0CC08091320490E044
:10171000FC01E25EFC4F6083218342830396809349
:1017200032042F5F3F4F119628303105E9F61BB880
:101730008FEF8AB90BC0429AE92FF0E0E25EFC4FCE
:1017400080818BB942989F5F90931403909114030A
:1017500080913204981779F7349BFBC810926E0081
:101760001FE030E9E32E31E0F32E8AE0612F0E9482
:101770004D0080E892E0F7013197F1F70197D9F732
:10178000115098F78CE060E00E944D00AEC880E0F8
:1017900090E0FC01EC58FA4F1082FC01EC5CFB4F2E
:1017A0001082FC01EC5AFA4F1082FC01EC56FA4F01
:1017B000108201968032910561F708951F93CF93AF
:1017C000DF93A82FB0E0FD01EC58FA4F108170E0D4
:1017D000FD01EC5CFB4F8081812790E0062E02C06A
:1017E000959587950A94E2F7AC014170507080FF9F
:1017F00032C0FD01EC5AFA4F2081822F812790E000
:10180000062E02C0959587950A94E2F780FF23C0C3
:10181000812F90E0062E02C0959587950A94E2F7F5
:1018200080FF0DC081E090E002C0880F991F6A958B
:10183000E2F7AC56BA4F8C93282B208349C093E033
:10184000AA0FBB1F9A95E1F7A60FB71FAC5ABB4F63
:1018500084E08C933DC0452BD9F5ED01CC5ADA4F8D
:101860004881842F812790E0062E02C095958795A8
:101870000A94E2F780FF2CC0FD0183E0EE0FFF1F0A
:101880008A95E1F7E60FF71FEC5AFB4F808188231A
:10189000F9F0815080838823D9F421E030E0062ECE
:1018A00002C0220F331F0A94E2F7AC56BA4F2C93B2
:1018B000812F90E002C0959587956A95E2F780FFA9
:1018C00003C0422B488304C0822F809584238883E1
:1018D000DF91CF911F9108952F923F924F925F9287
:1018E0006F927F928F929F92AF92BF92CF92DF9230
:1018F000EF92FF920F931F93CF93DF93CDB7DEB795
:10190000CA1BDB0B0FB6F894DEBF0FBECDBF099428
:10191000FB01DC0101900D920020E1F70895F8949D
:02192000FFCFF7
:101922006D6B0001012101040103010300000000AD
:10193200000001030301010B040402000000000087
:101942000000000000000000000000000000000095
:101952000000000000000000000000000000000085
:101962000000000000000000000000000000000075
:101972000000000000000000000000000000000065
:101982000000000000000000000000000000000055
:101992000000000000000000000000000000000045
:1019A2000000000000000000000000000000000035
:1019B2000000000000000000000000000000000025
:1019C2000000000000000000000000000000000015
:1019D2000000000000000000000000000000000005
:1019E20000000000000000000000000000000000F5
:1019F20000000000000000000000000000000000E5
:101A020000000000000000000000000000000000D4
:101A120000000000000000000000000000000000C4
:101A22000000000001FF00FF000001010000FF00B4
:101A3200FF0100008040C020A060E0109050D03034
:101A4200B070F0088848C828A868E8189858D838AC
:101A5200B878F8048444C424A464E4149454D434B8
:101A6200B474F40C8C4CCC2CAC6CEC1C9C5CDC3C4C
:101A7200BC7CFC028242C222A262E2129252D232A6
:101A8200B272F20A8A4ACA2AAA6AEA1A9A5ADA3A4C
:101A9200BA7AFA068646C626A666E6169656D63658
:101AA200B676F60E8E4ECE2EAE6EEE1E9E5EDE3EEC
:101AB200BE7EFE018141C121A161E1119151D1316D
:101AC200B171F1098949C929A969E9199959D9391C
:101AD200B979F9058545C525A565E5159555D53528
:101AE200B575F50D8D4DCD2DAD6DED1D9D5DDD3DBC
:101AF200BD7DFD038343C323A363E3139353D33316
:101B0200B373F30B8B4BCB2BAB6BEB1B9B5BDB3BBB
:101B1200BB7BFB078747C727A767E7179757D737C7
:101B2200B777F70F8F4FCF2FAF6FEF1F9F5FDF3F5B
:041B3200BF7FFF0072
:00000001FF
