:100000000C942E000C944B000C944B000C944B0061
:100010000C944B000C944B000C944B000C94070177
:100020000C944B000C944B000C94F7000C944B0078
:100030000C944B000C944B000C944B000C944B0014
:100040000C944B000C944B000C944B000C944B0004
:100050000C944B000C944B000C944B0011241FBECD
:10006000CFEFD8E0DEBFCDBF13E0A0E0B1E0E2E823
:10007000F3E102C005900D92A431B107D9F715E064
:10008000A4E1B3E001C01D92A43BB107E1F70E94D7
:100090006F010C94BF090C940000719827E030E0C8
:1000A000482F552747FD5095CA01022E02C095954D
:1000B00087950A94E2F780FF03C08EB18C6302C07B
:1000C0008EB1837C8EB9709A7098215030408FEF3A
:1000D0002F3F380749F727E030E0772767FD709515
:1000E000CB01022E02C0959587950A94E2F780FF16
:1000F00003C08EB18C6302C08EB1837C8EB9709ABE
:100100007098215030408FEF2F3F380749F7719A90
:1001100008950F93CF93DF937198E7E0F0E0A82F55
:10012000BB27A7FDB095CD010E2E02C095958795F2
:100130000A94E2F780FF03C08EB18C6302C08EB1D7
:10014000837C8EB9709A709831978FEFEF3FF807E4
:1001500051F7E7E0F0E0C62FDD27C7FDD095642F0B
:10016000772767FD7095422F552747FD5095A02FA3
:10017000BB27A7FDB0953E2FCE010E2E02C0959550
:1001800087950A94E2F780FF02C0759A01C07598BE
:10019000CB01032E02C0959587950A94E2F780FF64
:1001A00002C0749A01C07498CA01032E02C09595CA
:1001B00087950A94E2F780FF02C0739A01C0739892
:1001C000CD0102C0959587953A95E2F780FF02C070
:1001D000729A01C07298709A709831978FEFEF3FC2
:1001E000F80749F6719ADF91CF910F9108951F9208
:1001F0000F920FB60F9211248F9381E08093280401
:1002000016BC8F910F900FBE0F901F9018951F92E4
:100210000F920FB60F9211241F932F933F934F937A
:100220005F936F937F938F939F93AF93BF93CF937E
:10023000DF93EF93FF93809131048823C1F110B1D4
:100240007FB160E02CC0A62FB0E0872F90E08170D6
:100250009070880F991F212F2170282BAD014A5EC5
:100260005C4FEA0128839D01275D3B4FF901908196
:10027000A05EBB4FEC918881F0E0EE0FFF1FEE0F08
:10028000FF1FE80FF11DED5FFD4F8081980FE90121
:100290009883FA0180818C93169576956F5F68300C
:1002A00090F27093150310931E0460933304109220
:1002B000850010928400FF91EF91DF91CF91BF9163
:1002C000AF919F918F917F916F915F914F913F91EE
:1002D0002F911F910F900FBE0F901F901895A3E9BB
:1002E000B0E0E5E7F1E00C949C099FEF9DB980E751
:1002F00084B98CE087B91AB81EB815B81BB811B804
:1003000010BA92B991BB9E01275D3F4FC557DF4F91
:1003100039832883CB58D040C90129E230E02C0F23
:100320003D1F205E3F4FC557DF4FA881B981CB5895
:10033000D0401D92C557DF4FB983A883CB58D0401A
:10034000A217B30781F760E071E00E94B8098BE063
:1003500067E00E944D008AE06FE00E944D0001E0DE
:10036000802F60E00E944D000F5F0930C9F78CE0DC
:1003700061E00E944D008FE060E00E944D0088E047
:100380006CE040E020E000E00E94890080E892E01C
:1003900020E931E0F9013197F1F70197D9F78AE0C7
:1003A0006DE00E944D0088E062E140E020E000E066
:1003B0000E94890087E06CE040E020E00E94890014
:1003C00080E892E020E931E0F9013197F1F70197F7
:1003D000D9F78AE06BE00E944D0088E061E240E0DE
:1003E00020E000E00E94890087E062E140E020E038
:1003F0000E94890086E06CE040E020E00E948900D5
:1004000080E892E020E931E0F9013197F1F70197B6
:10041000D9F78AE069E00E944D0088E060E440E09E
:1004200020E000E00E94890087E060E440E020E0F6
:100430000E94890086E061E240E020E00E9489009D
:1004400085E06EE140E020E00E94890080E892E0D3
:1004500020E931E0F9013197F1F70197D9F78AE006
:1004600067E00E944D0088E060E040E021E000E0AD
:100470000E94890087E060E040E021E00E9489005E
:1004800086E060E040E021E00E94890085E060E8CD
:1004900040E020E00E94890084E060E440E020E049
:1004A0000E94890083E061E240E020E00E94890030
:1004B00082E06EE140E020E00E94890080E892E066
:1004C00020E931E0F9013197F1F70197D9F78AE096
:1004D00065E00E944D0088E060E040EC20E100E033
:1004E0000E94890087E060E048E320E10E948900E3
:1004F00086E060E047E028E00E94890085E060E057
:1005000040E028E00E94890084E060E040E024E0D0
:100510000E94890083E060E040E024E00E948900BE
:1005200082E060E040E022E00E94890081E060E03B
:1005300040E021E00E94890080E892E020E931E07B
:10054000F9013197F1F70197D9F78AE063E00E944A
:100550004D0088E060E040E020E800E20E94890071
:1005600087E060E040E020E800E10E94890086E04A
:1005700060E040E020E80E94890085E060E040E023
:1005800020E808E00E94890084E060E040E020E488
:1005900006E00E94890083E060E040E820E401E09A
:1005A0000E94890082E060E040E720E400E00E94D1
:1005B000890081E060E04FE020E20E94890080E84D
:1005C00092E020E931E0F9013197F1F70197D9F78D
:1005D0008AE061E00E944D0088E060E040E020E0B9
:1005E00000E00E94890087E060E040E020E00E9497
:1005F000890086E060E040E020E00E94890085E01C
:1006000060E040E020E00E94890084E060E040E09B
:1006100020E000E80E94890083E060E040E020E004
:100620000E94890082E060E040E020E000E40E9457
:10063000890081E060E040E020E000E30E94890062
:1006400080E892E020E931E0F9013197F1F7019774
:10065000D9F701E0802F60E00E944D000F5F093064
:10066000C9F78AE06FE00E944D00FE01E75BFF4F93
:10067000CF010A961192E817F907E1F79E012F5E64
:100680003F4F80E090E0AE01475F5F4F0BC011929B
:10069000E217F307E1F701969F01285F3F4F84308F
:1006A000910549F0FC0163E0EE0FFF1F6A95E1F749
:1006B000E40FF51FECCF109214031092320480E087
:1006C00090E0FC01E75DFB4F1082FC01EA5EFC4F0D
:1006D0001082FC01E05EFB4F10820196883091058C
:1006E00081F70E94F708F999FECF81E090E092BD72
:1006F00081BDF89A80B5809331048FEF80933104E7
:1007000084B5856084BD80916E00826080936E00A8
:100710008FE087BD1092800080918100846080937B
:10072000810080916F00826080936F0085E090E08F
:1007300090938900809388007894CC24B1E0C157CD
:10074000DF4FB883CF58D0403324C257DF4F1882D1
:10075000CE58D04041E05524C357DF4F1882CD58C2
:10076000D04029E4A22EB12CAC0EBD1EF5013B9663
:10077000CE56DF4FF983E883C259D040442341F17C
:10078000349B02C041E015C08CE061E00E944D0046
:1007900010E0E12C9DE7F92E612F669566958AE0C1
:1007A0000E944D00C7010197F1F71F5F1034A1F7B8
:1007B00040E086EF99E020E931E0F9013197F1F767
:1007C0000197D9F780916E00826080936E00D6CF3A
:1007D00081E0882E912C95012D5F3F4FC057DF4F50
:1007E00039832883C059D0401BB81AB8C257DF4F8D
:1007F0003881CE58D040393210F0CC240BC0C257CB
:10080000DF4F4881CE58D0404F5FC257DF4F4883FB
:10081000CE58D040DD2405E0602E7724739417E095
:10082000E12EF12C8DC34398862D8A95F1F789B17D
:10083000F501EC0DF11D8083CC2089F4D5013C90AD
:10084000E32DF0E0ED5FFE4FE081EE2349F0CC2494
:10085000C394C257DF4F1882CE58D04006C0C3940D
:10086000C157DF4FE881CF58D040CE1609F061C3A1
:100870003320C9F580913204E82FF0E0E25EFC4FAE
:1008800010828F5FE82FF0E0E25EFC4F70828F5F96
:10089000E82FF0E0E25EFC4F70828F5FE82FF0E01F
:1008A000E25EFC4F10828F5FE82FF0E0E25EFC4FCB
:1008B00092E090838F5FE82FF0E0E25EFC4F708261
:1008C0008F5FE82FF0E0E25EFC4F10828F5FE82F31
:1008D000F0E0E25EFC4F60828F5FE82FF0E0E25EC6
:1008E000FC4F98E03BC0B1E03B1609F58091320423
:1008F000E82FF0E0E25EFC4F30828F5F809332049D
:10090000DE01999680913204E82FF0E0E25EFC4F20
:100910009D9190838F5F80933204C557DF4FE881AC
:10092000F981CB58D040AE17BF0761F700C3F5E09F
:100930003F16C9F480913204E82FF0E0E25EFC4FEC
:1009400093E090838F5FE82FF0E0E25EFC4F98E049
:1009500090838F5FE82FF0E0E25EFC4F90838F5F23
:1009600080933204E4C220E1321609F05CC0D50164
:1009700011968C91119712962C91322F36953695AF
:100980003695330F982F969596959695390F8095B5
:1009900087702770332351F4F701E21BF10929E036
:1009A00030E02C0F3D1FE20FF31F32C03130A1F4B5
:1009B000F701E81BF10981E190E08C0F9D1FE80F22
:1009C000F91FC701821B9109D40102C0AA0FBB1FE6
:1009D0008A95E2F7CD0123C0323069F4E9E1F0E015
:1009E000EC0FFD1FE80FF11DC40102C0880F991F15
:1009F0002A95E2F714C0333009F08EC2E1E2F0E04C
:100A0000EC0FFD1FE20FF11D9701281B3109C901F1
:100A1000A40102C0440F551F8A95E2F7CA018095D0
:100A20002081822378C251E1351609F065C0D501D5
:100A300011968C91119712962C91322F36953695EE
:100A40003695330F982F969596959695390F8095F4
:100A500087702770332381F4F701E21BF10929E045
:100A600030E02C0F3D1FE20FF31F940102C0220F54
:100A7000331F8A95E2F725C03130A1F4F701E81B56
:100A8000F10941E150E04C0F5D1FE40FF51FC70174
:100A9000821B9109D40102C0AA0FBB1F8A95E2F7FD
:100AA000CD0126C0323081F4E9E1F0E0EC0FFD1F0A
:100AB000E80FF11DA40102C0440F551F2A95E2F76B
:100AC0009A018081822B27C2333009F025C2E1E2EE
:100AD000F0E0EC0FFD1FE20FF11DD701A81BB109DB
:100AE00094010A2E02C0220F331F0A94E2F7C901B3
:100AF0002081282B208310C232E13316F9F49E01A5
:100B00002F5E3F4F80E090E00CC01192E217F30798
:100B1000E1F701969F01285F3F4F8430910509F46A
:100B2000FBC1FC01B3E0EE0FFF1FBA95E1F749E00E
:100B300050E04C0F5D1FE40FF51FE7CF53E1351672
:100B400001F59E012F5E3F4F80E090E00DC0AFEFBA
:100B5000A193E217F307D9F701969F01285F3F4F52
:100B60008430910509F4D8C1FC01A3E0EE0FFF1F0A
:100B7000AA95E1F749E050E04C0F5D1FE40FF51F27
:100B8000E6CF54E1351609F0B8C0D50112969C9114
:100B90001297969596959695990F11968C918695A4
:100BA00086958695980FE1F4C057DF4F28813981EB
:100BB000C059D040DE015096F90181919F01E82F84
:100BC000F0E0ED5EFD4F80818C931197CE56DF4FA4
:100BD00048815981C259D0402417350769F79CC113
:100BE0009130D1F5C057DF4FA881B981C059D040AD
:100BF00047E050E0C401042E02C0880F991F0A94F8
:100C0000E2F7182F8C91682F70E0FE01719620E0BA
:100C100030E0012F0095CB01022E02C095958795FB
:100C20000A94E2F7908180FF02C0912B01C09023CB
:100C300090832F5F3F4F31962830310561F7415047
:100C400050401196CE56DF4F88819981C259D040CD
:100C5000A817B90779F660C19230C1F5C057DF4FC8
:100C6000A881B981C059D04040E050E0C401042EB1
:100C700002C0880F991F0A94E2F7082FEC91F0E068
:100C8000ED5EFD4F8081682F70E0FE01799620E0D7
:100C900030E0102F1095CB01022E02C0959587955C
:100CA0000A94E2F7908180FF02C0902B01C091234B
:100CB00090832F5F3F4F31962830310561F74F5FAA
:100CC0005F4F11964830510589F626C1933009F0DF
:100CD00023C1C057DF4FE881F981C059D040DE0100
:100CE000919681918D93CE56DF4F28813981C259DB
:100CF000D040E217F307A9F70FC136E1331609F028
:100D000082C0D50111969C91119712962C91129741
:100D1000269526952695220F892F86958695869568
:100D2000280F9770222359F51396EC91F0E0ED5EB1
:100D3000FD4FE0819701291B3109A40102C0440F36
:100D4000551F2A95E2F7542F5095DE01199620E0A1
:100D500030E0C401022E02C0880F991F0A94E2F706
:100D60008E239C91882311F0942B01C095239C9392
:100D70002F5F3F4F11962830310559F7CDC02130F4
:100D800079F421E130E02C0F3D1F290F311DF501D1
:100D9000A381B0E0AD5EBD4F8C91D9018C93BCC0F6
:100DA000223059F4E7E1F0E0E91BF10929E030E0F5
:100DB0002C0F3D1FE20FF31FABC0233009F0ACC076
:100DC000F5016381482D01C0440F9A95EAF7542F2D
:100DD0005095FE01B19620E030E0C401022E02C021
:100DE000880F991F0A94E2F786239081882311F0D7
:100DF000942B01C0952390832F5F3F4F319628306D
:100E0000310559F789C0F5E13F1609F087C0D501D2
:100E100012969C911297292F269526952695220F9A
:100E200011968C911197869586958695280F9770C7
:100E3000222389F4F701E91BF10929E030E02C0FA6
:100E40003D1FE20FF31F13968C91A82FB0E0AD5E0B
:100E5000BD4F8C9160C0213049F5D50113966C913E
:100E6000F701E91BF109940102C0220F331FEA9533
:100E7000E2F7422F522F5095FE01719620E030E0AC
:100E8000C401022E02C0880F991F0A94E2F786233C
:100E90009081882311F0942B01C0952390832F5FBC
:100EA0003F4F31962830310559F736C0223041F591
:100EB000D5011396EC91F0E0ED5EFD4FE081482DF9
:100EC00001C0440F9A95EAF7542F5095DE015996C8
:100ED00020E030E0C401022E02C0880F991F0A945E
:100EE000E2F78E239C91882311F0942B01C0952367
:100EF0009C932F5F3F4F11962830310559F70CC056
:100F0000233051F4E1E2F0E0EC0FFD1FE90FF11D99
:100F1000D50113968C918083539409C0B7E13B1699
:100F200031F4F50161816F708AE00E944D00CC249C
:100F3000E0E0D394439AC157DF4FE883CF58D040C5
:100F4000319904C0F4E1DF1609F06DCC5520D1F0E1
:100F500079E0E72EF12CEC0EFD1E10E01F5F812FD3
:100F6000D7016C9118964C91189750962C915097E8
:100F700058960C910E9489000894E11CF11C1830CD
:100F800069F7552480912804882309F4C1C0109280
:100F900028041BB8BFEFBAB9C357DF4FE881CD585B
:100FA000D0402E2F30E0F901EC5CFB4FA9014C58EA
:100FB0005A4FDA018C918083F9013896DF01AC58E1
:100FC000BA4F8C91EC5CFB4F8083F9017096DF0186
:100FD000AC58BA4F8C91EC5CFB4F8083F90178964A
:100FE000DF01AC58BA4F8C91EC5CFB4F80838AE0F8
:100FF0008A95F1F7779A85E08A95F1F700E010E09D
:1010000067E0D62E7A0154E9652E55E0752E620E02
:10101000731E2D2CC357DF4FB881CD58D0402B1AEB
:10102000602F83B190E043E0969587954A95E1F76C
:1010300044244394482280FD0CC09401002E02C039
:10104000220F331F0A94E2F7F7018081822B8083FD
:101050000CC0C401002E02C0880F991F0A94E2F749
:101060008095D7012C9182238C93C357DF4F8881C1
:10107000CD58D0400E940E09F3013081832F90E0BB
:10108000002E02C0959587950A94E2F780FF26C04E
:10109000C401002E02C0880F991F0A94E2F78095C0
:1010A00083238083E0913204442011F080E201C068
:1010B00081E2F0E0E25EFC4F8083809132048F5F3A
:1010C000E82FF0E0E25EFC4FD0828F5FE82FF0E087
:1010D000E25EFC4F20828F5F80933204769A76988E
:1010E0000F5F1F4FDA94FFEFDF1609F099CF779863
:1010F000C357DF4F2881CD58D0402F5F2770C3578B
:10110000DF4F2883CD58D040822F8295807F85B9CC
:10111000F89420E030E0AE014F5F5F4FD901A75D4A
:10112000BB4F8C91FA01E20FF31F80838C91837087
:101130008C932F5F3F4F2830310581F77894DE0183
:10114000119620E030E060E54C91459545954C9333
:101150004423B9F08091310490E0022E02C09595AD
:1011600087950A94E2F780FF0CC08091320490E0EA
:10117000FC01E25EFC4F60832183428303968093EF
:1011800032042F5F3F4F119628303105E9F61BB826
:101190003FEF3AB90BC0429AE92FF0E0E25EFC4F14
:1011A00080818BB942989F5F9093140390911403B0
:1011B00080913204981779F7349B16CB10926E0009
:1011C0001FE030E9E32E31E0F32E8AE0612F0E9428
:1011D0004D0080E892E0F7013197F1F70197D9F7D8
:1011E000115098F78CE060E00E944D00C9CA80E081
:1011F00090E0FC01EC58FA4F1082FC01EC5CFB4FD4
:101200001082FC01EC5AFA4F1082FC01EC56FA4FA6
:10121000108201968032910561F708951F93CF9354
:10122000DF93A82FB0E0FD01EC58FA4F108170E079
:10123000FD01EC5CFB4F8081812790E0062E02C00F
:10124000959587950A94E2F7AC014170507080FF44
:1012500032C0FD01EC5AFA4F2081822F812790E0A5
:10126000062E02C0959587950A94E2F780FF23C069
:10127000812F90E0062E02C0959587950A94E2F79B
:1012800080FF0DC081E090E002C0880F991F6A9531
:10129000E2F7AC56BA4F8C93282B208349C093E0D9
:1012A000AA0FBB1F9A95E1F7A60FB71FAC5ABB4F09
:1012B00084E08C933DC0452BD9F5ED01CC5ADA4F33
:1012C0004881842F812790E0062E02C0959587954E
:1012D0000A94E2F780FF2CC0FD0183E0EE0FFF1FB0
:1012E0008A95E1F7E60FF71FEC5AFB4F80818823C0
:1012F000F9F0815080838823D9F421E030E0062E74
:1013000002C0220F331F0A94E2F7AC56BA4F2C9357
:10131000812F90E002C0959587956A95E2F780FF4E
:1013200003C0422B488304C0822F80958423888386
:10133000DF91CF911F9108952F923F924F925F922C
:101340006F927F928F929F92AF92BF92CF92DF92D5
:10135000EF92FF920F931F93CF93DF93CDB7DEB73A
:10136000CA1BDB0B0FB6F894DEBF0FBECDBF0994CE
:10137000FB01DC0101900D920020E1F70895F89443
:02138000FFCF9D
:101382006D6B000101210104010301030000000053
:10139200000001030301010B04040200000000002D
:1013A200000000000000000000000000000000003B
:1013B200000000000000000000000000000000002B
:1013C200000000000000000000000000000000001B
:1013D200000000000000000000000000000000000B
:1013E20000000000000000000000000000000000FB
:1013F20000000000000000000000000000000000EB
:1014020000000000000000000000000000000000DA
:1014120000000000000000000000000000000000CA
:1014220000000000000000000000000000000000BA
:1014320000000000000000000000000000000000AA
:10144200000000000000000000000000000000009A
:10145200000000000000000000000000000000008A
:10146200000000000000000000000000000000007A
:10147200000000000000000000000000000000006A
:101482000000000001FF00FF000001010000FF005A
:10149200FF0100008040C020A060E0109050D030DA
:1014A200B070F0088848C828A868E8189858D83852
:1014B200B878F8048444C424A464E4149454D4345E
:1014C200B474F40C8C4CCC2CAC6CEC1C9C5CDC3CF2
:1014D200BC7CFC028242C222A262E2129252D2324C
:1014E200B272F20A8A4ACA2AAA6AEA1A9A5ADA3AF2
:1014F200BA7AFA068646C626A666E6169656D636FE
:10150200B676F60E8E4ECE2EAE6EEE1E9E5EDE3E91
:10151200BE7EFE018141C121A161E1119151D13112
:10152200B171F1098949C929A969E9199959D939C1
:10153200B979F9058545C525A565E5159555D535CD
:10154200B575F50D8D4DCD2DAD6DED1D9D5DDD3D61
:10155200BD7DFD038343C323A363E3139353D333BB
:10156200B373F30B8B4BCB2BAB6BEB1B9B5BDB3B61
:10157200BB7BFB078747C727A767E7179757D7376D
:10158200B777F70F8F4FCF2FAF6FEF1F9F5FDF3F01
:04159200BF7FFF0018
:00000001FF
