:100000000C942E000C944B000C944B000C944B0061
:100010000C944B000C944B000C944B000C94F70088
:100020000C944B000C944B000C9446020C944B0027
:100030000C944B000C944B000C944B000C944B0014
:100040000C944B000C944B000C944B000C944B0004
:100050000C944B000C944B000C944B0011241FBECD
:10006000CFEFD8E0DEBFCDBF13E0A0E0B1E0E6E225
:10007000F4E102C005900D92A430B107D9F715E064
:10008000A4E0B3E001C01D92AC3BB107E1F70E94D0
:1000900056020C94110A0C940000719827E030E08D
:1000A000482F552747FD5095CA01022E02C095954D
:1000B00087950A94E2F780FF03C08EB18C6302C07B
:1000C0008EB1837C8EB9709A7098215030408FEF3A
:1000D0002F3F380749F727E030E0772767FD709515
:1000E000CB01022E02C0959587950A94E2F780FF16
:1000F00003C08EB18C6302C08EB1837C8EB9709ABE
:100100007098215030408FEF2F3F380749F7719A90
:1001100008950F93CF93DF937198E7E0F0E0A82F55
:10012000BB27A7FDB095CD010E2E02C095958795F2
:100130000A94E2F780FF03C08EB18C6302C08EB1D7
:10014000837C8EB9709A709831978FEFEF3FF807E4
:1001500051F7E7E0F0E0C62FDD27C7FDD095642F0B
:10016000772767FD7095422F552747FD5095A02FA3
:10017000BB27A7FDB0953E2FCE010E2E02C0959550
:1001800087950A94E2F780FF02C0759A01C07598BE
:10019000CB01032E02C0959587950A94E2F780FF64
:1001A00002C0749A01C07498CA01032E02C09595CA
:1001B00087950A94E2F780FF02C0739A01C0739892
:1001C000CD0102C0959587953A95E2F780FF02C070
:1001D000729A01C07298709A709831978FEFEF3FC2
:1001E000F80749F6719ADF91CF910F9108951F9208
:1001F0000F920FB60F9211242F933F934F935F935B
:100200008F939F93AF93BF93CF93DF93EF93FF931E
:1002100080913004882309F424C1A0910E04B0E039
:10022000E0910E04F0E0EE0FFF1FEE0FFF1FEB5FFB
:10023000FB4F80819181AA0FBB1FAA0FBB1FA95F33
:10024000BB4F11969C938E9320910E04C22FD0E049
:10025000CC0FDD1FCC0FDD1FCF5CDB4F2881398138
:100260004A815B81E0910E04F0E080910F0493E0FD
:10027000EE0FFF1F9A95E1F7E80FF11DEE0FFF1F3C
:10028000E05FFB4F80819181AA2797FDA095BA2F4F
:10029000281B390B4A0B5B0B288339834A835B830A
:1002A000809178009091790096958795969587959D
:1002B0008058904090933B0480933A04E0910E0460
:1002C000F0E020910F0480913A0490913B04A3E068
:1002D000EE0FFF1FAA95E1F7E20FF11DEE0FFF1FD2
:1002E000E05FFB4F91838083E0910E04F0E0EE0F1E
:1002F000FF1FEE0FFF1FEF5CFB4F2081318142811A
:10030000538180913A0490913B04AA2797FDA095D0
:10031000BA2F280F391F4A1F5B1F20833183428366
:10032000538380910E04C82FD0E0E0910E04F0E0DA
:10033000EE0FFF1FEE0FFF1FEF5CFB4F80819181DF
:10034000A281B38123E0B595A795979587952A95C6
:10035000D1F7CC0FDD1FCC0FDD1FCB5FDB4F9983B7
:100360008883E0910E04F0E0EE0FFF1FEE0FFF1FF9
:10037000EB5FFB4F20813181E0910E04F0E0EE0F46
:10038000FF1FEE0FFF1FE95FFB4F80819181281750
:10039000390709F44BC020913904E22FF0E0EB5FFC
:1003A000FC4F81E880832F5FE22FF0E0EB5FFC4F92
:1003B00010822F5F8091050490910604E22FF0E0F7
:1003C000EB5FFC4F80832F5F8091050490910604C2
:1003D000E22FF0E0EB5FFC4F892F990F990B8083A0
:1003E0002F5F8091090490910A04E22FF0E0EB5F07
:1003F000FC4F80832F5F8091090490910A04E22FC3
:10040000F0E0EB5FFC4F892F990F990B80832F5FF2
:10041000E22FF0E0EB5FFC4F10822F5FE22FF0E065
:10042000EB5FFC4F10822F5F2093390480910E0404
:10043000813069F480937C0010920E0480910F0447
:1004400090E001968770907080930F0405C0109221
:100450007C0081E080930E0480917A008064809318
:100460007A001092850010928400FF91EF91DF9145
:10047000CF91BF91AF919F918F915F914F913F919C
:100480002F910F900FBE0F901F9018951F920F92F3
:100490000FB60F9211248F9381E080930D0416BC48
:1004A0008F910F900FBE0F901F901895A7E8B0E0A6
:1004B000ECE5F2E00C94EE098FEF8DB980E784B99A
:1004C0008CE087B91AB81EB815B81BB811B810BAA5
:1004D00012B811BA9E012F5D3F4FCD57DF4F3983C0
:1004E0002883C358D040C90121E230E02C0F3D1FC2
:1004F000205E3F4FCD57DF4FA881B981C358D04010
:100500001D92CD57DF4FB983A883C358D040A2179F
:10051000B30781F760E071E00E940A0AF999FECF03
:1005200012BC11BCF89A80B5809330048BE067E070
:100530000E944D008AE06FE00E944D0001E0802F94
:1005400060E00E944D000F5F0930C9F78CE061E068
:100550000E944D008FE060E00E944D0088E06CE05A
:1005600040E020E000E00E94890080E892E020E97D
:1005700031E0F9013197F1F70197D9F78AE06DE0A1
:100580000E944D0088E062E140E020E000E00E942F
:10059000890087E06CE040E020E00E94890080E86C
:1005A00092E020E931E0F9013197F1F70197D9F7AD
:1005B0008AE06BE00E944D0088E061E240E020E0CC
:1005C00000E00E94890087E062E140E020E00E94B4
:1005D000890086E06CE040E020E00E94890080E82D
:1005E00092E020E931E0F9013197F1F70197D9F76D
:1005F0008AE069E00E944D0088E060E440E020E08D
:1006000000E00E94890087E060E440E020E00E9472
:10061000890086E061E240E020E00E94890085E0F8
:100620006EE140E020E00E94890080E892E020E94D
:1006300031E0F9013197F1F70197D9F78AE067E0E6
:100640000E944D0088E060E040E021E000E00E9470
:10065000890087E060E040E021E00E94890086E0B8
:1006600060E040E021E00E94890085E060E840E031
:1006700020E00E94890084E060E440E020E00E94E5
:10068000890083E061E240E020E00E94890082E08E
:100690006EE140E020E00E94890080E892E020E9DD
:1006A00031E0F9013197F1F70197D9F78AE065E078
:1006B0000E944D0088E060E040EC20E100E00E94F4
:1006C000890087E060E048E320E10E94890086E03D
:1006D00060E047E028E00E94890085E060E040E0BB
:1006E00028E00E94890084E060E040E024E00E946D
:1006F000890083E060E040E024E00E94890082E01D
:1007000060E040E022E00E94890081E060E040E09B
:1007100021E00E94890080E892E020E931E0F901BF
:100720003197F1F70197D9F78AE063E00E944D0015
:1007300088E060E040E020E800E20E94890087E075
:1007400060E040E020E800E10E94890086E060E08F
:1007500040E020E80E94890085E060E040E020E879
:1007600008E00E94890084E060E040E020E406E0C8
:100770000E94890083E060E040E820E401E00E94FC
:10078000890082E060E040E720E400E00E94890008
:1007900081E060E04FE020E20E94890080E892E082
:1007A00020E931E0F9013197F1F70197D9F78AE0B3
:1007B00061E00E944D0088E060E040E020E000E061
:1007C0000E94890087E060E040E020E00E9489000C
:1007D00086E060E040E020E00E94890085E060E083
:1007E00040E020E00E94890084E060E040E020E0FA
:1007F00000E80E94890083E060E040E020E00E9481
:10080000890082E060E040E020E000E40E9489008E
:1008100081E060E040E020E000E30E94890080E8A1
:1008200092E020E931E0F9013197F1F70197D9F72A
:1008300001E0802F60E00E944D000F5F0930C9F792
:100840008AE06FE00E944D00FE01EF5BFF4FCF0199
:100850000A961192E817F907E1F79E01275F3F4FCB
:1008600080E090E0AE014F5F5F4F0BC01192E21746
:10087000F307E1F701969F01285F3F4F8430910510
:1008800049F0FC0163E0EE0FFF1F6A95E1F7E40F0A
:10089000F51FECCF10920403109239040E9449090D
:1008A00081E080937C0084E880937A0080917A00D4
:1008B000806480937A008FE790E090930C0480939B
:1008C0000B0480910B0490910C0490930A04809384
:1008D00009048091090490910A049093080480937C
:1008E0000704809107049091080490930604809374
:1008F000050420E030E04FE750E0F901EE0FFF1F64
:10090000E05EFB4F5183408380819181F901EE0FBE
:10091000FF1FE05FFB4F918380832F5F3F4F2830A5
:10092000310559F788EF93E0A0E0B0E080933504FB
:1009300090933604A0933704B09338048091350423
:1009400090913604A0913704B0913804809331041B
:1009500090933204A0933304B093340410920E04A5
:1009600010920F048FEF80933004109280008091DA
:10097000810084608093810080916F008260809309
:100980006F0084E690E0909389008093880084B59E
:10099000856084BD80916E00826080936E008FE0E0
:1009A00087BD7894DD24882483949924CA57DF4F27
:1009B0001882C658D04041E0CC24CB57DF4F188274
:1009C000C558D04014E4412E512C4C0E5D1E3E0102
:1009D0000894611C711CB1E42B2E312C2C0E3D1E91
:1009E000EBE0F0E02E0E3F1E442341F1349B02C0A9
:1009F00041E015C08CE061E00E944D0010E0E12C68
:100A0000ADE7FA2E612F669566958AE00E944D004B
:100A1000C7010197F1F71F5F1034A1F740E086EF9F
:100A200099E020E931E0F9013197F1F70197D9F721
:100A300080916E00826080936E00D6CFF1E0AF2E81
:100A4000B12C1BB81AB8CA57DF4FF881C658D0402E
:100A5000F93210F0DD240BC0CA57DF4F2881C65889
:100A6000D0402F5FCA57DF4F2883C658D040C957A0
:100A7000DF4F1882C758D040E1E4EE2EF12CEC0E87
:100A8000FD1E43E050E0E40EF51E5BC3439885E095
:100A90008A95F1F789B1E1E4F0E0EC0FFD1FED0D6F
:100AA000F11D8083DD2091F422969FAC2297E92DE1
:100AB000F0E0ED5FFE4FE081EE2349F0DD24D394BA
:100AC000CA57DF4F1882C658D04002C0D394E82DD1
:100AD000DE1609F029C3992049F580913904E82FE1
:100AE000F0E0EB5FFC4F10828F5FE82FF0E0EB5FF0
:100AF000FC4F51E050838F5FE82FF0E0EB5FFC4F3D
:100B000024E020838F5FE82FF0E0EB5FFC4F108242
:100B10008F5FE82FF0E0EB5FFC4F92E090838F5FF8
:100B2000E82FF0E0EB5FFC4F208339C081E098169E
:100B3000F9F480913904E82FF0E0EB5FFC4F9082EC
:100B4000282F2F5F20933904922FDE019196E92FF1
:100B5000F0E0EB5FFC4F8D9180839F5FCD57DF4FBF
:100B6000E881F981C358D040AE17BF0781F78DC324
:100B7000F5E09F16C1F480913904E82FF0E0EB5FB7
:100B8000FC4F93E090838F5FE82FF0E0EB5FFC4F2A
:100B900010828F5FE82FF0E0EB5FFC4F10828F5FD9
:100BA00080933904BFC221E8921621F43FEF3093BD
:100BB0003004B8C242E8941619F410923004B2C25C
:100BC00050E1951609F061C023968FAD23972496C6
:100BD0002FAD2497322F369536953695330F982FB3
:100BE000969596959695390F482F409547702770A2
:100BF000332369F4E7E0F0E0E21BF109E60DF71DAD
:100C0000C50102C0880F991F4A95E2F73AC03130FA
:100C1000A9F487E090E0FC01E41BF109A9E0B0E051
:100C2000AC0FBD1FEA0FFB1F821B9109950102C08B
:100C3000220F331F8A95E2F7C90123C0323069F4CD
:100C4000E1E1F0E0EC0FFD1FE40FF11DC50102C072
:100C5000880F991F2A95E2F714C0333009F056C265
:100C6000E9E1F0E0EC0FFD1FE20FF11D87E090E0FD
:100C7000841B9109A50102C0440F551F8A95E2F714
:100C8000CA0180952081822340C251E1951609F066
:100C900064C023968FAD239724962FAD2497322FCF
:100CA000369536953695330F982F96959695969559
:100CB000390F482F409547702770332369F4E7E0D8
:100CC000F0E0E21BF109E60DF71D950102C0220FCD
:100CD000331F4A95E2F726C03130A9F487E090E04F
:100CE000FC01E41BF109A9E0B0E0AC0FBD1FEA0F65
:100CF000FB1F821B9109950102C0220F331F8A95A9
:100D0000E2F7C90126C0323081F4E1E1F0E0EC0FF6
:100D1000FD1FE40FF11DA50102C0440F551F2A95C8
:100D2000E2F79A018081822BF0C1333009F0EEC1E5
:100D3000E9E1F0E0EC0FFD1FE20FF11D87E090E02C
:100D4000841B9109D50102C0AA0FBB1F8A95E2F747
:100D5000CD012081282B2083D9C1B2E19B16D9F483
:100D60009E01275F3F4F80E090E00CC01192E21798
:100D7000F307E1F701969F01285F3F4F843091050B
:100D800009F4C4C1FC0173E0EE0FFF1F7A95E1F78F
:100D9000E60DF71DEBCFE3E19E16E1F49E01275F20
:100DA0003F4F80E090E00DC04FEF4193E217F30713
:100DB000D9F701969F01285F3F4F8430910509F4D0
:100DC000A5C1FC0163E0EE0FFF1F6A95E1F7E60D98
:100DD000F71DEACF54E1951609F092C024969FAD15
:100DE0002497969596959695990F23968FAD239770
:100DF000869586958695980F89F49701DE01189659
:100E0000F90181919F01E82FF0E0ED5FFD4F8081B6
:100E10008C9311972215330599F778C1913079F5A4
:100E2000D70147E050E0C501042E02C0880F991F8A
:100E30000A94E2F7182F8C91682F70E0FE01399622
:100E400020E030E0012F0095CB01022E02C09595E5
:100E500087950A94E2F7908180FF02C0912B01C030
:100E6000902390832F5F3F4F31962830310561F7F3
:100E7000415050401196A215B305A9F647C19230D2
:100E800099F5D70140E050E0C501042E02C0880F5B
:100E9000991F0A94E2F7082FEC91F0E0ED5FFD4F07
:100EA0008081682F70E0FE01719620E030E0102F05
:100EB0001095CB01022E02C0959587950A94E2F712
:100EC000908180FF02C0902B01C0912390832F5FFF
:100ED0003F4F31962830310561F74F5F5F4F1196D4
:100EE0004830510589F612C1933009F00FC1F7015E
:100EF000DE01599681918D93E215F305D9F706C16C
:100F0000F6E19F1609F07FC023969FAD23972496A4
:100F10002FAD2497269526952695220F892F869505
:100F200086958695280F392F3770222361F5D201D7
:100F3000EC91F0E0ED5FFD4FE08187E090E0831BF6
:100F40009109950102C0220F331F8A95E2F7422FC3
:100F5000522F5095D30120E030E0C501022E02C08F
:100F6000880F991F0A94E2F78E239C91882311F031
:100F7000942B01C095239C932F5F3F4F11962830EF
:100F8000310559F7C3C0213079F449E050E04C0FE6
:100F90005D1F430F511DF201A081B0E0AD5FBD4F59
:100FA0008C91DA018C93B2C0223039F4E7E1F0E0A1
:100FB000E31BF109E60DF71DA6C0233009F0A6C01A
:100FC000F20160814A2D01C0440F3A95EAF7542F8F
:100FD0005095FE01799620E030E0C501022E02C056
:100FE000880F991F0A94E2F786239081882311F0D5
:100FF000942B01C0952390832F5F3F4F319628306B
:10100000310559F783C0F5E19F1609F081C0249698
:101010009FAD2497292F269526952695220F239656
:101020008FAD2397869586958695280F392F377033
:10103000222369F4E7E0F0E0E31BF109E60DF71D78
:10104000D2018C91A82FB0E0AD5FBD4F5DC02130C3
:1010500049F5F201608187E090E0831B91099501D9
:1010600002C0220F331F8A95E2F7422F522F50956C
:10107000FE01399620E030E0C501022E02C0880F43
:10108000991F0A94E2F786239081882311F0942B0C
:1010900001C0952390832F5F3F4F31962830310553
:1010A00059F734C0223039F5D201EC91F0E0ED5F10
:1010B000FD4FE0814A2D01C0440F3A95EAF7542FC5
:1010C0005095DE01519620E030E0C501022E02C0AD
:1010D000880F991F0A94E2F78E239C91882311F0C0
:1010E000942B01C095239C932F5F3F4F119628307E
:1010F000310559F70BC0233049F4E9E1F0E0EC0F7A
:10110000FD1FE30FF11DD2018C918083C3940AC0AF
:10111000B7E19B1639F423966FAD23976F708AE081
:101120000E944D00DD24E0E0C957DF4FF881C75829
:10113000D040FF5FC957DF4FF883C758D040439A6C
:101140008E2E319908C0C957DF4F2881C758D0402B
:10115000243109F09BCCCC20B1F0730110E01F5F6B
:10116000812FD7016C9118964C91189750962C911D
:10117000509758960C910E9489000894E11CF11C2C
:10118000183069F7CC2480910D04882309F44DC0F0
:1011900010920D041BB8BFEFBAB9CB57DF4FE881EF
:1011A000C558D0408E2F90E0DC01A45CBB4FFC0101
:1011B000E458FA4F20812C93FC013896DF01A458A3
:1011C000BA4F2C91E45CFB4F2083FC017096DF0149
:1011D000A458BA4F2C91E45CFB4F20834896FC0145
:1011E000E458FA4F2081845C9B4FDC012C938AE009
:1011F0008A95F1F7779A85E08A95F1F780E0769AFB
:1012000076988F5F8830D9F77798CB57DF4FB881C2
:10121000C558D040BF5FB770CB57DF4FB883C558B4
:10122000D0408B2F8295807F85B91BB8EFEFEAB94C
:10123000209139040BC0429AE92FF0E0EB5FFC4F9C
:1012400080818BB942989F5F90930403909104032F
:10125000921789F7349BF5CB10926E001FE050E98E
:10126000E52E51E0F52E8AE0612F0E944D0080E8C6
:1012700092E0F7013197F1F70197D9F7115098F7FC
:101280008CE060E00E944D00B1CB205E20933904D9
:1012900049CF80E090E0FC01E458FA4F1082FC0155
:1012A000E45CFB4F1082FC01E45AFA4F1082FC010F
:1012B000E456FA4F108201968032910561F7089545
:1012C0001F93CF93DF93A82FB0E0FD01E458FA4FAE
:1012D000108170E0FD01E45CFB4F8081812790E08C
:1012E000062E02C0959587950A94E2F7AC014170ED
:1012F000507080FF32C0FD01E45AFA4F2081822FE6
:10130000812790E0062E02C0959587950A94E2F712
:1013100080FF23C0812F90E0062E02C0959587950F
:101320000A94E2F780FF0DC081E090E002C0880FD0
:10133000991F6A95E2F7A456BA4F8C93282B208305
:1013400049C093E0AA0FBB1F9A95E1F7A60FB71FFC
:10135000A45ABB4F84E08C933DC0452BD9F5ED01D9
:10136000C45ADA4F4881842F812790E0062E02C0AC
:10137000959587950A94E2F780FF2CC0FD0183E0E4
:10138000EE0FFF1F8A95E1F7E60FF71FE45AFB4FB8
:1013900080818823F9F0815080838823D9F421E06B
:1013A00030E0062E02C0220F331F0A94E2F7A45643
:1013B000BA4F2C93812F90E002C0959587956A953E
:1013C000E2F780FF03C0422B488304C0822F809540
:1013D00084238883DF91CF911F9108952F923F92AC
:1013E0004F925F926F927F928F929F92AF92BF9235
:1013F000CF92DF92EF92FF920F931F93CF93DF93E1
:10140000CDB7DEB7CA1BDB0B0FB6F894DEBF0FBE3D
:10141000CDBF0994FB01DC0101900D920020E1F7A2
:061420000895F894FFCFCF
:101426006D6B0001012101040103010300000000AE
:10143600000001030301010B040402000000000088
:101446000000000000000000000000000000000096
:101456000000000000000000000000000000000086
:101466000000000000000000000000000000000076
:101476000000000000000000000000000000000066
:101486000000000000000000000000000000000056
:101496000000000000000000000000000000000046
:1014A6000000000102020000000000000000000031
:1014B6000000000000000000000000000000000026
:1014C6000000000000000000000000000000000016
:1014D6000000000000000000000000000000000006
:1014E60000000000000000000000000000000000F6
:1014F60000000000000000000000000000000000E6
:1015060000000000000000000000000000000000D5
:1015160000000000000000000000000000000000C5
:10152600000000008040C020A060E0109050D03045
:10153600B070F0088848C828A868E8189858D838BD
:10154600B878F8048444C424A464E4149454D434C9
:10155600B474F40C8C4CCC2CAC6CEC1C9C5CDC3C5D
:10156600BC7CFC028242C222A262E2129252D232B7
:10157600B272F20A8A4ACA2AAA6AEA1A9A5ADA3A5D
:10158600BA7AFA068646C626A666E6169656D63669
:10159600B676F60E8E4ECE2EAE6EEE1E9E5EDE3EFD
:1015A600BE7EFE018141C121A161E1119151D1317E
:1015B600B171F1098949C929A969E9199959D9392D
:1015C600B979F9058545C525A565E5159555D53539
:1015D600B575F50D8D4DCD2DAD6DED1D9D5DDD3DCD
:1015E600BD7DFD038343C323A363E3139353D33327
:1015F600B373F30B8B4BCB2BAB6BEB1B9B5BDB3BCD
:10160600BB7BFB078747C727A767E7179757D737D8
:10161600B777F70F8F4FCF2FAF6FEF1F9F5FDF3F6C
:04162600BF7FFF0083
:00000001FF
