:100000000C942E000C944B000C944B000C944B0061
:100010000C944B000C944B000C944B000C944B0034
:100020000C944B000C944B000C944B000C944B0024
:100030000C944B000C944B000C944B000C944B0014
:100040000C944B000C944B000C944B000C944B0004
:100050000C944B000C944B000C944B0011241FBECD
:10006000CFEFD8E0DEBFCDBF12E0A0E0B1E0E6E622
:10007000F0E102C005900D92A030B107D9F714E06D
:10008000A0E0B2E001C01D92A435B107E1F70E94E3
:10009000F7000C9431080C940000719827E030E0D0
:1000A000482F552747FD5095CA01022E02C095954D
:1000B00087950A94E2F780FF03C08EB18C6302C07B
:1000C0008EB1837C8EB9709A7098215030408FEF3A
:1000D0002F3F380749F727E030E0772767FD709515
:1000E000CB01022E02C0959587950A94E2F780FF16
:1000F00003C08EB18C6302C08EB1837C8EB9709ABE
:100100007098215030408FEF2F3F380749F7719A90
:1001100008950F93CF93DF937198E7E0F0E0A82F55
:10012000BB27A7FDB095CD010E2E02C095958795F2
:100130000A94E2F780FF03C08EB18C6302C08EB1D7
:10014000837C8EB9709A709831978FEFEF3FF807E4
:1001500051F7E7E0F0E0C62FDD27C7FDD095642F0B
:10016000772767FD7095422F552747FD5095A02FA3
:10017000BB27A7FDB0953E2FCE010E2E02C0959550
:1001800087950A94E2F780FF02C0759A01C07598BE
:10019000CB01032E02C0959587950A94E2F780FF64
:1001A00002C0749A01C07498CA01032E02C09595CA
:1001B00087950A94E2F780FF02C0739A01C0739892
:1001C000CD0102C0959587953A95E2F780FF02C070
:1001D000729A01C07298709A709831978FEFEF3FC2
:1001E000F80749F6719ADF91CF910F910895A7E42E
:1001F000B0E0EDEFF0E00C94010882E08B878C8793
:100200008D878E878F87888B93E0998B9A8B89E077
:100210008B8B81E08C8B8D8B8E8B8F8B988F998FB6
:100220009FEF9DB980E784B98CE087B91AB81EB8F2
:1002300015B81BB811B810BA92B991BBF999FECF95
:1002400012BC11BCF89A80B58093D302F999FECF05
:1002500081E090E092BD81BDF89A80B58093CF0295
:100260008BE067E00E944D008AE06FE00E944D0045
:1002700001E0802F60E00E944D000F5F0930C9F758
:100280008CE061E00E944D008FE060E00E944D0034
:1002900088E06CE040E020E000E00E94890080E817
:1002A00092E020E931E0F9013197F1F70197D9F7B0
:1002B0008AE06DE00E944D0088E062E140E020E0CD
:1002C00000E00E94890087E06CE040E020E00E94AE
:1002D000890080E892E020E931E0F9013197F1F7F7
:1002E0000197D9F78AE06BE00E944D0088E061E257
:1002F00040E020E000E00E94890087E062E140E009
:1003000020E00E94890086E06CE040E020E00E944E
:10031000890080E892E020E931E0F9013197F1F7B6
:100320000197D9F78AE069E00E944D0088E060E417
:1003300040E020E000E00E94890087E060E440E0C7
:1003400020E00E94890086E061E240E020E00E9417
:10035000890085E06EE140E020E00E94890080E8AD
:1003600092E020E931E0F9013197F1F70197D9F7EF
:100370008AE067E00E944D0088E060E040E021E014
:1003800000E00E94890087E060E040E021E00E94F8
:10039000890086E060E040E021E00E94890085E07D
:1003A00060E840E020E00E94890084E060E440E0F2
:1003B00020E00E94890083E061E240E020E00E94AA
:1003C000890082E06EE140E020E00E94890080E840
:1003D00092E020E931E0F9013197F1F70197D9F77F
:1003E0008AE065E00E944D0088E060E040EC20E19A
:1003F00000E00E94890087E060E048E320E10E947D
:10040000890086E060E047E028E00E94890085E0FE
:1004100060E040E028E00E94890084E060E040E085
:1004200024E00E94890083E060E040E024E00E9434
:10043000890082E060E040E022E00E94890081E0E3
:1004400060E040E021E00E94890080E892E020E93D
:1004500031E0F9013197F1F70197D9F78AE063E0CC
:100460000E944D0088E060E040E020E800E20E9449
:10047000890087E060E040E020E800E10E94890018
:1004800086E060E040E020E80E94890085E060E0CE
:1004900040E020E808E00E94890084E060E040E05D
:1004A00020E406E00E94890083E060E040E820E468
:1004B00001E00E94890082E060E040E720E400E083
:1004C0000E94890081E060E04FE020E20E94890004
:1004D00080E892E020E931E0F9013197F1F70197E6
:1004E000D9F78AE061E00E944D0088E060E040E0DA
:1004F00020E000E00E94890087E060E040E020E02A
:100500000E94890086E060E040E020E00E948900CF
:1005100085E060E040E020E00E94890084E060E047
:1005200040E020E000E80E94890083E060E040E0D5
:1005300020E00E94890082E060E040E020E000E4EA
:100540000E94890081E060E040E020E000E30E943A
:10055000890080E892E020E931E0F9013197F1F774
:100560000197D9F701E0802F60E00E944D000F5FF6
:100570000930C9F78AE06FE00E944D00FE01319614
:10058000CE010B961192E817F907E1F79E012E5D57
:100590003F4F28963FAF2EAF28979E012E5D3F4FCD
:1005A00080E090E0AE01465E5F4F0BC01192E21713
:1005B000F307E1F701969F01285F3F4F84309105D3
:1005C00049F0FC0163E0EE0FFF1F6A95E1F7E40FCD
:1005D000F51FECCF0E944907109201021092D00241
:1005E000AA2431E021963FAF219733241FAE41E08A
:1005F000662451E0452E512C442369F1349B02C0FE
:1006000041E015C08CE061E00E944D0010E0E12C5B
:100610003DE7F32E612F669566958AE00E944D00B6
:10062000C7010197F1F71F5F1034A1F740E086EF93
:1006300099E020E931E0F9013197F1F70197D9F715
:1006400080916E00826080936E0080916F00826066
:1006500080936F00D1CF1BB81AB84FAD493210F05C
:10066000AA2403C05FAD5F5F5FAFDD2425C243985E
:1006700085E08A95F1F789B1E1E0F0E0EC0FFD1F2C
:10068000EA0DF11D8083AA20A9F4398032942FE06D
:1006900032228EE0831578F0EBE0F0E0EC0FFD1FE6
:1006A000E30DF11D908121969FAF2197AA24A39479
:1006B0001FAE01C0A3942196EFAD2197AE1609F0AD
:1006C000F6C1FCE03F1671F4F999FECF89818F7075
:1006D0008093D30212BC11BC8091D30280BDFA9AE0
:1006E000F99AE4C12DE0321611F589818F7009F075
:1006F000DDC1E091D002F0E0EC5FFD4F30EE3083E1
:10070000E091D002F0E0EB5FFD4F1082E091D0026B
:10071000F0E0EA5FFD4F10828091D00290E00396F6
:1007200068EC70E00E94EE078093D002BFC14AE0FF
:10073000341621F469816F708AE01BC05BE03516C6
:10074000D9F48981837019F48CE061E00EC08130A6
:1007500039F48CE061E00E944D008FE061E009C057
:10076000823009F0A3C18CE060E00E944D008FE070
:1007700060E00E944D009AC185E03816C9F4898175
:100780008F70982F9095E92FF0E0E770F070883027
:1007900018F088E090E002C080E090E021E030E0D6
:1007A0002C0F3D1FE20FF31FE80FF91F8A8165C16F
:1007B00037E0331651F589818F70282F2095A0E0FE
:1007C000B0E0883010F0A1E0B0E0277030E0FD012B
:1007D00093E0EE0FFF1F9A95E1F741E050E04C0FD8
:1007E0005D1FE40FF51FE20FF31F8A81818F1296C0
:1007F00083E0AA0FBB1F8A95E1F7A40FB51FA20FD4
:10080000B31F8B8159968C9350C154E03516E9F58E
:10081000898190E09C0127703070F20102C0EE0FD8
:10082000FF1F2A95E2F79F01EA81F0E0E050FF4FB9
:10083000E08196958795969587958270A82FB0E070
:1008400013E0AA0FBB1F1A95E1F74AE150E04C0FE5
:100850005D1FA40FB51F40E050E0622F6095C201FC
:10086000042E02C0880F991F0A94E2F78E239C91F0
:10087000882311F0922B01C096239C934F5F5F4F0A
:1008800011964830510559F710C156E0351609F058
:1008900050C0298130E0C90187709070F20102C018
:1008A000EE0FFF1F8A95E2F7CF016E2FEA81F0E08D
:1008B000E050FF4F7081EB81F0E0E050FF4FE081AE
:1008C00036952795369527952270A22FB0E0F3E054
:1008D000AA0FBB1FFA95E1F72AE130E02C0F3D1F6C
:1008E000A20FB31F40E050E0382F3095C201042E14
:1008F00002C0880F991F0A94E2F7982F87232C9142
:10090000882311F0262B01C023232C939E231896B5
:100910008C911897992311F0862B01C08323189688
:100920008C9318974F5F5F4F119648305105F1F641
:10093000BCC038E0331609F042C089818370DE0103
:10094000129660E070E0482F50E0E3E0440F551F3E
:10095000EA95E1F78AE190E08C0F9D1F480F591F3F
:10096000C201062E02C0880F991F0A94E2F7E82EF2
:10097000EC91F0E0E050FF4F8081082F10E0FA0189
:1009800020E030E0FE2CF094C801022E02C09595C4
:1009900087950A94E2F7908180FF02C09E2901C0EA
:1009A0009F2190832F5F3F4F31962830310561F7AB
:1009B0006F5F7F4F11966830710591F676C092E0B7
:1009C000391661F52A81822F90E088709070959594
:1009D000879595958795E22FEE1FEE27EE1FE80F7E
:1009E000F0E0822F82958F708095877093E0EE0FF4
:1009F000FF1F9A95E1F741E050E04C0F5D1FE40FB7
:100A0000F51FE80FF11D2770C20102C0880F991F62
:100A10002A95E2F79C01818D822B2FC093E0391635
:100A200071F52A81822F90E0887090709595879556
:100A300095958795E22FEE1FEE27EE1FE80FF0E069
:100A4000822F82958F708095877013E0EE0FFF1FC5
:100A50001A95E1F741E050E04C0F5D1FE40FF51FE0
:100A6000E80FF11D2770C20102C0880F991F2A9557
:100A7000E2F79C012095818D8223818F16C099E039
:100A80003916A1F48981982F917080FD9FEFFE01A6
:100A90007A9690839087908B908F319628962EAD82
:100AA0003FAD2897E217F307A1F76394AA24D394E4
:100AB000439A85E08A95F1F7319904C034E1D31661
:100AC00009F0D5CD6620A9F0BAE1EB2EF12CEC0EA1
:100AD000FD1E10E01F5F812FF70160814085208996
:100AE000008D0E9489000894E11CF11C183091F7D8
:100AF00066241BB8FFEFFAB9A4E1EA2EA4E0FA2EAF
:100B0000F4ED8F2EF2E09F2EE4E3CE2EE4E0DE2E15
:100B1000772427E030E03DAF2CAF4FE050E05BAFF3
:100B20004AAF872D8295807F85B9F7018081F401D6
:100B30008083F7018085F4018087F7018089F401C3
:100B4000808BF701808DF401808F8AE08A95F1F720
:100B5000779A85E08A95F1F7FCADF295F07F2396C0
:100B6000FFAF23972AAD2295207F22962FAF2297A1
:100B700000E010E038E03EAF472D485F24964FAFCD
:100B80002497572D505F25965FAF2597872D885E58
:100B900026968FAF2697202E8091D302882309F4C2
:100BA00049C083B190E073E0969587957A95E1F717
:100BB000F7012081BB24B394B82280FD09C0C20193
:100BC000002E02C0880F991F0A94E2F7282B0AC052
:100BD000C201002E02C0880F991F0A94E2F7809587
:100BE0002823F7012083872D622D0E946007F601DC
:100BF0003081832F90E0002E02C0959587950A944E
:100C0000E2F780FF17C0C201002E02C0880F991FB3
:100C10000A94E2F7809583238083429AB29460EF2E
:100C2000B622BBB84298429A23968FAD2397802B69
:100C30008BB942988091D302823008F44AC083B1C4
:100C400090E09695879596958795F7012085BB242A
:100C5000B394B82280FD09C0C201002E02C0880FE3
:100C6000991F0A94E2F7282B0AC0C201002E02C085
:100C7000880F991F0A94E2F780952823F7012087AF
:100C800024968FAD2497622D0E946007F60130856F
:100C9000832F90E0002E02C0959587950A94E2F785
:100CA00080FF17C0C201002E02C0880F991F0A944E
:100CB000E2F7809583238087429AB29440EFB42272
:100CC000BBB84298429A22968FAD2297802B8BB95F
:100CD00042988091D302833008F449C083B190E0F8
:100CE00096958795F7012089BB24B394B82280FD9F
:100CF00009C0C201002E02C0880F991F0A94E2F7B2
:100D0000282B0AC0C201002E02C0880F991F0A9426
:100D1000E2F780952823F701208B25968FAD259744
:100D2000622D0E946007F6013089832F90E0002E2B
:100D300002C0959587950A94E2F780FF18C0C2011A
:100D4000002E02C0880F991F0A94E2F78095832332
:100D5000808B429AB29420EFB222BBB84298429A5A
:100D60008EAD2396FFAD23978F2B8BB94298809140
:100D7000D302843008F446C083B1F701208DBB2430
:100D8000B394B82280FD09C0C201002E02C0880FB2
:100D9000991F0A94E2F7282B0AC0C201002E02C054
:100DA000880F991F0A94E2F780952823F701208F76
:100DB00026968FAD2697622D0E946007F601308D32
:100DC000832F90E0002E02C0959587950A94E2F754
:100DD00080FF18C0C201002E02C0880F991F0A941C
:100DE000E2F780958323808F429AB29490EFB922E4
:100DF000BBB84298429A8EAD2296FFAD22978F2BB8
:100E00008BB94298769A85E08A95F1F7769885E0D5
:100E10008A95F1F70F5F1F4F2EAD2F5F2EAF203158
:100E200009F0B9CE779873940894E11CF11C0894EA
:100E3000811C911C4CAD5DAD415050405DAF4CAF3D
:100E40008AAD9BAD01979BAF8AAF0894C11CD11CA2
:100E500098E0791609F065CE349BFDCB10926E00B8
:100E600010926F001FE080E9E82E81E0F82E8AE002
:100E7000612F0E944D0080E892E0F7013197F1F771
:100E80000197D9F7115098F78CE060E00E944D006F
:100E9000B5CB80E090E0FC01EC5EFB4F1082FC01E2
:100EA000EC52FD4F1082FC01EC50FC4F1082FC0113
:100EB000EC5CFB4F108201968032910561F708953A
:100EC0001F93CF93DF93A82FB0E0FD01EC5EFB4FA3
:100ED000108170E0FD01EC52FD4F8081812790E090
:100EE000062E02C0959587950A94E2F7AC014170F1
:100EF000507080FF32C0FD01EC50FC4F2081822FEA
:100F0000812790E0062E02C0959587950A94E2F716
:100F100080FF23C0812F90E0062E02C09595879513
:100F20000A94E2F780FF0DC081E090E002C0880FD4
:100F3000991F6A95E2F7AC5CBB4F8C93282B2083FA
:100F400049C093E0AA0FBB1F9A95E1F7A60FB71F00
:100F5000AC50BD4F88E08C933DC0452BD9F5ED01D9
:100F6000CC50DC4F4881842F812790E0062E02C0B0
:100F7000959587950A94E2F780FF2CC0FD0183E0E8
:100F8000EE0FFF1F8A95E1F7E60FF71FEC50FD4FBC
:100F900080818823F9F0815080838823D9F421E06F
:100FA00030E0062E02C0220F331F0A94E2F7AC5C39
:100FB000BB4F2C93812F90E002C0959587956A9541
:100FC000E2F780FF03C0422B488304C0822F809544
:100FD00084238883DF91CF911F91089597FB092E79
:100FE00007260AD077FD04D028D006D000201AF4B6
:100FF000709561957F4F0895F6F7909581959F4F75
:1010000008952F923F924F925F926F927F928F92AC
:101010009F92AF92BF92CF92DF92EF92FF920F9387
:101020001F93CF93DF93CDB7DEB7CA1BDB0B0FB691
:10103000F894DEBF0FBECDBF0994AA1BBB1B51E1C4
:1010400007C0AA1FBB1FA617B70710F0A61BB70B38
:10105000881F991F5A95A9F780959095BC01CD01DD
:061060000895F894FFCF93
:10106600008040C020A060E0109050D030B070F0FA
:10107600088848C828A868E8189858D838B878F86A
:10108600048444C424A464E4149454D434B474F49A
:101096000C8C4CCC2CAC6CEC1C9C5CDC3CBC7CFC0A
:1010A600028242C222A262E2129252D232B272F29A
:1010B6000A8A4ACA2AAA6AEA1A9A5ADA3ABA7AFA0A
:1010C600068646C626A666E6169656D636B676F63A
:1010D6000E8E4ECE2EAE6EEE1E9E5EDE3EBE7EFEAA
:1010E600018141C121A161E1119151D131B171F16A
:1010F600098949C929A969E9199959D939B979F9DA
:10110600058545C525A565E5159555D535B575F509
:101116000D8D4DCD2DAD6DED1D9D5DDD3DBD7DFD79
:10112600038343C323A363E3139353D333B373F309
:101136000B8B4BCB2BAB6BEB1B9B5BDB3BBB7BFB79
:10114600078747C727A767E7179757D737B777F7A9
:101156000F8F4FCF2FAF6FEF1F9F5FDF3FBF7FFF19
:00000001FF
