:100000000C942E000C944B000C944B000C944B0061
:100010000C944B000C944B000C944B000C944D0032
:100020000C944B000C944B000C9434070C944B0034
:100030000C944B000C944B000C944B000C944B0014
:100040000C944B000C944B000C944B000C944B0004
:100050000C944B000C944B000C944B0011241FBECD
:10006000CFEFD8E0DEBFCDBF12E0A0E0B1E0E8E125
:10007000F5E102C005900D92A031B107D9F714E067
:10008000A0E1B2E001C01D92A430B107E1F70E94E7
:1000900011020C948A0A0C9400001F920F920FB662
:1000A0000F9211242F933F934F938F939F93AF936E
:1000B000BF93EF93FF9340B1842F8370809314021A
:1000C00090917602E0916E0280911402F0E0A0E03F
:1000D000B1E0EE0FFF1FEE0FFF1FE80FF11DEA0F5B
:1000E000FB1F8081980F9093760280911402809379
:1000F0006E02242F30E0C9018C7090709595879521
:10010000959587958093150290917702E0916F0203
:1001100080911502F0E0EE0FFF1FEE0FFF1FE80FBA
:10012000F11DEA0FFB1F8081980F90937702809159
:10013000150280936F0220733070E4E035952795A7
:10014000EA95E1F72093160290917802E09170020F
:1001500080911602F0E0EE0FFF1FEE0FFF1FE80F79
:10016000F11DEA0FFB1F8081980F90937802809118
:1001700016028093700242954695469543704093CF
:10018000170290917902E091710280911702F0E0DC
:10019000EE0FFF1FEE0FFF1FE80FF11DEA0FFB1F11
:1001A0008081980F90937902809117028093710259
:1001B0004FB140936C02842F83708093180290910A
:1001C0007A02E091720280911802F0E0EE0FFF1FB8
:1001D000EE0FFF1FE80FF11DEA0FFB1F8081980F44
:1001E00090937A028091180280937202242F30E05B
:1001F000C9018C709070959587959595879580939A
:10020000190290917B02E091730280911902F0E053
:10021000EE0FFF1FEE0FFF1FE80FF11DEA0FFB1F90
:100220008081980F90937B028091190280937302D2
:1002300020733070E4E035952795EA95E1F7209337
:100240001A0290917C02E091740280911A02F0E00F
:10025000EE0FFF1FEE0FFF1FE80FF11DEA0FFB1F50
:100260008081980F90937C0280911A02809374028F
:10027000429546954695437040931B0220917D021E
:100280008091750230911B0290E0880F991F880FB2
:10029000991F830F911DA80FB91F8C91280F2093D0
:1002A0007D0280911B02809375021092850010924E
:1002B0008400FF91EF91BF91AF919F918F914F91EA
:1002C0003F912F910F900FBE0F901F90189571982E
:1002D00027E030E0482F552747FD5095CA01022EF0
:1002E00002C0959587950A94E2F780FF03C08EB10E
:1002F0008C6302C08EB1837C8EB9709A7098215045
:1003000030408FEF2F3F380749F727E030E077275D
:1003100067FD7095CB01022E02C0959587950A94D2
:10032000E2F780FF03C08EB18C6302C08EB1837C84
:100330008EB9709A7098215030408FEF2F3F380758
:1003400049F7719A08950F93CF93DF937198E7E07F
:10035000F0E0A82FBB27A7FDB095CD010E2E02C05F
:10036000959587950A94E2F780FF03C08EB18C6360
:1003700002C08EB1837C8EB9709A709831978FEFDE
:10038000EF3FF80751F7E7E0F0E0C62FDD27C7FDA4
:10039000D095642F772767FD7095422F552747FD2D
:1003A0005095A02FBB27A7FDB0953E2FCE010E2E56
:1003B00002C0959587950A94E2F780FF02C0759A6E
:1003C00001C07598CB01032E02C0959587950A94BC
:1003D000E2F780FF02C0749A01C07498CA01032E2C
:1003E00002C0959587950A94E2F780FF02C0739A40
:1003F00001C07398CD0102C0959587953A95E2F7B3
:1004000080FF02C0729A01C07298709A70983197FA
:100410008FEFEF3FF80749F6719ADF91CF910F9177
:100420000895A3E4B0E0E7E1F2E00C945A0A82E018
:100430008B8B8C8B8D8B8E8B8F8B888F93E0998F92
:100440009A8F89E08B8F81E08C8F8D8F8E8F8F8F2D
:1004500098A399A39FEF9DB980E784B98CE087B9F1
:100460001AB81EB815B81BB811B810BA92B991BB1A
:10047000F999FECF12BC11BCF89A80B58093830223
:10048000F999FECF81E090E092BD81BDF89A80B5E8
:1004900080937F028BE067E00E9467018AE06FE053
:1004A0000E94670101E0802F60E00E9467010F5FFA
:1004B0000930C9F78CE061E00E9467018FE060E0DD
:1004C0000E94670188E06CE040E020E000E00E94CC
:1004D000A30180E892E020E931E0F9013197F1F7DA
:1004E0000197D9F78AE06DE00E94670188E062E138
:1004F00040E020E000E00E94A30187E06CE040E0E3
:1005000020E00E94A30180E892E020E931E0F901B7
:100510003197F1F70197D9F78AE06BE00E94670104
:1005200088E061E240E020E000E00E94A30187E073
:1005300062E140E020E00E94A30186E06CE040E040
:1005400020E00E94A30180E892E020E931E0F90177
:100550003197F1F70197D9F78AE069E00E946701C6
:1005600088E060E440E020E000E00E94A30187E032
:1005700060E440E020E00E94A30186E061E240E008
:1005800020E00E94A30185E06EE140E020E00E94AF
:10059000A30180E892E020E931E0F9013197F1F719
:1005A0000197D9F78AE067E00E94670188E060E080
:1005B00040E021E000E00E94A30187E060E040E02D
:1005C00021E00E94A30186E060E040E021E00E947B
:1005D000A30185E060E840E020E00E94A30184E000
:1005E00060E440E020E00E94A30183E061E240E09B
:1005F00020E00E94A30182E06EE140E020E00E9442
:10060000A30180E892E020E931E0F9013197F1F7A8
:100610000197D9F78AE065E00E94670188E060E011
:1006200040EC20E100E00E94A30187E060E048E3A5
:1006300020E10E94A30186E060E047E028E00E94FC
:10064000A30185E060E040E028E00E94A30184E08F
:1006500060E040E024E00E94A30183E060E040E02D
:1006600024E00E94A30182E060E040E022E00E94DA
:10067000A30181E060E040E021E00E94A30180E866
:1006800092E020E931E0F9013197F1F70197D9F7CC
:100690008AE063E00E94670188E060E040E020E8D3
:1006A00000E20E94A30187E060E040E020E800E172
:1006B0000E94A30186E060E040E020E80E94A301E0
:1006C00085E060E040E020E808E00E94A30184E0CB
:1006D00060E040E020E406E00E94A30183E060E0E7
:1006E00040E820E401E00E94A30182E060E040E7EE
:1006F00020E400E00E94A30181E060E04FE020E2FE
:100700000E94A30180E892E020E931E0F9013197ED
:10071000F1F70197D9F78AE061E00E94670188E06C
:1007200060E040E020E000E00E94A30187E060E09C
:1007300040E020E00E94A30186E060E040E020E08D
:100740000E94A30185E060E040E020E00E94A30158
:1007500084E060E040E020E000E80E94A30183E044
:1007600060E040E020E00E94A30182E060E040E021
:1007700020E000E40E94A30181E060E040E020E08E
:1007800000E30E94A30180E892E020E931E0F90152
:100790003197F1F70197D9F701E0802F60E00E94CF
:1007A00067010F5F0930C9F78AE06FE00E946701B7
:1007B000FE013996CE0143961192E817F907E1F749
:1007C0009E01265D3F4F24963FAF2EAF24979E019A
:1007D000265D3F4F80E090E0AE014E5D5F4F0BC065
:1007E0001192E217F307E1F701969F01285F3F4F4F
:1007F0008430910549F0FC0173E0EE0FFF1F7A95FC
:10080000E1F7E40FF51FECCF0E94A209109211024C
:100810001092800280E090E0FC01EA58FD4F1082C7
:10082000FC01EC5EFD4F1082FC01E259FD4F10828D
:1008300001968830910581F784B5856084BD8091EB
:100840006E00826080936E0089E187BD1092800007
:100850008091810084608093810080916F0082602C
:1008600080936F0085E090E09093890080938800EA
:100870007894DD24CC2433243394442441E062E290
:10088000662E712C6C0E7D1E4E010894811C911CED
:1008900051E0A52EB12C442369F1349B02C041E004
:1008A00015C08CE061E00E94670110E0E12C4DE78B
:1008B000F42E612F669566958AE00E946701C70154
:1008C0000197F1F71F5F1034A1F740E086EF99E040
:1008D00020E931E0F9013197F1F70197D9F78091DB
:1008E0006E00826080936E0080916F0082608093C2
:1008F0006F00D1CF35E0232E1BB81AB838E234157B
:1009000010F4DD2401C043945524FF240CC2439805
:10091000822D8A95F1F789B1E9E0F0E0EC0FFD1F37
:10092000ED0DF11D8083DD2091F4C984C2942FE088
:10093000C2224EE04C1560F0E3E1F0E0EC0FFD1F49
:10094000EC0DF11D3080DD24D394442401C0D394F8
:10095000D31409F0E3C15CE0C51659F4F999FECF50
:1009600089858F708093830212BC11BC80918302B1
:1009700030C08DE0C81689F589858F70F1F4E0915B
:100980008002F0E0E45EFD4F90EE9083E091800203
:10099000F0E0E35EFD4F1082E0918002F0E0E25E65
:1009A000FD4F10828091800290E0039660E570E038
:1009B0000E94470A80938002B0C1813009F0ADC126
:1009C000F999FECF8A8580937F02B2BCA1BC809149
:1009D0007F0280BDFA9AF99AA0C1EAE0CE1621F40E
:1009E00069856F708AE01BC0FBE0CF16D9F489855A
:1009F000837019F48CE061E00EC0813039F48CE032
:100A000061E00E9467018FE061E009C0823009F077
:100A100084C18CE060E00E9467018FE060E00E948A
:100A200067017BC125E0C216A9F489858F70982FD4
:100A30009095E92FF0E0E770F070883018F088E0CA
:100A400090E002C080E090E0E80DF91DE80FF91F8A
:100A50008A854BC137E0C31631F589858F70282F01
:100A60002095A0E0B0E0883010F0A1E0B0E0277061
:100A700030E0FD0193E0EE0FFF1F9A95E1F7E80DDE
:100A8000F91DE20FF31F8A8581A3129683E0AA0F56
:100A9000BB1F8A95E1F7A80DB91DA20FB31F8B8567
:100AA00091968C9339C144E0C416C9F5898590E0CC
:100AB0009C0127703070F50102C0EE0FFF1F2A95D0
:100AC000E2F79F01EA85F0E0E05FFE4FE081969556
:100AD0008795969587958270A82FB0E013E0AA0FAE
:100AE000BB1F1A95E1F7A60DB71D40E050E0622F3D
:100AF0006095C501042E02C0880F991F0A94E2F781
:100B00008E239C91882311F0922B01C096239C93F5
:100B10004F5F5F4F11964830510559F7FDC0F6E021
:100B2000CF1609F04CC0298530E0C901877090705C
:100B3000A50102C0440F551F8A95E2F7CA01642F30
:100B4000EA85F0E0E05FFE4F7081EB85F0E0E05F6A
:100B5000FE4FE08136952795369527952270A22F76
:100B6000B0E0F3E0AA0FBB1FFA95E1F7A60DB71DA1
:100B700040E050E0382F3095C501042E02C0880FA8
:100B8000991F0A94E2F7982F87232C91882311F05C
:100B9000262B01C023232C939E2318968C91189703
:100BA000992311F0862B01C0832318968C931897F4
:100BB0004F5F5F4F119648305105F1F6ADC058E0D8
:100BC000C516F1F589858370DE011A9660E070E044
:100BD000482F50E0E3E0440F551FEA95E1F7460D3A
:100BE000571DC501062E02C0880F991F0A94E2F70F
:100BF000D82EEC91F0E0E05FFE4F8081082F10E0EE
:100C0000FA0120E030E0ED2CE094C801022E02C091
:100C1000959587950A94E2F7908180FF02C09D29FF
:100C200001C09E2190832F5F3F4F319628303105C0
:100C300061F76F5F7F4F11966830710591F66CC058
:100C400082E0C81639F52A85822F90E0887090706E
:100C50009595879595958795E22FEE1FEE27EE1FC8
:100C6000E80FF0E0822F82958F708095877063E0A7
:100C7000EE0FFF1F6A95E1F7E80DF91DE80FF11D72
:100C80002770A50102C0440F551F2A95E2F781A1E4
:100C9000842B2BC053E0C51651F52A85822F90E096
:100CA000887090709595879595958795E22FEE1FA2
:100CB000EE27EE1FE80FF0E0822F82958F7080956F
:100CC000877043E0EE0FFF1F4A95E1F7E80DF91D2D
:100CD000E80FF11D2770C50102C0880F991F2A95E2
:100CE000E2F79C01209581A1822381A315C099E0A0
:100CF000C91699F48985982F917080FD9FEFF301B3
:100D000090839087908B908F319624962EAD3FAD37
:100D10002497E217F307A1F7F394DD245394439A41
:100D2000822D8A95F1F7319904C034E1531609F008
:100D3000EECDFF2091F0F894730110E01F5F812F3A
:100D4000F701608140852089008D0E94A3010894ED
:100D5000E11CF11C183091F77894F89420E030E011
:100D6000D901AA58BD4F8C91F401E20FF31F808383
:100D70008C9183708C932F5F3F4F2830310581F722
:100D80007894840120E030E0F80140814595459554
:100D90004083442341F180917F0290E0022E02C003
:100DA000959587950A94E2F780FF1DC0E091800237
:100DB000F0E0E45EFD4F51EE5083E0918002F0E000
:100DC000E35EFD4F2083E0918002F0E0E25EFD4FA4
:100DD00040838091800290E0039660E570E00E947D
:100DE000470A809380022F5F3F4F0F5F1F4F2830CD
:100DF000310551F61BB88FEF8AB913C0429AE091C2
:100E00001102F0E0E45EFD4F80818BB94298809141
:100E1000110290E0019660E570E00E94470A80931D
:100E200011029091110280918002981739F7349B3A
:100E300063CD10926E0010926F001FE030E9E32E38
:100E400031E0F32E8AE0612F0E94670180E892E092
:100E5000F7013197F1F70197D9F7115098F78CE026
:100E600060E00E94670119CD1F920F920FB60F929A
:100E70001124CF92DF92EF92FF920F931F932F9343
:100E80003F934F935F936F937F938F939F93AF9312
:100E9000BF93CF93DF93EF93FF93109281020AE108
:100EA00015E0C1E0D0E0F7E0EF2EF12CEFE0CE2E20
:100EB000D12C29C2892F8295807F8093130285B916
:100EC000892F90E0DC01AC57BD4FFC01EC53FC4F87
:100ED00020812C93FC013896DF01AC53BC4F2C9140
:100EE000EC57FD4F2083FC017096DF01AC53BC4FE3
:100EF0002C91EC57FD4F20834896FC01EC53FC4F9E
:100F000020818C579D4FFC012083802F8A95F1F71B
:100F1000779A812F8A95F1F710921302E9C1809197
:100F20008302882309F471C040918102409310022A
:100F300083B190E073E0969587957A95E1F781709B
:100F400080937E02E42FF0E0882361F4EC53FC4FA1
:100F50009E01062E02C0220F331F0A94E2F7808101
:100F6000822B0CC0EC53FC4FCE01062E02C0880F22
:100F7000991F0A94E2F78095208182238083842F31
:100F80000E94B90980911002E82FF0E0EC51FC4F6B
:100F9000308120911302832F90E0022E02C095959C
:100FA00087950A94E2F780FF30C0CE01022E02C07E
:100FB000880F991F0A94E2F7809583238083E0913C
:100FC0008002F0E080917E028295807FE45EFD4F9A
:100FD0008083E0918002F0E080918102A701481BAC
:100FE0005109CA0164E0880F991F6A95E1F7282B1F
:100FF000E35EFD4F20838091800290E0029660E5E1
:1010000070E00E94470A80938002809183028230C0
:1010100008F474C040918102485F4093100283B18C
:1010200090E09695879596958795817080937E023E
:1010300090911302E42FF0E0882359F4EC53FC4F15
:101040009E0102C0220F331F9A95E2F78081822B06
:101050000CC0EC53FC4F9E0102C0220F331F9A9527
:10106000E2F7C9018095208182238083842F6091DB
:1010700013020E94B90980911002E82FF0E0EC51B0
:10108000FC4F308120911302832F90E0022E02C08A
:10109000959587950A94E2F780FF30C0CE01022E25
:1010A00002C0880F991F0A94E2F7809583238083FA
:1010B000E0918002F0E080917E028295807FE45E84
:1010C000FD4F8083E0918002F0E080918102A601D3
:1010D000481B5109CA0134E0880F991F3A95E1F77E
:1010E000282BE35EFD4F20838091800290E00296E2
:1010F00060E570E00E94470A80938002809183023D
:10110000833008F473C040918102405F4093100225
:1011100083B190E096958795817080937E0290913F
:101120001302E42FF0E0882359F4EC53FC4F9E01A6
:1011300002C0220F331F9A95E2F78081822B0CC0E8
:10114000EC53FC4F9E0102C0220F331F9A95E2F729
:10115000C9018095208182238083842F60911302AE
:101160000E94B90980911002E82FF0E0EC51FC4F89
:10117000308120911302832F90E0022E02C09595BA
:1011800087950A94E2F780FF31C0CE01022E02C09B
:10119000880F991F0A94E2F7809583238083E0915A
:1011A0008002F0E080917E028295807FE45EFD4FB8
:1011B0008083E0918002F0E080918102A701481BCA
:1011C0005109CA01B4E0880F991FBA95E1F7285F69
:1011D000282BE35EFD4F20838091800290E00296F1
:1011E00060E570E00E94470A80938002809183024C
:1011F000843008F470C040918102485E4093100230
:1012000083B1817080937E0290911302E42FF0E00D
:10121000882359F4EC53FC4F9E0102C0220F331F68
:101220009A95E2F78081822B0CC0EC53FC4F9E0113
:1012300002C0220F331F9A95E2F7C90180952081E1
:1012400082238083842F609113020E94B9098091C8
:101250001002E82FF0E0EC51FC4F30812091130296
:10126000832F90E0022E02C0959587950A94E2F7AD
:1012700080FF31C0CE01022E02C0880F991F0A9450
:10128000E2F7809583238083E0918002F0E08091F3
:101290007E028295807FE45EFD4F8083E091800234
:1012A000F0E080918102A601481B5109CA01A4E027
:1012B000880F991FAA95E1F7285F282BE35EFD4F61
:1012C00020838091800290E0029660E570E00E94A9
:1012D000470A80938002769A812F8A95F1F7769853
:1012E000812F8A95F1F7809113028F5F809313020B
:1012F00060911302683008F412CE779880918102D1
:101300008F5F8093810290918102983008F4D2CD52
:1013100016BCFF91EF91DF91CF91BF91AF919F915B
:101320008F917F916F915F914F913F912F911F917D
:101330000F91FF90EF90DF90CF900F900FBE0F9026
:101340001F90189580E090E0FC01EC53FC4F108258
:10135000FC01EC57FD4F1082FC01EC55FC4F108254
:10136000FC01EC51FC4F108201968032910561F72F
:1013700008951F93CF93DF93A82FB0E0FD01EC53A6
:10138000FC4F108170E0FD01EC57FD4F80818127FB
:1013900090E0062E02C0959587950A94E2F7AC017D
:1013A0004170507080FF32C0FD01EC55FC4F208130
:1013B000822F812790E0062E02C0959587950A948A
:1013C000E2F780FF23C0812F90E0062E02C09595A2
:1013D00087950A94E2F780FF0DC081E090E002C09B
:1013E000880F991F6A95E2F7AC51BC4F8C93282B5C
:1013F000208349C093E0AA0FBB1F9A95E1F7A60F7F
:10140000B71FAC55BD4F88E08C933DC0452BD9F537
:10141000ED01CC55DC4F4881842F812790E0062ECA
:1014200002C0959587950A94E2F780FF2CC0FD01D4
:1014300083E0EE0FFF1F8A95E1F7E60FF71FEC55EB
:10144000FD4F80818823F9F0815080838823D9F46F
:1014500021E030E0062E02C0220F331F0A94E2F78B
:10146000AC51BC4F2C93812F90E002C0959587958D
:101470006A95E2F780FF03C0422B488304C0822FA5
:10148000809584238883DF91CF911F91089597FBE6
:10149000092E07260AD077FD04D028D006D00020D8
:1014A0001AF4709561957F4F0895F6F790958195A0
:1014B0009F4F08952F923F924F925F926F927F922B
:1014C0008F929F92AF92BF92CF92DF92EF92FF9254
:1014D0000F931F93CF93DF93CDB7DEB7CA1BDB0B00
:1014E0000FB6F894DEBF0FBECDBF0994AA1BBB1B7D
:1014F00051E107C0AA1FBB1FA617B70710F0A61B14
:10150000B70B881F991F5A95A9F780959095BC0134
:08151000CD010895F894FFCF0E
:101518000001FF00FF000001010000FF00FF0100C3
:10152800008040C020A060E0109050D030B070F033
:10153800088848C828A868E8189858D838B878F8A3
:10154800048444C424A464E4149454D434B474F4D3
:101558000C8C4CCC2CAC6CEC1C9C5CDC3CBC7CFC43
:10156800028242C222A262E2129252D232B272F2D3
:101578000A8A4ACA2AAA6AEA1A9A5ADA3ABA7AFA43
:10158800068646C626A666E6169656D636B676F673
:101598000E8E4ECE2EAE6EEE1E9E5EDE3EBE7EFEE3
:1015A800018141C121A161E1119151D131B171F1A3
:1015B800098949C929A969E9199959D939B979F913
:1015C800058545C525A565E5159555D535B575F543
:1015D8000D8D4DCD2DAD6DED1D9D5DDD3DBD7DFDB3
:1015E800038343C323A363E3139353D333B373F343
:1015F8000B8B4BCB2BAB6BEB1B9B5BDB3BBB7BFBB3
:10160800078747C727A767E7179757D737B777F7E2
:101618000F8F4FCF2FAF6FEF1F9F5FDF3FBF7FFF52
:00000001FF
