:100000000C942E000C944B000C944B000C944B0061
:100010000C944B000C944B000C944B000C944D0032
:100020000C944B000C944B000C94A9070C944B00BF
:100030000C944B000C944B000C944B000C944B0014
:100040000C944B000C944B000C944B000C944B0004
:100050000C944B000C944B000C944B0011241FBECD
:10006000CFEFD8E0DEBFCDBF12E0A0E0B1E0E6E028
:10007000F6E102C005900D92A031B107D9F714E066
:10008000A0E1B2E001C01D92A430B107E1F70E94E7
:1000900011020C94010B0C9400001F920F920FB6EA
:1000A0000F9211242F933F934F938F939F93AF936E
:1000B000BF93EF93FF9340B1842F8370809314021A
:1000C00090917602E0916E0280911402F0E0A0E03F
:1000D000B1E0EE0FFF1FEE0FFF1FE80FF11DEA0F5B
:1000E000FB1F8081980F9093760280911402809379
:1000F0006E02242F30E0C9018C7090709595879521
:10010000959587958093150290917702E0916F0203
:1001100080911502F0E0EE0FFF1FEE0FFF1FE80FBA
:10012000F11DEA0FFB1F8081980F90937702809159
:10013000150280936F0220733070E4E035952795A7
:10014000EA95E1F72093160290917802E09170020F
:1001500080911602F0E0EE0FFF1FEE0FFF1FE80F79
:10016000F11DEA0FFB1F8081980F90937802809118
:1001700016028093700242954695469543704093CF
:10018000170290917902E091710280911702F0E0DC
:10019000EE0FFF1FEE0FFF1FE80FF11DEA0FFB1F11
:1001A0008081980F90937902809117028093710259
:1001B0004FB140936C02842F83708093180290910A
:1001C0007A02E091720280911802F0E0EE0FFF1FB8
:1001D000EE0FFF1FE80FF11DEA0FFB1F8081980F44
:1001E00090937A028091180280937202242F30E05B
:1001F000C9018C709070959587959595879580939A
:10020000190290917B02E091730280911902F0E053
:10021000EE0FFF1FEE0FFF1FE80FF11DEA0FFB1F90
:100220008081980F90937B028091190280937302D2
:1002300020733070E4E035952795EA95E1F7209337
:100240001A0290917C02E091740280911A02F0E00F
:10025000EE0FFF1FEE0FFF1FE80FF11DEA0FFB1F50
:100260008081980F90937C0280911A02809374028F
:10027000429546954695437040931B0220917D021E
:100280008091750230911B0290E0880F991F880FB2
:10029000991F830F911DA80FB91F8C91280F2093D0
:1002A0007D0280911B02809375021092850010924E
:1002B0008400FF91EF91BF91AF919F918F914F91EA
:1002C0003F912F910F900FBE0F901F90189571982E
:1002D00027E030E0482F552747FD5095CA01022EF0
:1002E00002C0959587950A94E2F780FF03C08EB10E
:1002F0008C6302C08EB1837C8EB9709A7098215045
:1003000030408FEF2F3F380749F727E030E077275D
:1003100067FD7095CB01022E02C0959587950A94D2
:10032000E2F780FF03C08EB18C6302C08EB1837C84
:100330008EB9709A7098215030408FEF2F3F380758
:1003400049F7719A08950F93CF93DF937198E7E07F
:10035000F0E0A82FBB27A7FDB095CD010E2E02C05F
:10036000959587950A94E2F780FF03C08EB18C6360
:1003700002C08EB1837C8EB9709A709831978FEFDE
:10038000EF3FF80751F7E7E0F0E0C62FDD27C7FDA4
:10039000D095642F772767FD7095422F552747FD2D
:1003A0005095A02FBB27A7FDB0953E2FCE010E2E56
:1003B00002C0959587950A94E2F780FF02C0759A6E
:1003C00001C07598CB01032E02C0959587950A94BC
:1003D000E2F780FF02C0749A01C07498CA01032E2C
:1003E00002C0959587950A94E2F780FF02C0739A40
:1003F00001C07398CD0102C0959587953A95E2F7B3
:1004000080FF02C0729A01C07298709A70983197FA
:100410008FEFEF3FF80749F6719ADF91CF910F9177
:100420000895A7E4B0E0E7E1F2E00C94D10A82E09D
:100430008B8B8C8B8D8B8E8B8F8B888F93E0998F92
:100440009A8F89E08B8F81E08C8F8D8F8E8F8F8F2D
:1004500098A399A39FEF9DB980E784B98CE087B9F1
:100460001AB81EB815B81BB811B810BA92B991BB1A
:10047000F999FECF12BC11BCF89A80B58093830223
:10048000F999FECF81E090E092BD81BDF89A80B5E8
:1004900080937F028BE067E00E9467018AE06FE053
:1004A0000E94670101E0802F60E00E9467010F5FFA
:1004B0000930C9F78CE061E00E9467018FE060E0DD
:1004C0000E94670181E061E00E94670180E892E09C
:1004D00020E931E0F9013197F1F70197D9F782E08E
:1004E00062E00E94670180E892E020E931E0F901D2
:1004F0003197F1F70197D9F783E064E00E94670133
:1005000080E892E020E931E0F9013197F1F70197B5
:10051000D9F784E068E00E94670180E892E020E972
:1005200031E0F9013197F1F70197D9F785E060E102
:100530000E94670180E892E020E931E0F9013197FB
:10054000F1F70197D9F786E060E20E94670180E841
:1005500092E020E931E0F9013197F1F70197D9F7FD
:1005600087E060E40E94670180E892E020E931E0E2
:10057000F9013197F1F70197D9F788E060E80E9417
:10058000670180E892E020E931E0F9013197F1F765
:100590000197D9F701E0802F60E00E9467010F5FAB
:1005A0000930C9F78AE06FE00E946701FE013996C1
:1005B000CE0143961192E817F907E1F79E01265DF7
:1005C0003F4F28963FAF2EAF28979E01265D3F4FA5
:1005D00080E090E0AE014E5D5F4F0BC01192E217DC
:1005E000F307E1F701969F01285F3F4F84309105A3
:1005F00049F0FC0163E0EE0FFF1F6A95E1F7E40F9D
:10060000F51FECCF0E94190A10921102109280027D
:1006100080E090E0FC01EA58FD4F1082FC01EC5EA6
:10062000FD4F1082FC01E259FD4F10820196883087
:10063000910581F784B5856084BD80916E008260EC
:1006400080936E0089E187BD1092800080918100C7
:1006500084608093810080916F00826080936F003E
:1006600085E090E090938900809388007894DD2461
:1006700031E024963FAF2497CC2423961FAE2397D6
:1006800041E022E2622E712C6C0E7D1E92E3492E17
:10069000512C4C0E5D1E8AE2282E312C2C0E3D1E54
:1006A000CE01429626969FAF8EAF2697442369F1DE
:1006B000349B02C041E015C08CE061E00E946701FC
:1006C00010E0E12C0DE7F02E612F669566958AE02B
:1006D0000E946701C7010197F1F71F5F1034A1F76E
:1006E00040E086EF99E020E931E0F9013197F1F738
:1006F0000197D9F780916E00826080936E0080919F
:100700006F00826080936F00D1CFB1E0AB2EB12C2F
:100710001BB81AB823969FAD2397993210F0DD24A9
:1007200007C02396AFAD2397AF5F2396AFAF239754
:10073000EE24FF24A7E08A2E912C64C3439885E021
:100740008A95F1F789B1E9E0F0E0EC0FFD1FED0DBE
:10075000F11D8083DD20B9F4C984C294FFE0CF226B
:10076000BEE0BC1588F0E3E1F0E0EC0FFD1FEC0DFE
:10077000F11D208124962FAF2497DD24D394239656
:100780001FAE239701C0D39424963FAD2497D31670
:1007900009F033C38CE0C81659F4F999FECF898566
:1007A0008F708093830212BC11BC8091830230C091
:1007B0009DE0C91689F589858F70F1F4E09180027A
:1007C000F0E0E45EFD4FA0EEA083E0918002F0E057
:1007D000E35EFD4F1082E0918002F0E0E25EFD4FAB
:1007E00010828091800290E0039660E570E00E94A4
:1007F000BE0A8093800200C3813009F0FDC2F999DE
:10080000FECF8A8580937F02B2BCA1BC80917F021B
:1008100080BDFA9AF99AF0C2BAE0CB1621F4698544
:100820006F708AE01BC0EBE0CE16D9F48985837027
:1008300019F48CE061E00EC0813039F48CE061E0A5
:100840000E9467018FE061E009C0823009F0D4C2E4
:100850008CE060E00E9467018FE060E00E94670129
:10086000CBC2F5E0CF16D9F58985982F9770EA8528
:10087000A92FB0E08F70883050F5C4018A1B9B0B04
:10088000950102C0220F331F8A95E2F7C901422F5A
:10089000F0E0E05FFE4FE081D30120E030E0582F30
:1008A0005095C501022E02C0880F991F0A94E2F7E5
:1008B0008E239C91882311F0942B01C095239C9347
:1008C0002F5F3F4F11962830310559F794C2A20D82
:1008D000B31DF0E0E05FFE4F80818C938CC237E067
:1008E000C31609F065C08985982F9770EA85492F4E
:1008F00050E01B858F70883078F5C401841B950B00
:10090000AC01C501042E02C0880F991F0A94E2F7BA
:10091000682FF0E0E05FFE4FE081D30120E030E09F
:10092000782F7095C501022E02C0880F991F0A9476
:10093000E2F78E239C91882311F0962B01C0972318
:100940009C932F5F3F4F11962830310559F7FA01DC
:10095000E40DF51D10834FC2F0E0E05FFE4FE08133
:10096000C501042E02C0880F991F0A94E2F7682F70
:10097000DE01DA9620E030E0782F7095C501022E76
:1009800002C0880F991F0A94E2F781239C91882363
:1009900011F0962B01C097239C932F5F3F4F119628
:1009A0002830310559F7420D531DDA01EC9323C26B
:1009B000B4E0CB1609F043C04985242F30E0C901CB
:1009C000887090709595879595958795882359F4AB
:1009D00040954770F301E40FF11DAA85B0E0A05FD8
:1009E000BE4F8C91F1C1823009F005C22770307082
:1009F000C50102C0880F991F2A95E2F7482FEA85A2
:100A0000F0E0E05FFE4FE081D20120E030E0582FBF
:100A10005095C501022E02C0880F991F0A94E2F773
:100A20008E239C91882311F0942B01C095239C93D5
:100A30002F5F3F4F11962830310559F7DCC1E6E0B2
:100A4000CE1609F073C04985242F30E0C9018870A3
:100A500090709595879595958795882391F5EA856A
:100A6000F0E0E05FFE4FA081209530952770307058
:100A7000C50102C0880F991F2A95E2F7582F7B8580
:100A8000F10120E030E0682F6095C501022E02C020
:100A9000880F991F0A94E2F787239081882311F029
:100AA000952B01C0962390832F5F3F4F31962830BE
:100AB000310559F740954770F301E40FF11DA0830C
:100AC0009AC1823009F097C17B8527703070C501CB
:100AD00002C0880F991F2A95E2F7582FEA85F0E0A7
:100AE000E05FFE4FE081D20120E030E0682F6095AA
:100AF000C501022E02C0880F991F0A94E2F78E23C7
:100B00009C91882311F0952B01C096239C932F5F15
:100B10003F4F11962830310559F74770EAE3F0E06E
:100B2000EC0FFD1FE40FF11D708365C1F8E0CF16D7
:100B300009F092C089858370B9F49E01265F3F4F0A
:100B4000DE019996F90181919F01E82FF0E0E05FC5
:100B5000FE4F80818C93119726968EAD9FAD269780
:100B60002817390779F747C1813099F5DE011A96C0
:100B700047E050E0C501042E02C0880F991F0A9477
:100B8000E2F7182F8C91682F70E0F10120E030E03F
:100B9000012F0095CB01022E02C0959587950A94EE
:100BA000E2F7908180FF02C0912B01C090239083D7
:100BB0002F5F3F4F31962830310561F7415050404B
:100BC00011962696EEADFFAD2697AE17BF0791F6AC
:100BD00012C1823099F5DE011A9640E050E0C5015D
:100BE000042E02C0880F991F0A94E2F7082FEC9197
:100BF000F0E0E05FFE4F8081682F70E0F20120E0BE
:100C000030E0102F1095CB01022E02C095958795EC
:100C10000A94E2F7908180FF02C0902B01C09123DB
:100C200090832F5F3F4F31962830310561F74F5F3A
:100C30005F4F11964830510591F6DDC0FE013A969E
:100C4000DE01DA9681918D9326962EAD3FAD2697E3
:100C5000E217F307B9F7CFC032E0C31609F058C066
:100C60002A85422F4770322F32953F70309537706A
:100C7000822F90E0887090709595879595958795CF
:100C8000221F2227221F280F69F4F401E41BF10917
:100C9000E60DF71DC50102C0880F991F3A95E2F7CE
:100CA0009C011DC0213081F4F401E31BF109E20D28
:100CB000F31DC401841B9109D50102C0AA0FBB1FFB
:100CC0008A95E2F7CD0121C0223061F4F201E30FF1
:100CD000F11D950102C0220F331F4A95E2F7808172
:100CE000822B72C0233009F086C0EAE3F0E0EC0FFB
:100CF000FD1FE40FF11DC401831B9109950102C082
:100D0000220F331F8A95E2F7C9012081282B45C0A5
:100D100033E0C31609F05AC02A85422F4770322F9C
:100D200032953F7030953770822F90E088709070C8
:100D30009595879595958795221F2227221F280F25
:100D400061F4F401E41BF109E60DF71DC50102C0D1
:100D5000880F991F3A95E2F734C0213081F4F401ED
:100D6000E31BF109E20DF31DC401841B9109D501B8
:100D700002C0AA0FBB1F8A95E2F7CD010BC022303B
:100D800071F4F201E30FF11DC50102C0880F991F34
:100D90004A95E2F780952081282320832CC02330B8
:100DA00051F5EAE3F0E0EC0FFD1FE40FF11DC40183
:100DB000831B9109950102C0220F331F8A95E2F728
:100DC000C901809520818223808315C039E0C31634
:100DD00099F48985982F917080FD9FEFF30190839E
:100DE0009087908B908F31962896AEADBFAD2897A7
:100DF000EA17FB07A1F7F394DD24E394439A85E017
:100E00008A95F1F7319904C0B4E1EB1609F096CC5C
:100E1000FF2091F0F894730110E01F5F812FF7011C
:100E2000608140852089008D0E94A3010894E11C07
:100E3000F11C183091F77894F89420E030E0AE017E
:100E40004F5F5F4FD901AA58BD4F8C91FA01E20F55
:100E5000F31F80838C9183708C932F5F3F4F2830DA
:100E6000310581F778948E010F5F1F4F20E030E04D
:100E700041EEF42ED8014C91459545954C93442371
:100E800039F180917F0290E0022E02C095958795FE
:100E90000A94E2F780FF1CC0E0918002F0E0E45E7B
:100EA000FD4FF082E0918002F0E0E35EFD4F208391
:100EB000E0918002F0E0E25EFD4F4083809180028D
:100EC00090E0039660E570E00E94BE0A8093800285
:100ED0002F5F3F4F0F5F1F4F2830310559F61BB86A
:100EE0008FEF8AB913C0429AE0911102F0E0E45EFC
:100EF000FD4F80818BB942988091110290E001965C
:100F000060E570E00E94BE0A809311029091110288
:100F100080918002981739F7349BFACB10926E00BB
:100F200010926F001FE030E9E32E31E0F32E8AE0EB
:100F3000612F0E94670180E892E0F7013197F1F795
:100F40000197D9F7115098F78CE060E00E94670193
:100F5000AFCB1F920F920FB60F921124DF92EF9238
:100F6000FF920F931F932F933F934F935F936F9332
:100F70007F938F939F93AF93BF93CF93DF93EF9321
:100F8000FF9310928102FAE1DF2E15E0C1E0D0E07C
:100F9000E7E0EE2EF12C07E02EC2892F8295807FAC
:100FA0008093130285B9892F90E0DC01AC57BD4FC7
:100FB000FC01EC53FC4F20812C93FC013896DF019F
:100FC000AC53BC4F2C91EC57FD4F2083FC01709625
:100FD000DF01AC53BC4F2C91EC57FD4F208348965A
:100FE000FC01EC53FC4F20818C579D4FFC0120836A
:100FF0008D2D8A95F1F7779A812F8A95F1F71092C6
:101000001302EEC180918302882309F475C04091D8
:1010100081024093100283B190E073E0969587952A
:101020007A95E1F7817080937E02E42FF0E08823C7
:1010300061F4EC53FC4F9E01062E02C0220F331FB9
:101040000A94E2F78081822B0CC0EC53FC4FCE0156
:10105000062E02C0880F991F0A94E2F7809520811E
:1010600082238083842F0E94300A80911002E82F0F
:10107000F0E0EC51FC4F408180911302282F30E0CA
:10108000842F90E0022E02C0959587950A94E2F78E
:1010900080FF32C0CE01022E02C0880F991F0A9431
:1010A000E2F7809584238083E0918002F0E08091D4
:1010B0007E028295807FE45EFD4F8083E091800216
:1010C000F0E0C701821B930B64E0880F991F6A95BB
:1010D000E1F720918102302F321B232F282BE35E72
:1010E000FD4F20838091800290E0029660E570E0E1
:1010F0000E94BE0A8093800280918302823008F4AD
:1011000075C040918102485F4093100283B190E026
:101110009695879596958795817080937E0290919C
:101120001302E42FF0E0882359F4EC53FC4F9E01A6
:1011300002C0220F331F9A95E2F78081822B0CC0E8
:10114000EC53FC4F9E0102C0220F331F9A95E2F729
:10115000C9018095208182238083842F60911302AE
:101160000E94300A80911002E82FF0E0EC51FC4F11
:10117000308120911302832F90E0022E02C09595BA
:1011800087950A94E2F780FF31C0CE01022E02C09B
:10119000880F991F0A94E2F7809583238083E0915A
:1011A0008002F0E080917E028295807FE45EFD4FB8
:1011B0008083E0918002F0E08091810290E00896C7
:1011C00034E0880F991F3A95E1F7302F321B232F17
:1011D000282BE35EFD4F20838091800290E00296F1
:1011E00060E570E00E94BE0A8093800280918302D5
:1011F000833008F473C040918102405F4093100235
:1012000083B190E096958795817080937E0290914E
:101210001302E42FF0E0882359F4EC53FC4F9E01B5
:1012200002C0220F331F9A95E2F78081822B0CC0F7
:10123000EC53FC4F9E0102C0220F331F9A95E2F738
:10124000C9018095208182238083842F60911302BD
:101250000E94300A80911002E82FF0E0EC51FC4F20
:10126000308120911302832F90E0022E02C09595C9
:1012700087950A94E2F780FF31C0CE01022E02C0AA
:10128000880F991F0A94E2F7809583238083E09169
:101290008002F0E080917E028295807FE45EFD4FC7
:1012A0008083E0918002F0E080918102A701481BD9
:1012B0005109CA01A4E0880F991FAA95E1F7285F98
:1012C000282BE35EFD4F20838091800290E0029600
:1012D00060E570E00E94BE0A8093800280918302E4
:1012E000843008F470C040918102485E409310023F
:1012F00083B1817080937E0290911302E42FF0E01D
:10130000882359F4EC53FC4F9E0102C0220F331F77
:101310009A95E2F78081822B0CC0EC53FC4F9E0122
:1013200002C0220F331F9A95E2F7C90180952081F0
:1013300082238083842F609113020E94300A80915F
:101340001002E82FF0E0EC51FC4F40818091130235
:10135000282F30E0842F90E0022E02C095958795CB
:101360000A94E2F780FF2FC0CE01022E02C0880F40
:10137000991F0A94E2F7809584238083E09180028C
:10138000F0E080917E028295807FE45EFD4F808355
:10139000E0918002F0E0285F3F4F74E0220F331F9E
:1013A0007A95E1F780918102885F822BE35EFD4FA1
:1013B00080838091800290E0029660E570E00E9458
:1013C000BE0A80938002769A812F8A95F1F77698EB
:1013D000812F8A95F1F7809113028F5F809313021A
:1013E00060911302683008F40DCE779880918102E5
:1013F0008F5F8093810290918102983008F4CDCD67
:1014000016BCFF91EF91DF91CF91BF91AF919F916A
:101410008F917F916F915F914F913F912F911F918C
:101420000F91FF90EF90DF900F900FBE0F901F90E5
:10143000189580E090E0FC01EC53FC4F1082FC0119
:10144000EC57FD4F1082FC01EC55FC4F1082FC0163
:10145000EC51FC4F108201968032910561F708959E
:101460001F93CF93DF93A82FB0E0FD01EC53FC4F07
:10147000108170E0FD01EC57FD4F8081812790E0E5
:10148000062E02C0959587950A94E2F7AC0141704B
:10149000507080FF32C0FD01EC55FC4F2081822F3F
:1014A000812790E0062E02C0959587950A94E2F771
:1014B00080FF23C0812F90E0062E02C0959587956E
:1014C0000A94E2F780FF0DC081E090E002C0880F2F
:1014D000991F6A95E2F7AC51BC4F8C93282B20835F
:1014E00049C093E0AA0FBB1F9A95E1F7A60FB71F5B
:1014F000AC55BD4F88E08C933DC0452BD9F5ED012F
:10150000CC55DC4F4881842F812790E0062E02C005
:10151000959587950A94E2F780FF2CC0FD0183E042
:10152000EE0FFF1F8A95E1F7E60FF71FEC55FD4F11
:1015300080818823F9F0815080838823D9F421E0C9
:1015400030E0062E02C0220F331F0A94E2F7AC519E
:10155000BC4F2C93812F90E002C0959587956A959A
:10156000E2F780FF03C0422B488304C0822F80959E
:1015700084238883DF91CF911F91089597FB092ED3
:1015800007260AD077FD04D028D006D000201AF410
:10159000709561957F4F0895F6F7909581959F4FCF
:1015A00008952F923F924F925F926F927F928F9207
:1015B0009F92AF92BF92CF92DF92EF92FF920F93E2
:1015C0001F93CF93DF93CDB7DEB7CA1BDB0B0FB6EC
:1015D000F894DEBF0FBECDBF0994AA1BBB1B51E11F
:1015E00007C0AA1FBB1FA617B70710F0A61BB70B93
:1015F000881F991F5A95A9F780959095BC01CD0138
:061600000895F894FFCFED
:101606000001FF00FF000001010000FF00FF0100D4
:10161600008040C020A060E0109050D030B070F044
:10162600088848C828A868E8189858D838B878F8B4
:10163600048444C424A464E4149454D434B474F4E4
:101646000C8C4CCC2CAC6CEC1C9C5CDC3CBC7CFC54
:10165600028242C222A262E2129252D232B272F2E4
:101666000A8A4ACA2AAA6AEA1A9A5ADA3ABA7AFA54
:10167600068646C626A666E6169656D636B676F684
:101686000E8E4ECE2EAE6EEE1E9E5EDE3EBE7EFEF4
:10169600018141C121A161E1119151D131B171F1B4
:1016A600098949C929A969E9199959D939B979F924
:1016B600058545C525A565E5159555D535B575F554
:1016C6000D8D4DCD2DAD6DED1D9D5DDD3DBD7DFDC4
:1016D600038343C323A363E3139353D333B373F354
:1016E6000B8B4BCB2BAB6BEB1B9B5BDB3BBB7BFBC4
:1016F600078747C727A767E7179757D737B777F7F4
:101706000F8F4FCF2FAF6FEF1F9F5FDF3FBF7FFF63
:00000001FF
