:100000000C942E000C944B000C944B000C944B0061
:100010000C944B000C944B000C944B000C94070177
:100020000C944B000C944B000C94F7000C944B0078
:100030000C944B000C944B000C944B000C944B0014
:100040000C944B000C944B000C944B000C944B0004
:100050000C944B000C944B000C944B0011241FBECD
:10006000CFEFD8E0DEBFCDBF13E0A0E0B1E0E0E32A
:10007000FFE002C005900D92A431B107D9F715E059
:10008000A4E1B3E001C01D92A43BB107E1F70E94D7
:100090006F010C9496070C940000719827E030E0F3
:1000A000482F552747FD5095CA01022E02C095954D
:1000B00087950A94E2F780FF03C08EB18C6302C07B
:1000C0008EB1837C8EB9709A7098215030408FEF3A
:1000D0002F3F380749F727E030E0772767FD709515
:1000E000CB01022E02C0959587950A94E2F780FF16
:1000F00003C08EB18C6302C08EB1837C8EB9709ABE
:100100007098215030408FEF2F3F380749F7719A90
:1001100008950F93CF93DF937198E7E0F0E0A82F55
:10012000BB27A7FDB095CD010E2E02C095958795F2
:100130000A94E2F780FF03C08EB18C6302C08EB1D7
:10014000837C8EB9709A709831978FEFEF3FF807E4
:1001500051F7E7E0F0E0C62FDD27C7FDD095642F0B
:10016000772767FD7095422F552747FD5095A02FA3
:10017000BB27A7FDB0953E2FCE010E2E02C0959550
:1001800087950A94E2F780FF02C0759A01C07598BE
:10019000CB01032E02C0959587950A94E2F780FF64
:1001A00002C0749A01C07498CA01032E02C09595CA
:1001B00087950A94E2F780FF02C0739A01C0739892
:1001C000CD0102C0959587953A95E2F780FF02C070
:1001D000729A01C07298709A709831978FEFEF3FC2
:1001E000F80749F6719ADF91CF910F9108951F9208
:1001F0000F920FB60F9211248F9381E08093280401
:1002000016BC8F910F900FBE0F901F9018951F92E4
:100210000F920FB60F9211241F932F933F934F937A
:100220005F936F937F938F939F93AF93BF93CF937E
:10023000DF93EF93FF93809131048823C1F110B1D4
:100240007FB160E02CC0A62FB0E0872F90E08170D6
:100250009070880F991F212F2170282BAD014A5EC5
:100260005C4FEA0128839D01275D3B4FF901908196
:10027000A05EBB4FEC918881F0E0EE0FFF1FEE0F08
:10028000FF1FE80FF11DED5FFD4F8081980FE90121
:100290009883FA0180818C93169576956F5F68300C
:1002A00090F27093150310931E0460933304109220
:1002B000850010928400FF91EF91DF91CF91BF9163
:1002C000AF919F918F917F916F915F914F913F91EE
:1002D0002F911F910F900FBE0F901F901895AFE8B0
:1002E000B0E0E5E7F1E00C9473079FEF9DB980E77C
:1002F00084B98CE087B91AB81EB815B81BB811B804
:1003000010BA92B991BB9E01275D3F4FC557DF4F91
:1003100039832883CB58D040C90129E230E02C0F23
:100320003D1F205E3F4FC557DF4FA881B981CB5895
:10033000D0401D92C557DF4FB983A883CB58D0401A
:10034000A217B30781F760E071E00E948F078BE08E
:1003500067E00E944D008AE06FE00E944D0001E0DE
:10036000802F60E00E944D000F5F0930C9F78CE0DC
:1003700061E00E944D008FE060E00E944D0088E047
:100380006CE040E020E000E00E94890080E892E01C
:1003900020E931E0F9013197F1F70197D9F78AE0C7
:1003A0006DE00E944D0088E062E140E020E000E066
:1003B0000E94890087E06CE040E020E00E94890014
:1003C00080E892E020E931E0F9013197F1F70197F7
:1003D000D9F78AE06BE00E944D0088E061E240E0DE
:1003E00020E000E00E94890087E062E140E020E038
:1003F0000E94890086E06CE040E020E00E948900D5
:1004000080E892E020E931E0F9013197F1F70197B6
:10041000D9F78AE069E00E944D0088E060E440E09E
:1004200020E000E00E94890087E060E440E020E0F6
:100430000E94890086E061E240E020E00E9489009D
:1004400085E06EE140E020E00E94890080E892E0D3
:1004500020E931E0F9013197F1F70197D9F78AE006
:1004600067E00E944D0088E060E040E021E000E0AD
:100470000E94890087E060E040E021E00E9489005E
:1004800086E060E040E021E00E94890085E060E8CD
:1004900040E020E00E94890084E060E440E020E049
:1004A0000E94890083E061E240E020E00E94890030
:1004B00082E06EE140E020E00E94890080E892E066
:1004C00020E931E0F9013197F1F70197D9F78AE096
:1004D00065E00E944D0088E060E040EC20E100E033
:1004E0000E94890087E060E048E320E10E948900E3
:1004F00086E060E047E028E00E94890085E060E057
:1005000040E028E00E94890084E060E040E024E0D0
:100510000E94890083E060E040E024E00E948900BE
:1005200082E060E040E022E00E94890081E060E03B
:1005300040E021E00E94890080E892E020E931E07B
:10054000F9013197F1F70197D9F78AE063E00E944A
:100550004D0088E060E040E020E800E20E94890071
:1005600087E060E040E020E800E10E94890086E04A
:1005700060E040E020E80E94890085E060E040E023
:1005800020E808E00E94890084E060E040E020E488
:1005900006E00E94890083E060E040E820E401E09A
:1005A0000E94890082E060E040E720E400E00E94D1
:1005B000890081E060E04FE020E20E94890080E84D
:1005C00092E020E931E0F9013197F1F70197D9F78D
:1005D0008AE061E00E944D0088E060E040E020E0B9
:1005E00000E00E94890087E060E040E020E00E9497
:1005F000890086E060E040E020E00E94890085E01C
:1006000060E040E020E00E94890084E060E040E09B
:1006100020E000E80E94890083E060E040E020E004
:100620000E94890082E060E040E020E000E40E9457
:10063000890081E060E040E020E000E30E94890062
:1006400080E892E020E931E0F9013197F1F7019774
:10065000D9F701E0802F60E00E944D000F5F093064
:10066000C9F78AE06FE00E944D00FE01E75BFF4F93
:10067000CF010A961192E817F907E1F79E012F5E64
:100680003F4F80E090E0AE01475F5F4F0BC011929B
:10069000E217F307E1F701969F01285F3F4F84308F
:1006A000910549F0FC0163E0EE0FFF1F6A95E1F749
:1006B000E40FF51FECCF109214031092320480E087
:1006C00090E0FC01E75DFB4F1082FC01EA5EFC4F0D
:1006D0001082FC01E05EFB4F10820196883091058C
:1006E00081F70E94CE06F999FECF81E090E092BD9D
:1006F00081BDF89A80B5809331048FEF80933104E7
:1007000084B5856084BD80916E00826080936E00A8
:100710008FE087BD1092800080918100846080937B
:10072000810080916F00826080936F0085E090E08F
:1007300090938900809388007894DD2488248394A2
:100740009924C357DF4F1882CD58D04041E0CC24C4
:10075000772429E4A22EB12CAC0EBD1E91E0292EE7
:10076000312C2E010894411C511CF5013396C257BF
:10077000DF4FF983E883CE58D040442341F1349BC6
:1007800002C041E015C08CE061E00E944D0010E025
:10079000E12C8DE7F82E612F669566958AE00E9420
:1007A0004D00C7010197F1F71F5F1034A1F740E03A
:1007B00086EF99E020E931E0F9013197F1F70197EF
:1007C000D9F780916E00826080936E00D6CF1BB8FF
:1007D0001AB8C357DF4FF881CD58D040F93210F026
:1007E000DD240BC0C357DF4F2881CD58D0402F5F89
:1007F000C357DF4F2883CD58D040662400C24398AA
:1008000085E08A95F1F789B1F501ED0DF11D808341
:10081000DD2089F4D5019C90E92DF0E0ED5FFE4FDD
:10082000E081EE2349F0DD24D394C357DF4F1882D3
:10083000CD58D04002C0D394E82DDE1609F0DCC1BB
:100840009920E1F580913204E82FF0E0E25EFC4F60
:1008500010828F5FE82FF0E0E25EFC4FB1E0B083E2
:100860008F5FE82FF0E0E25EFC4F10828F5FE82F91
:10087000F0E0E25EFC4F10828F5FE82FF0E0E25E76
:10088000FC4F22E020838F5FE82FF0E0E25EFC4F18
:1008900010828F5FE82FF0E0E25EFC4F10828F5FE6
:1008A000E82FF0E0E25EFC4F35E030838F5FE82F09
:1008B000F0E0E25EFC4F48E0408339C051E095161D
:1008C000F9F480913204E82FF0E0E25EFC4F908270
:1008D000282F2F5F20933204922FDE019996E92F63
:1008E000F0E0E25EFC4F8D9180839F5FC557DF4F44
:1008F000E881F981CB58D040AE17BF0781F74AC2D3
:10090000F5E09F16C1F480913204E82FF0E0E25E3A
:10091000FC4F23E020838F5FE82FF0E0E25EFC4F86
:1009200010828F5FE82FF0E0E25EFC4F10828F5F55
:10093000809332045FC130E1931641F5D5011196E1
:100940003C91119712968C91E82FE695E695E695E5
:10095000EE0F232F269526952695E20FF0E0309591
:10096000377003E0EE0FFF1F0A95E1F7E40DF51D68
:10097000E30FF11D8770910102C0220F331F8A958A
:10098000E2F7C90180952085822328C031E19316C2
:1009900041F5D50111969C91119712962C91E22F59
:1009A000E695E695E695EE0F892F869586958695D0
:1009B000E80FF0E09095977013E0EE0FFF1F1A9587
:1009C000E1F7E40DF51DE90FF11D2770A10102C04B
:1009D000440F551F2A95E2F78085842B8087C394A6
:1009E00009C152E19516F1F49E012F5E3F4F80E060
:1009F00090E00BC01192E217F307E1F701969F0117
:100A0000285F3F4F8430910551F3FC01B3E0EE0FB6
:100A1000FF1FBA95E1F7A9E0B0E0AC0FBD1FEA0FE8
:100A2000FB1FE8CFB3E19B16F9F49E012F5E3F4F09
:100A300080E090E00CC04FEF4193E217F307D9F745
:100A400001969F01285F3F4F8430910541F2FC01E0
:100A5000A3E0EE0FFF1FAA95E1F7A9E0B0E0AC0F0D
:100A6000BD1FEA0FFB1FE7CFB4E19B1609F04FC093
:100A7000F5019281969596959695990F8181869527
:100A800086958695980FC257DF4FA881B981CE58B9
:100A9000D04060E070E0492F50E0E3E0440F551F84
:100AA000EA95E1F729E030E02C0F3D1F420F531F7C
:100AB000C101062E02C0880F991F0A94E2F7E82EA2
:100AC000EC91F0E0ED5EFD4F8081082F10E0FA011F
:100AD00020E030E0FE2CF094C801022E02C0959573
:100AE00087950A94E2F7908180FF02C09E2901C099
:100AF0009F2190832F5F3F4F31962830310561F75A
:100B00006F5F7F4F11966830710591F668CF36E1BF
:100B1000931611F5D50111962C911197822F90E023
:100B200080959095877090701296EC911297E6954B
:100B3000E695E695EE0F269526952695E20FF0E0D0
:100B400073E0EE0FFF1F7A95E1F7E40DF51DE80F56
:100B5000F91F13968C9142CFB5E19B1609F040C066
:100B6000F5019281892F8770522D01C0550F8A950A
:100B7000EAF7E381F0E0ED5EFD4FE0819695969512
:100B80009695990FD50111968C91869586958695A7
:100B9000980FA92FB0E063E0AA0FBB1F6A95E1F799
:100BA00029E030E02C0F3D1FA20FB31F20E030E002
:100BB000452F4095C101022E02C0880F991F0A944B
:100BC000E2F78E239C91882311F0952B01C094238A
:100BD0009C932F5F3F4F11962830310559F7FFCE78
:100BE00037E1931639F4D50111966C916F708AE054
:100BF0000E944D00DD24E0E06394439A8E2E3199EB
:100C000004C0B4E16B1609F0FACDCC20A9F049E09C
:100C1000E42EF12CEC0EFD1E10E01F5F812FF7017A
:100C2000608140852089008D0E9489000894E11C24
:100C3000F11C183091F7CC2480912804882309F402
:100C40003FC0109228041BB8FFEFFAB9872D90E03F
:100C5000DC01AC5CBB4FFC01EC58FA4F20812C93BB
:100C6000FC013896DF01AC58BA4F2C91EC5CFB4F7D
:100C70002083FC017096DF01AC58BA4F2C91EC5CDC
:100C8000FB4F20834896FC01EC58FA4F20818C5C86
:100C90009B4FDC012C938AE08A95F1F7779A85E0E7
:100CA0008A95F1F780E0769A76988F5F8830D9F749
:100CB00077987394B7E07B22872D8295807F85B9E2
:100CC000F89420E030E0D901A75DBB4F8C91F20190
:100CD000E20FF31F80838C9183708C932F5F3F4FC3
:100CE0002830310581F7789450913204D20120E008
:100CF00030E070E54C91459545954C934423A1F027
:100D00008091310490E0022E02C0959587950A9457
:100D1000E2F780FF09C0852F90E0FC01E25EFC4F06
:100D20007083218342835D5F2F5F3F4F1196283090
:100D3000310501F7509332041BB8EFEFEAB99091F7
:100D4000140309C0429AE92FF0E0E25EFC4F808173
:100D50008BB942989F5F9517A9F790931403349B22
:100D600036CD10926E001FE030E9E32E31E0F32E15
:100D70008AE0612F0E944D0080E892E0F7013197F0
:100D8000F1F70197D9F7115098F78CE060E00E94D5
:100D90004D00F5CC205E209332042CCF80E090E013
:100DA000FC01EC58FA4F1082FC01EC5CFB4F108206
:100DB000FC01EC5AFA4F1082FC01EC56FA4F1082FB
:100DC00001968032910561F708951F93CF93DF93C9
:100DD000A82FB0E0FD01EC58FA4F108170E0FD0142
:100DE000EC5CFB4F8081812790E0062E02C0959538
:100DF00087950A94E2F7AC014170507080FF32C0D1
:100E0000FD01EC5AFA4F2081822F812790E0062EB7
:100E100002C0959587950A94E2F780FF23C0812F41
:100E200090E0062E02C0959587950A94E2F780FF20
:100E30000DC081E090E002C0880F991F6A95E2F72B
:100E4000AC56BA4F8C93282B208349C093E0AA0F4D
:100E5000BB1F9A95E1F7A60FB71FAC5ABB4F84E0B2
:100E60008C933DC0452BD9F5ED01CC5ADA4F488122
:100E7000842F812790E0062E02C0959587950A94CD
:100E8000E2F780FF2CC0FD0183E0EE0FFF1F8A9583
:100E9000E1F7E60FF71FEC5AFB4F80818823F9F04A
:100EA000815080838823D9F421E030E0062E02C0EF
:100EB000220F331F0A94E2F7AC56BA4F2C93812FBE
:100EC00090E002C0959587956A95E2F780FF03C090
:100ED000422B488304C0822F809584238883DF912E
:100EE000CF911F9108952F923F924F925F926F92F0
:100EF0007F928F929F92AF92BF92CF92DF92EF92AA
:100F0000FF920F931F93CF93DF93CDB7DEB7CA1B2A
:100F1000DB0B0FB6F894DEBF0FBECDBF0994FB010B
:100F2000DC0101900D920020E1F70895F894FFCFC5
:100F30006D6B0001012101040103010300000000A9
:100F4000000001030301010B040402000000000083
:100F50000000000000000000000000000000000091
:100F60000000000000000000000000000000000081
:100F70000000000000000000000000000000000071
:100F80000000000000000000000000000000000061
:100F90000000000000000000000000000000000051
:100FA0000000000000000000000000000000000041
:100FB0000000000000000000000000000000000031
:100FC0000000000000000000000000000000000021
:100FD0000000000000000000000000000000000011
:100FE0000000000000000000000000000000000001
:100FF00000000000000000000000000000000000F1
:1010000000000000000000000000000000000000E0
:1010100000000000000000000000000000000000D0
:1010200000000000000000000000000000000000C0
:101030000000000001FF00FF000001010000FF00B0
:10104000FF0100008040C020A060E0109050D03030
:10105000B070F0088848C828A868E8189858D838A8
:10106000B878F8048444C424A464E4149454D434B4
:10107000B474F40C8C4CCC2CAC6CEC1C9C5CDC3C48
:10108000BC7CFC028242C222A262E2129252D232A2
:10109000B272F20A8A4ACA2AAA6AEA1A9A5ADA3A48
:1010A000BA7AFA068646C626A666E6169656D63654
:1010B000B676F60E8E4ECE2EAE6EEE1E9E5EDE3EE8
:1010C000BE7EFE018141C121A161E1119151D13169
:1010D000B171F1098949C929A969E9199959D93918
:1010E000B979F9058545C525A565E5159555D53524
:1010F000B575F50D8D4DCD2DAD6DED1D9D5DDD3DB8
:10110000BD7DFD038343C323A363E3139353D33311
:10111000B373F30B8B4BCB2BAB6BEB1B9B5BDB3BB7
:10112000BB7BFB078747C727A767E7179757D737C3
:10113000B777F70F8F4FCF2FAF6FEF1F9F5FDF3F57
:04114000BF7FFF006E
:00000001FF
