:107C0000F8948FEF98E09EBF8DBF112484B714BE07
:107C100081FFC2D080E0BAD01AB81BB818B88CE087
:107C200087B9A3E0EA2EDD24D394F1E1FF2EA1D0A1
:107C3000813421F481E0B9D083E024C0823411F48E
:107C400084E103C0853419F485E0AFD086C0853562
:107C5000A1F48FD0082F10E01093010200930002CE
:107C600088D090E0982F8827802B912B880F991F20
:107C700090930102809300026FC0863529F484E05E
:107C800094D080E06DD069C0843609F043C079D0CB
:107C9000E0910002F0910102E0925700E895C0E007
:107CA000D1E067D0899380910202815080930202D3
:107CB0008823B9F774D007B600FCFDCF40910002CD
:107CC00050910102A0E0B1E02C9130E011968C912E
:107CD000119790E0982F8827822B932B1296FA0108
:107CE0000C01D0925700E89511244E5F5F4FF1E0F0
:107CF000A038BF0749F7E0910002F091010285E04A
:107D000080935700E89507B600FCFDCFF09257002E
:107D1000E89523C08437B9F434D041D0E091000213
:107D2000F09101023196F0930102E0930002319745
:107D3000E4918E2F15D0809102028150809302022F
:107D4000882361F70AC0853739F429D08EE108D03D
:107D500085E906D085E096CF22D080E101D067CFBB
:107D6000982F8FEF8AB93099FECF429A9BB94298EB
:107D700008951BB81AB83199FECF439A89B1439838
:107D80000895F7DFF6DF80930202F3CFE0E6F0E03C
:107D900098E1908380830895EE27FF270994E9DF17
:107DA000803209F0F9DF84E1DBCF1F93182FE1DF88
:0A7DB0001150E9F7F4DF1F91089568
:0400000300007C007D
:00000001FF
