:100000000C942E000C944B000C944B000C944B0061
:100010000C944B000C944B000C944B000C944B0034
:100020000C944B000C944B000C94F7000C944B0078
:100030000C944B000C944B000C944B000C944B0014
:100040000C944B000C944B000C944B000C944B0004
:100050000C944B000C944B000C944B0011241FBECD
:10006000CFEFD8E0DEBFCDBF13E0A0E0B1E0E8E81D
:10007000F2E102C005900D92A430B107D9F714E067
:10008000A4E0B3E001C01D92A638B107E1F70E94D9
:1000900007010C9442090C940000719827E030E0AD
:1000A000482F552747FD5095CA01022E02C095954D
:1000B00087950A94E2F780FF03C08EB18C6302C07B
:1000C0008EB1837C8EB9709A7098215030408FEF3A
:1000D0002F3F380749F727E030E0772767FD709515
:1000E000CB01022E02C0959587950A94E2F780FF16
:1000F00003C08EB18C6302C08EB1837C8EB9709ABE
:100100007098215030408FEF2F3F380749F7719A90
:1001100008950F93CF93DF937198E7E0F0E0A82F55
:10012000BB27A7FDB095CD010E2E02C095958795F2
:100130000A94E2F780FF03C08EB18C6302C08EB1D7
:10014000837C8EB9709A709831978FEFEF3FF807E4
:1001500051F7E7E0F0E0C62FDD27C7FDD095642F0B
:10016000772767FD7095422F552747FD5095A02FA3
:10017000BB27A7FDB0953E2FCE010E2E02C0959550
:1001800087950A94E2F780FF02C0759A01C07598BE
:10019000CB01032E02C0959587950A94E2F780FF64
:1001A00002C0749A01C07498CA01032E02C09595CA
:1001B00087950A94E2F780FF02C0739A01C0739892
:1001C000CD0102C0959587953A95E2F780FF02C070
:1001D000729A01C07298709A709831978FEFEF3FC2
:1001E000F80749F6719ADF91CF910F9108951F9208
:1001F0000F920FB60F9211248F9381E08093040326
:1002000016BC8F910F900FBE0F901F901895AFEAFC
:10021000B1E0EDE0F1E00C941F099FEF9DB980E79C
:1002200084B98CE087B91AB81EB815B81BB811B8D4
:1002300010BA92B991BB9E012F5D3F4FCD55DE4F55
:1002400039832883C35AD140C90121E230E02C0F01
:100250003D1F205E3F4FCD55DE4FA881B981C35A67
:10026000D1401D92CD55DE4FB983A883C35AD140EA
:10027000A217B30781F760E071E00E943B098BE0B1
:1002800067E00E944D008AE06FE00E944D0001E0AF
:10029000802F60E00E944D000F5F0930C9F78CE0AD
:1002A00061E00E944D008FE060E00E944D0088E018
:1002B0006CE040E020E000E00E94890080E892E0ED
:1002C00020E931E0F9013197F1F70197D9F78AE098
:1002D0006DE00E944D0088E062E140E020E000E037
:1002E0000E94890087E06CE040E020E00E948900E5
:1002F00080E892E020E931E0F9013197F1F70197C8
:10030000D9F78AE06BE00E944D0088E061E240E0AE
:1003100020E000E00E94890087E062E140E020E008
:100320000E94890086E06CE040E020E00E948900A5
:1003300080E892E020E931E0F9013197F1F7019787
:10034000D9F78AE069E00E944D0088E060E440E06F
:1003500020E000E00E94890087E060E440E020E0C7
:100360000E94890086E061E240E020E00E9489006E
:1003700085E06EE140E020E00E94890080E892E0A4
:1003800020E931E0F9013197F1F70197D9F78AE0D7
:1003900067E00E944D0088E060E040E021E000E07E
:1003A0000E94890087E060E040E021E00E9489002F
:1003B00086E060E040E021E00E94890085E060E89E
:1003C00040E020E00E94890084E060E440E020E01A
:1003D0000E94890083E061E240E020E00E94890001
:1003E00082E06EE140E020E00E94890080E892E037
:1003F00020E931E0F9013197F1F70197D9F78AE067
:1004000065E00E944D0088E060E040EC20E100E003
:100410000E94890087E060E048E320E10E948900B3
:1004200086E060E047E028E00E94890085E060E027
:1004300040E028E00E94890084E060E040E024E0A1
:100440000E94890083E060E040E024E00E9489008F
:1004500082E060E040E022E00E94890081E060E00C
:1004600040E021E00E94890080E892E020E931E04C
:10047000F9013197F1F70197D9F78AE063E00E941B
:100480004D0088E060E040E020E800E20E94890042
:1004900087E060E040E020E800E10E94890086E01B
:1004A00060E040E020E80E94890085E060E040E0F4
:1004B00020E808E00E94890084E060E040E020E459
:1004C00006E00E94890083E060E040E820E401E06B
:1004D0000E94890082E060E040E720E400E00E94A2
:1004E000890081E060E04FE020E20E94890080E81E
:1004F00092E020E931E0F9013197F1F70197D9F75E
:100500008AE061E00E944D0088E060E040E020E089
:1005100000E00E94890087E060E040E020E00E9467
:10052000890086E060E040E020E00E94890085E0EC
:1005300060E040E020E00E94890084E060E040E06C
:1005400020E000E80E94890083E060E040E020E0D5
:100550000E94890082E060E040E020E000E40E9428
:10056000890081E060E040E020E000E30E94890033
:1005700080E892E020E931E0F9013197F1F7019745
:10058000D9F701E0802F60E00E944D000F5F093035
:10059000C9F78AE06FE00E944D00FE01EF59FF4F5E
:1005A000CF010A961192E817F907E1F79E01275F3C
:1005B0003F4F80E090E0AE014F5F5F4F0BC0119264
:1005C000E217F307E1F701969F01285F3F4F843060
:1005D000910549F0FC0163E0EE0FFF1F6A95E1F71A
:1005E000E40FF51FECCF0E947A0884B5856084BDC6
:1005F00080916E00826080936E008FE087BD78945A
:10060000CC24B1E0C655DE4FB883CA5AD140C75595
:10061000DE4F1882C95AD140C855DE4F1882C85AD9
:10062000D14041E05524C955DE4F1882C75AD14008
:10063000CA55DE4F1882C65AD140CB55DE4F1882BC
:10064000C55AD14091E6892E912C8C0E9D1EF40145
:100650003B96C255DE4FF983E883CE5AD14083EAF8
:10066000282E312C2C0E3D1E442341F1349B02C018
:1006700041E015C08CE061E00E944D0010E0E12CEB
:100680000DE7F02E612F669566958AE00E944D0079
:10069000C7010197F1F71F5F1034A1F740E086EF23
:1006A00099E020E931E0F9013197F1F70197D9F7A5
:1006B00080916E00826080936E00D6CF11E0A12EF3
:1006C000B12C94012D5F3F4FC455DE4F39832883F1
:1006D000CC5AD1401BB81AB8C855DE4F3881C85A19
:1006E000D140393210F0CC240BC0C855DE4F4881C0
:1006F000C85AD1404F5FC855DE4F4883C85AD140D1
:10070000DD2477247394B7E0EB2EF12CACC343982F
:1007100085E08A95F1F789B1F401EC0DF11D808334
:10072000CC20B1F4D401BC91C755DE4FB883C95A6F
:10073000D140EB2FF0E0ED5FFE4FE081EE2349F07A
:10074000CC24C394C855DE4F1882C85AD14006C085
:10075000C394C655DE4FE881CA5AD140CE1609F07F
:100760007BC3C755DE4FE881C95AD140EE2329F536
:10077000F101CA55DE4F2881C65AD140E20FF11D62
:100780001082822F8F5FF101E80FF11D70828F5F61
:10079000F101E80FF11D70828F5FF101E80FF11D8B
:1007A00010828F5FF101E80FF11D92E090838F5F5F
:1007B000F101E80FF11D708242C0C755DE4F38814C
:1007C000C95AD1403130F1F4F101CA55DE4F4881A8
:1007D000C65AD140E40FF11D3083242F2F5F922F92
:1007E000DE019196F101E90FF11D8D9180839F5FEC
:1007F000CD55DE4FE881F981C35AD140AE17BF070E
:1008000089F771C4C755DE4FF881C95AD140F53018
:10081000E9F4F101CA55DE4F2881C65AD140E20FF2
:10082000F11D83E08083822F8F5FF101E80FF11DBE
:1008300098E090838F5FF101E80FF11D90838F5F47
:10084000CA55DE4F8883C65AD14004C3C755DE4F10
:100850003881C95AD140303109F05CC0D4011196B9
:100860008C91119712962C91322F3695369536959C
:10087000330F982F969596959695390F809587709A
:100880002770332351F4F701E21BF10921E030E036
:100890002C0F3D1FE20FF31F32C03130A1F4F701DE
:1008A000E81BF10989E090E08C0F9D1FE80FF91F0C
:1008B000C701821B9109D50102C0AA0FBB1F8A95EF
:1008C000E2F7CD0123C0323069F4E1E1F0E0EC0F52
:1008D000FD1FE80FF11DC50102C0880F991F2A9561
:1008E000E2F714C0333009F0A6C2E9E1F0E0EC0F02
:1008F000FD1FE20FF11D9701281B3109C901A50158
:1009000002C0440F551F8A95E2F7CA0180952081E5
:10091000822390C2C755DE4F5881C95AD140513108
:1009200009F065C0D40111968C91119712962C9103
:10093000322F369536953695330F982F9695969596
:100940009695390F809587702770332381F4F701CE
:10095000E21BF10921E030E02C0F3D1FE20FF31FF5
:10096000950102C0220F331F8A95E2F725C031306E
:10097000A1F4F701E81BF10949E050E04C0F5D1FBD
:10098000E40FF51FC701821B9109D50102C0AA0F10
:10099000BB1F8A95E2F7CD0126C0323081F4E1E138
:1009A000F0E0EC0FFD1FE80FF11DA50102C0440FA0
:1009B000551F2A95E2F79A018081822B3BC2333082
:1009C00009F039C2E9E1F0E0EC0FFD1FE20FF11D83
:1009D000D701A81BB10995010A2E02C0220F331FAF
:1009E0000A94E2F7C9012081282B208324C2C7552D
:1009F000DE4F3881C95AD1403231F9F49E01275F68
:100A00003F4F80E090E00CC01192E217F307E1F74E
:100A100001969F01285F3F4F8430910509F40BC276
:100A2000FC01A3E0EE0FFF1FAA95E1F741E050E0C3
:100A30004C0F5D1FE40FF51FE7CFC755DE4F588100
:100A4000C95AD140533101F59E01275F3F4F80E0E5
:100A500090E00DC0AFEFA193E217F307D9F701962D
:100A60009F01285F3F4F8430910509F4E4C1FC01E8
:100A700073E0EE0FFF1F7A95E1F741E050E04C0F75
:100A80005D1FE40FF51FE6CFC755DE4F5881C95AE9
:100A9000D140543109F0B8C0D40112969C911297FC
:100AA000969596959695990F11968C918695869523
:100AB0008695980FE1F4C455DE4F28813981CC5AD0
:100AC000D140DE011896F90181919F01E82FF0E0F5
:100AD000ED5FFD4F80818C931197C255DE4F4881A9
:100AE0005981CE5AD1402417350769F7A4C19130F6
:100AF000D1F5C455DE4FA881B981CC5AD14047E029
:100B000050E0C501042E02C0880F991F0A94E2F735
:100B1000182F8C91682F70E0FE01399620E030E0AC
:100B2000012F0095CB01022E02C0959587950A945E
:100B3000E2F7908180FF02C0912B01C09023908347
:100B40002F5F3F4F31962830310561F741505040BB
:100B50001196C255DE4F88819981CE5AD140A8178F
:100B6000B90779F668C19230C1F5C455DE4FA88146
:100B7000B981CC5AD14040E050E0C501042E02C0FA
:100B8000880F991F0A94E2F7082FEC91F0E0ED5FCF
:100B9000FD4F8081682F70E0FE01719620E030E00B
:100BA000102F1095CB01022E02C0959587950A94BF
:100BB000E2F7908180FF02C0902B01C091239083C7
:100BC0002F5F3F4F31962830310561F74F5F5F4F00
:100BD00011964830510589F62EC1933009F02BC18A
:100BE000C455DE4FE881F981CC5AD140DE015996D7
:100BF00081918D93C255DE4F28813981CE5AD140E3
:100C0000E217F307A9F717C1C755DE4F3881C95A54
:100C1000D140363109F082C0D40111969C911197D0
:100C200012962C911297269526952695220F892F9C
:100C3000869586958695280F9770222359F51396E9
:100C4000EC91F0E0ED5FFD4FE0819701291B310948
:100C5000A50102C0440F551F2A95E2F7542F509565
:100C6000DE01119620E030E0C501022E02C0880F9F
:100C7000991F0A94E2F78E239C91882311F0942BFC
:100C800001C095239C932F5F3F4F1196283031056B
:100C900059F7D1C0213079F429E030E02C0F3D1F05
:100CA000290F311DF401A381B0E0AD5FBD4F8C91E0
:100CB000D9018C93C0C0223059F4E7E1F0E0E91B80
:100CC000F10921E030E02C0F3D1FE20FF31FAFC010
:100CD000233009F0B0C0F40163814A2D01C0440FF4
:100CE0009A95EAF7542F5095FE01799620E030E06E
:100CF000C501022E02C0880F991F0A94E2F78623CD
:100D00009081882311F0942B01C0952390832F5F4D
:100D10003F4F31962830310559F78DC0C755DE4F0A
:100D2000F881C95AD140F53109F087C0D401129633
:100D30009C911297292F269526952695220F11967C
:100D40008C911197869586958695280F977022230A
:100D500089F4F701E91BF10921E030E02C0F3D1F78
:100D6000E20FF31F13968C91A82FB0E0AD5FBD4F3B
:100D70008C9160C0213049F5D40113966C91F70134
:100D8000E91BF109950102C0220F331FEA95E2F732
:100D9000422F522F5095FE01399620E030E0C501D8
:100DA000022E02C0880F991F0A94E2F786239081D1
:100DB000882311F0942B01C0952390832F5F3F4F20
:100DC00031962830310559F736C0223041F5D4012B
:100DD0001396EC91F0E0ED5FFD4FE0814A2D01C0EC
:100DE000440F9A95EAF7542F5095DE01519620E072
:100DF00030E0C501022E02C0880F991F0A94E2F765
:100E00008E239C91882311F0942B01C095239C93F1
:100E10002F5F3F4F11962830310559F70CC0233012
:100E200051F4E9E1F0E0EC0FFD1FE90FF11DD401F1
:100E300013968C91808353940DC0C755DE4FB881B3
:100E4000C95AD140B73131F4F40161816F708AE041
:100E50000E944D00CC24E0E0D394439AC655DE4F67
:100E6000E883CA5AD140319904C0F4E1DF1609F091
:100E70004ECC5520C9F07E010894E11CF11C10E015
:100E80001F5F812FD7016C9118964C91189750963F
:100E90002C91509758960C910E9489000894E11C5F
:100EA000F11C183069F7552480910403882309F454
:100EB000CEC0109204031BB8BFEFBAB9C955DE4FBC
:100EC000E881C75AD1402E2F30E0F901EA5FFC4F8C
:100ED000A9014A5B5B4FDA018C918083F901389656
:100EE000DF01AA5BBB4F8C91EA5FFC4F8083F90165
:100EF0007096DF01AA5BBB4F8C91EA5FFC4F808349
:100F0000F9017896DF01AA5BBB4F8C91EA5FFC4F39
:100F100080838AE08A95F1F7779A85E08A95F1F7E0
:100F200000E010E067E0D62E7A0146E6642E44E049
:100F3000742E620E731EBD2DC955DE4FE881C75A4F
:100F4000D140BE1BC555DE4FB883CB5AD140602F70
:100F500083B190E023E0969587952A95E1F74424A4
:100F60004394482280FD0CC09501002E02C0220F40
:100F7000331F0A94E2F7D7018C91822B8C930CC01B
:100F8000C501002E02C0880F991F0A94E2F78095D0
:100F9000F701208182238083C955DE4F8881C75A9B
:100FA000D1400E949108D3013C91832F90E0002E04
:100FB00002C0959587950A94E2F780FF2EC0C5017F
:100FC000002E02C0880F991F0A94E2F780958323B0
:100FD0008C93442011F080E201C081E2F101CA55F6
:100FE000DE4FB881C65AD140EB0FF11D80838B2FA5
:100FF0008F5FF101E80FF11DD0828F5FF101E80FE3
:10100000F11DC555DE4F2881CB5AD14020838F5F1B
:10101000CA55DE4F8883C65AD140769A76980F5FBC
:101020001F4FDA943FEFD31609F091CF7798C95547
:10103000DE4F4881C75AD1404F5F4770C955DE4FD8
:101040004883C75AD140842F8295807F85B91BB8C9
:101050005FEF5AB917C0429AF101CB55DE4F888134
:10106000C55AD140E80FF11D80818BB94298CB550C
:10107000DE4F9881C55AD1409F5FCB55DE4F988394
:10108000C55AD140CB55DE4FA881C55AD140CA556B
:10109000DE4FB881C65AD140AB17E9F6349B1ACB64
:1010A00010926E001FE080E9E82E81E0F82E8AE0C1
:1010B000612F0E944D0080E892E0F7013197F1F72F
:1010C0000197D9F7115098F78CE060E00E944D002D
:1010D000CA55DE4FE881C65AD140CB55DE4FE88372
:1010E000C55AD140C3CA205ECA55DE4F2883C65AAE
:1010F000D140B0CE80E090E0FC01EA5BFB4F108273
:10110000FC01EA5FFC4F1082FC01EA5DFB4F10829C
:10111000FC01EA59FB4F108201968032910561F77C
:1011200008951F93CF93DF93A82FB0E0FD01EA5BF2
:10113000FB4F108170E0FD01EA5FFC4F8081812749
:1011400090E0062E02C0959587950A94E2F7AC01CF
:101150004170507080FF32C0FD01EA5DFB4F20817D
:10116000822F812790E0062E02C0959587950A94DC
:10117000E2F780FF23C0812F90E0062E02C09595F4
:1011800087950A94E2F780FF0DC081E090E002C0ED
:10119000880F991F6A95E2F7AA59BB4F8C93282BA9
:1011A000208349C093E0AA0FBB1F9A95E1F7A60FD1
:1011B000B71FAA5DBC4F88E08C933DC0452BD9F585
:1011C000ED01CA5DDB4F4881842F812790E0062E18
:1011D00002C0959587950A94E2F780FF2CC0FD0127
:1011E00083E0EE0FFF1F8A95E1F7E60FF71FEA5D38
:1011F000FC4F80818823F9F0815080838823D9F4C3
:1012000021E030E0062E02C0220F331F0A94E2F7DD
:10121000AA59BB4F2C93812F90E002C095958795DA
:101220006A95E2F780FF03C0422B488304C0822FF7
:10123000809584238883DF91CF911F9108952F9209
:101240003F924F925F926F927F928F929F92AF9256
:10125000BF92CF92DF92EF92FF920F931F93CF93A3
:10126000DF93CDB7DEB7CA1BDB0B0FB6F894DEBF3A
:101270000FBECDBF0994FB01DC0101900D9200204F
:08128000E1F70895F894FFCF97
:101288006D6B00010121010401030103000000004E
:10129800000001030301010B040402000000000028
:1012A8000000000000000000000000000000000036
:1012B8000000000000000000000000000000000026
:1012C8000000000000000000000000000000000016
:1012D8000000000000000000000000000000000006
:1012E80000000000000000000000000000000000F6
:1012F80000000000000000000000000000000000E6
:1013080000000000000000000000000000000000D5
:1013180000000000000000000000000000000000C5
:1013280000000000000000000000000000000000B5
:1013380000000000000000000000000000000000A5
:101348000000000000000000000000000000000095
:101358000000000000000000000000000000000085
:101368000000000000000000000000000000000075
:101378000000000000000000000000000000000065
:10138800000000008040C020A060E0109050D030E5
:10139800B070F0088848C828A868E8189858D8385D
:1013A800B878F8048444C424A464E4149454D43469
:1013B800B474F40C8C4CCC2CAC6CEC1C9C5CDC3CFD
:1013C800BC7CFC028242C222A262E2129252D23257
:1013D800B272F20A8A4ACA2AAA6AEA1A9A5ADA3AFD
:1013E800BA7AFA068646C626A666E6169656D63609
:1013F800B676F60E8E4ECE2EAE6EEE1E9E5EDE3E9D
:10140800BE7EFE018141C121A161E1119151D1311D
:10141800B171F1098949C929A969E9199959D939CC
:10142800B979F9058545C525A565E5159555D535D8
:10143800B575F50D8D4DCD2DAD6DED1D9D5DDD3D6C
:10144800BD7DFD038343C323A363E3139353D333C6
:10145800B373F30B8B4BCB2BAB6BEB1B9B5BDB3B6C
:10146800BB7BFB078747C727A767E7179757D73778
:10147800B777F70F8F4FCF2FAF6FEF1F9F5FDF3F0C
:04148800BF7FFF0023
:00000001FF
