:100000000C942E000C944B000C944B000C944B0061
:100010000C944B000C944B000C944B000C944B0034
:100020000C944B000C944B000C94E1000C944B008E
:100030000C944B000C944B000C944B000C944B0014
:100040000C944B000C944B000C944B000C944B0004
:100050000C944B000C944B000C944B0011241FBECD
:10006000CFEFD8E0DEBFCDBF13E0A0E0B1E0EEED12
:10007000F4E102C005900D92A430B107D9F724E055
:10008000A4E0B3E001C01D92A638B207E1F70E94D8
:100090008D010C946D0A0C940000719827E030E0FB
:1000A000992787FD9095AC01022E02C05595479582
:1000B0000A94E2F740FF03C04EB14C6302C04EB158
:1000C000437C4EB9709A70982150310960F787E0EF
:1000D00090E0772767FD70959B01082E02C035954B
:1000E00027950A94E2F720FF03C02EB12C6302C0CB
:1000F0002EB1237C2EB9709A7098019768F7719A87
:1001000008950F931F937198E7E0F0E0992787FD1A
:100110009095DC010E2E02C0B595A7950A94E2F7E2
:100120003EB1A0FF02C03C6301C0337C3EB9709A6F
:100130007098319770F787E090E0772767FD7095AA
:10014000552747FD5095332727FD3095112707FD8B
:100150001095E82FDB01082E02C0B595A7950A94EB
:10016000E2F7A0FF02C0759A01C07598DA010E2E61
:1001700002C0B595A7950A94E2F7A0FF02C0749A51
:1001800001C07498D9010E2E02C0B595A7950A94A6
:10019000E2F7A0FF02C0739A01C07398D80102C0B1
:1001A000B595A795EA95E2F7A0FF02C0729A01C043
:1001B0007298709A7098019760F6719A1F910F91DA
:1001C00008951F920F920FB60F9211248F9381E022
:1001D0008093040316BC8F910F900FBE0F901F9059
:1001E0001895CF93DF93E6E4F4E086E093E0C6E26F
:1001F000D4E046E654E01192DC011D92CD01199243
:10020000DA011D92AD01B4E0E636FB07A1F7DF91FC
:10021000CF9108951F93CF93DF9390E0FC01EA5BA9
:10022000FB4F7081C62FD0E0FC01EA5FFC4F2081BC
:10023000272730E0062E02C0359527950A94E2F76D
:10024000DC01AA5DBB4F1C9120FF2EC0E12FE727E8
:10025000F0E0062E02C0F595E7950A94E2F7E0FF7C
:1002600058C0472F50E0062E02C0559547950A9476
:10027000E2F740FF0CC021E030E0062E01C0220F63
:100280000A94EAF7FC01EA59FB4F20833DC0FC01C8
:1002900033E0EE0FFF1F3A95E1F7EC0FFD1FEA5D2B
:1002A000FC4F88E0808335C0412F472750E0062E61
:1002B00002C0559547950A94E2F740FF2AC0FC0119
:1002C00023E0EE0FFF1F2A95E1F7EC0FFD1FEA5D1B
:1002D000FC4F20812223E9F021502083211119C0F5
:1002E00021E030E0062E01C0220F0A94EAF7FC015B
:1002F000EA59FB4F2083872F90E002C095958795A0
:100300006A95E2F780FF02C0212B02C020952123CD
:100310002C93DF91CF911F910895A0ECB1E0E3E918
:10032000F1E00C944A0A8FEF8DB990E794B99CE004
:1003300097B91AB81EB815B81BB811B810BA82B957
:1003400081BB83E491E08C0F9D1F8096FE01ED5BE5
:10035000FE4F1192E817F907E1F760E073E0CE0174
:100360008D5B9E4F0E94660A67E08BE00E944D0005
:100370006FE08AE00E944D0011E060E0812F0E9452
:100380004D001F5F1930C9F761E08CE00E944D00FD
:1003900060E08FE00E944D0000E020E040E06CE073
:1003A00088E00E9481002FEF3FE183E02150304040
:1003B0008040E1F700C000006DE08AE00E944D003F
:1003C00020E040E062E188E00E94810020E040E01F
:1003D0006CE087E00E9481009FEFAFE1B3E09150B5
:1003E000A040B040E1F700C000006BE08AE00E944E
:1003F0004D0020E040E061E288E00E94810020E0C2
:1004000040E062E187E00E94810020E040E06CE093
:1004100086E00E948100EFEFFFE123E0E150F04031
:100420002040E1F700C0000069E08AE00E944D0032
:1004300020E040E060E488E00E94810020E040E0AD
:1004400060E487E00E94810020E040E061E286E015
:100450000E94810020E040E06EE185E00E94810082
:100460003FEF8FE193E0315080409040E1F700C0D2
:10047000000067E08AE00E944D0021E040E060E07B
:1004800088E00E94810021E040E060E087E00E9477
:10049000810021E040E060E086E00E94810020E0F1
:1004A00040E060E885E00E94810020E040E060E4F8
:1004B00084E00E94810020E040E061E283E00E944D
:1004C000810020E040E06EE182E00E948100AFEF19
:1004D000BFE1E3E0A150B040E040E1F700C0000020
:1004E00065E08AE00E944D0020E140EC60E088E099
:1004F0000E94810020E148E360E087E00E948100E3
:1005000028E047E060E086E00E94810028E040E0CB
:1005100060E085E00E94810024E040E060E084E04B
:100520000E94810024E040E060E083E00E948100BE
:1005300022E040E060E082E00E94810021E040E0B3
:1005400060E081E00E948100FFEF2FE133E0F15095
:1005500020403040E1F700C0000063E08AE00E94E4
:100560004D0000E220E840E060E088E00E94810069
:1005700000E120E840E060E087E00E94810020E8A0
:1005800040E060E086E00E94810008E020E840E072
:1005900060E085E00E94810006E020E440E060E049
:1005A00084E00E94810001E020E440E860E083E014
:1005B0000E94810000E020E440E760E082E00E94C9
:1005C000810020E24FE060E081E00E9481008FEF37
:1005D0009FE1A3E081509040A040E1F700C00000FF
:1005E00061E08AE00E944D0020E040E060E088E0A9
:1005F0000E94810020E040E060E087E00E948100EE
:1006000020E040E060E086E00E94810020E040E0E1
:1006100060E085E00E94810000E820E040E060E0CA
:1006200084E00E94810020E040E060E083E00E94DE
:10063000810000E420E040E060E082E00E94810070
:1006400000E320E040E060E081E00E948100BFEF35
:10065000EFE1F3E0B150E040F040E1F700C000000E
:1006600011E060E0812F0E944D001F5F1930C9F733
:100670006FE08AE00E944D00FE01EF5FFE4FCF0168
:100680000A961192E817F907E1F79E012D573E4FA0
:10069000CD55DE4F39832883C35AD140C901809696
:1006A000CF54DE4F99838883C15BD14080E090E0D6
:1006B000F901E80FF91F1082019688309105C1F702
:1006C000285F3F4FCF54DE4FA881B981C15BD14035
:1006D0002A173B0759F70E94F10084B5856084BD55
:1006E00080916E00826080936E0082E087BD789476
:1006F000212CB12CE12C31E0C855DE4F3883C85A8B
:10070000D140C955DE4F1882C75AD140F12C33244D
:100710003394A12C2E018DE7481A8EEF580AD2018E
:100720005096CB54DE4FB983A883C55BD140F2010C
:100730003896C355DE4FF983E883CD5AD14021E086
:1007400031E02C0F3D1F2D5F3F4FC155DE4F3983E8
:100750002883CF5AD140C855DE4F3881C85AD1407E
:100760003323B1F1349915C061E08CE00E944D0053
:1007700010E0612F669566958AE00E944D008FEF2C
:100780009CE70197F1F700C000001F5F103489F764
:1007900007C091E0C855DE4F9883C85AD14005C0C4
:1007A000C855DE4F1882C85AD140AFE7B3E7ECE036
:1007B000A150B040E040E1F700C0000080916E0021
:1007C000826080936E008B2DB22C2B2CB82EC3CF61
:1007D0001BB81AB8C955DE4F3881C75AD1403932D3
:1007E00038F43F5FC955DE4F3883C75AD14001C046
:1007F000A12C35E1C32ED12C01E010E0420188E1AB
:10080000880E911C319B03C0D11097C3C9C3CA94F1
:10081000D9F3439895E09A95F1F7000089B1E1E0AA
:10082000F1E0EC0FFD1FEA0DF11D8083A11015C052
:10083000CF5FDE4FF880C150D140EF2DF0E0E050A7
:10084000FE4F8081882351F0C955DE4F1882C75A68
:10085000D140382EAA24A39401C0A394A3106BC343
:10086000F1103CC0E1E0F0E0EC0FFD1FEB0DF11DDD
:10087000108281E08B0DE1E0F0E0EC0FFD1FE80F4E
:10088000F11D81E0808382E08B0DE1E0F0E0EC0F70
:10089000FD1FE80FF11D84E0808393E09B0DE1E0F4
:1008A000F0E0EC0FFD1FE90FF11D108294E09B0DAD
:1008B000E1E0F0E0EC0FFD1FE90FF11D92E0908305
:1008C00095E09B0DE1E0F0E0EC0FFD1FE90FF11D5D
:1008D0008083A6E0BA0EA12C312C2DC3B1E0FB120F
:1008E0001AC0E1E0F0E0EC0FFD1FEB0DF11DF0820E
:1008F00081E08B0D91E29B0DFE01ED5BFE4F21919E
:10090000A1E0B0E0AC0FBD1FA80FB11D2C938F5F0D
:100910008913F5CFBDC5E5E0FE121EC0E1E0F0E0B1
:10092000EC0FFD1FEB0DF11D83E0808381E08B0D4B
:10093000E1E0F0E0EC0FFD1FE80FF11D80E18083A6
:1009400092E09B0DE1E0F0E0EC0FFD1FE90FF11DDF
:100950008083F3E0BF0EEDC220E1F21267C0CE5FEC
:10096000DE4F2881C250D140CD5FDE4F3881C35069
:10097000D140832F869586958695880F922F9695E0
:1009800096959695890F209527703770811112C022
:10099000E7E0F0E0E31BF109E40DF51DC80102C03A
:1009A000880F991F2A95E2F79C01209580812823C2
:1009B0002083B1C28130A9F487E090E0FC01E21B02
:1009C000F109E40DF51D831B9109D80102C0AA0F9E
:1009D000BB1F8A95E2F7CD0180959085892380879A
:1009E0009AC2823071F4F201E20FF11DC801032EA8
:1009F00001C0880F0A94EAF7809590898923808B3B
:100A00008AC2833009F087C2F201E30FF11D87E04B
:100A100090E0821B9109980102C0220F331F8A9532
:100A2000E2F7C9018095908D892374C231E1F312F8
:100A300064C0CE5FDE4F2881C250D140CD5FDE4F13
:100A40003881C350D140832F869586958695880F2F
:100A5000922F969596959695890F209527703770C9
:100A6000811111C0E7E0F0E0E31BF109E40DF51D91
:100A7000C80102C0880F991F2A95E2F79C01808166
:100A8000822B808348C28130A1F487E090E0FC0192
:100A9000E21BF109E40DF51D831B9109D80102C089
:100AA000AA0FBB1F8A95E2F7CD019085982B9087FE
:100AB00032C2823069F4F201E20FF11DC801032E47
:100AC00001C0880F0A94EAF79089982B908B23C273
:100AD000833009F020C2F201E30FF11D87E090E0BE
:100AE000821B9109980102C0220F331F8A95E2F7F9
:100AF000C901908D982B908F0EC232E1F31219C06C
:100B00009E012D573E4F80E090E0F901E80FF91F5C
:100B10001082019688309105C1F7285F3F4FCF546E
:100B2000DE4F88819981C15BD1402817390759F779
:100B3000F2C193E1F9121AC09E012D573E4F4FEFBB
:100B400080E090E0F901E80FF91F408301968830BA
:100B50009105C1F7285F3F4FCF54DE4FA881B9817F
:100B6000C15BD1402A173B0759F7D5C1B4E1FB124D
:100B7000B8C0CD5FDE4F8881C350D1408695869541
:100B80008695880FCE5FDE4F9881C250D1409695F2
:100B900096959695890FF9F4C155DE4F8881998114
:100BA000CF5AD140C355DE4FE881F981CD5AD140AB
:100BB000DC012D91CD01A22FB0E0A050BF4F2C91B0
:100BC0002293CD55DE4F28813981C35AD140E21797
:100BD000F30771F7A0C1813099F5C155DE4FA881A7
:100BE000B981CF5AD14027E030E0B801022E01C0D0
:100BF000660F0A94EAF7A62E4D9150E0C355DE4FDA
:100C0000E881F981CD5AD14080E090E0762E709451
:100C1000BA01082E02C0759567950A94E2F760FF45
:100C200003C060816A2902C06081672160830196E8
:100C300031968830910561F721503109B0F66BC1CA
:100C40008230D1F5C155DE4FA881B981CF5AD1404C
:100C500020E030E0B801022E01C0660F0A94EAF7E6
:100C6000A62EED91F0E0E050FF4F808190E0CB5454
:100C7000DE4FE881F981C55BD14040E050E0762E3F
:100C80007094BC01042E02C0759567950A94E2F732
:100C900060FF03C060816A2902C0608167216083B0
:100CA0004F5F5F4F31964830510559F72F5F3F4FE7
:100CB0002830310579F62FC1833009F02CC1C15598
:100CC000DE4FE881F981CF5AD140D40181E091E033
:100CD0008C0F9D1F0B9621912D93E817F907D9F7DB
:100CE0001AC196E1F91286C0CE5FDE4F6881C2500C
:100CF000D140CD5FDE4F8881C350D1408695869527
:100D00008695880F962F969596959695890F67707C
:100D100081112BC0CC5FDE4FE881C450D140F0E0A0
:100D2000E050FF4F408187E090E0861B9109B801B9
:100D300001C0660F8A95EAF7562F6095F20180E0B0
:100D400090E09801082E01C0220F0A94EAF72423AC
:100D500019F02081252B02C02081262320830196B3
:100D600031968830910569F7D6C0813079F4D20187
:100D7000A60FB11DCC5FDE4FE881C450D140F0E03A
:100D8000E050FF4F808118968C93C5C0823051F49B
:100D9000F201E61BF109CC5FDE4F8881C450D140DF
:100DA000878BB9C0833009F0B6C0CC5FDE4F488175
:100DB000C450D140D80102C0AA0FBB1F6A95E2F708
:100DC000BD015A2F6095F40180E090E09801082E53
:100DD00001C0220F0A94EAF7242319F02081252B61
:100DE00002C0208126232083019631968830910508
:100DF00069F791C0B5E1FB1290C0CD5FDE4F68810D
:100E0000C350D140862F869586958695880FCE5FF4
:100E1000DE4F9881C250D140969596959695890F50
:100E2000677081110FC0D201A61BB109CC5FDE4FE4
:100E3000E881C450D140F0E0E050FF4F8081179628
:100E40008C9369C0813061F5CC5FDE4F4881C4501E
:100E5000D14087E090E0861B9109B80101C0660F80
:100E60008A95EAF7562F6095C355DE4FE881F981E0
:100E7000CD5AD14080E090E09801082E01C0220FA9
:100E80000A94EAF7242319F02081252B02C020813F
:100E900026232083019631968830910569F73BC05F
:100EA000823071F5CC5FDE4FE881C450D140F0E074
:100EB000E050FF4F4081F80102C0EE0FFF1F6A951E
:100EC000E2F7BF015E2F6095CB54DE4FE881F981D8
:100ED000C55BD14080E090E09801082E01C0220F50
:100EE0000A94EAF7242319F02081252B02C02081DF
:100EF00026232083019631968830910569F70BC02F
:100F0000833049F4F201E60FF11DCC5FDE4F88819A
:100F1000C450D140808FD3940CC0F7E1FF1209C0B8
:100F2000CE5FDE4F6881C250D1406F708AE00E9470
:100F30004D00312CA12C439A65CC9201285E3F4F85
:100F4000CB55DE4F39832883C55AD140CB54DE4F71
:100F500068807980C55BD140C355DE4F8880998019
:100F6000CD5AD140620110E0CB55DE4FA881B98146
:100F7000C55AD1400D91CB55DE4FB983A883C55AD0
:100F8000D140F30121913F01D4014D914D01F60172
:100F900061916F011F5F812F0E948100183021F73E
:100FA00080910403882309F440C2109204031BB803
:100FB0008FEF8AB98E2D90E0FC01EA5FFC4FDC01D7
:100FC000AA5BBB4F2C9120839C01285F3F4FF90106
:100FD000EA5FFC4FD901AA5BBB4F2C9120839C0197
:100FE000205F3F4FF901EA5FFC4FD901AA5BBB4F7D
:100FF0002C9120839C01285E3F4FF901EA5FFC4F52
:10100000D901AA5BBB4F2C912083F5E1FA95F1F74A
:101010000000779A2AE02A95F1F700C000E010E07E
:101020009C012A5B3B4FCD54DE4F39832883C35B41
:10103000D140C954DE4F39832883C75BD1409C011E
:101040002A593B4FC754DE4F39832883C95BD140AF
:1010500088E0D82EDE0C8D2D90E09C012A5B3B4F62
:10106000CB55DE4F39832883C55AD1409C012A597C
:101070003B4FC554DE4F39832883CB5BD14090E191
:10108000C92ECE0C8C2D90E09C012A5B3B4FC7559E
:10109000DE4F39832883C95AD1409C012A593B4FDE
:1010A000C354DE4F39832883CD5BD14028E1922E93
:1010B0009E0C292D30E0C154DE4F39832883CF5B4D
:1010C000D1402A5B3B4FC555DE4F39832883CB5A2D
:1010D000D140702E83B183FB662460F883FD11C07C
:1010E00081E090E0002E01C0880F0A94EAF7C9540D
:1010F000DE4FA881B981C75BD1409C91982B9C930E
:1011000011C081E090E0002E01C0880F0A94EAF738
:101110008095CD54DE4FE881F981C35BD140908149
:1011200089238083672D8E2D0E940A01C754DE4FCC
:10113000A881B981C95BD1402C91802E822F90E08B
:10114000002E02C0959587950A94E2F780FF2AC089
:1011500081E090E0002E01C0880F0A94EAF78095A4
:1011600082238C93EB2DF0E0611002C081E201C07C
:1011700080E221E030E02C0F3D1FE20FF31F80835F
:1011800081E08B0DF901E80FF11D87E0982F971989
:10119000908392E09B0DF901E90FF11D8E19808378
:1011A00033E0B30E83B182FB662460F882FD11C088
:1011B00081E090E0082C01C0880F0A94EAF7CB5533
:1011C000DE4FA881B981C55AD1409C91982B9C9340
:1011D00011C081E090E0082C01C0880F0A94EAF762
:1011E0008095CB55DE4FE881F981C55AD140908179
:1011F00089238083672D8D2D0E940A01C554DE4FFF
:10120000A881B981CB5BD1402C91822F90E0082C32
:1012100002C0959587950A94E2F780FF28C081E087
:1012200090E0082C01C0880F0A94EAF78095822389
:101230008C93EB2DF0E0611002C081E201C080E2EE
:1012400021E030E02C0F3D1FE20FF31F808381E08F
:101250008B0DF901E80FF11DD08282E08B0DF901B1
:10126000E80FF11D87E08719808333E0B30E83B167
:1012700081FB662460F881FD11C081E090E0082CBC
:1012800001C0880F0A94EAF7C755DE4FA881B981DB
:10129000C95AD1409C91982B9C9311C081E090E059
:1012A000082C01C0880F0A94EAF78095C755DE4FD5
:1012B000E881F981C95AD140908189238083672DC3
:1012C0008C2D0E940A01C354DE4FA881B981CD5BE9
:1012D000D1402C91822F90E0082C02C095958795E3
:1012E0000A94E2F780FF2AC081E090E0082C01C058
:1012F000880F0A94EAF7809582238C93EB2DF0E017
:10130000611002C081E201C080E221E030E02C0FD8
:101310003D1FE20FF31F808381E08B0DF901E80F81
:10132000F11D87E08E19808382E08B0DF901E80FB3
:10133000F11D88E0870D808333E0B30E83B1982FD1
:101340009170692E80FD11C081E090E0082C01C0F1
:10135000880F0A94EAF7C555DE4FA881B981CB5AA8
:10136000D1409C91982B9C9311C081E090E0082C77
:1013700001C0880F0A94EAF78095C555DE4FE881D1
:10138000F981CB5AD140908189238083672D892DA3
:101390000E940A01C154DE4FE881F981CF5BD14040
:1013A000EA59FB4F2081822F90E0082C02C09595CE
:1013B00087950A94E2F780FF28C081E090E0082C2E
:1013C00001C0880F0A94EAF7809582238083EB2D71
:1013D000F0E0611002C081E201C080E221E030E073
:1013E0002C0F3D1FE20FF31F808381E08B0DF9016D
:1013F000E80FF11D88E0870D808382E08B0DF901F5
:10140000E80FF11DD08233E0B30E769A76980F5F25
:101410001F4F0830110509F05CCE7798E3948E2DAC
:101420008770E82E8295807F85B91BB88FEF8AB9C7
:101430002B1461F0429AE1E0F0E0EC0FFD1FE20DA9
:10144000F11D80818BB942982394F2CF349902C068
:101450008B2DBBC910926E001FE0612F8AE00E94A5
:101460004D009FEFAFE1B3E09150A040B040E1F7F5
:1014700000C00000115088F760E08CE00E944D0031
:101480008B2D31E0C855DE4F3883C85AD1409DC9F5
:10149000B82E4FCD2F923F924F925F926F927F92D4
:1014A0008F929F92AF92BF92CF92DF92EF92FF9274
:1014B0000F931F93CF93DF93CDB7DEB7CA1BDB0B20
:1014C0000FB6F894DEBF0FBECDBF0994FB01DC015F
:0E14D00001900D920020E1F70895F894FFCFEF
:1014DE00008040C020A060E0109050D030B070F07E
:1014EE00088848C828A868E8189858D838B878F8EE
:1014FE00048444C424A464E4149454D434B474F41E
:10150E000C8C4CCC2CAC6CEC1C9C5CDC3CBC7CFC8D
:10151E00028242C222A262E2129252D232B272F21D
:10152E000A8A4ACA2AAA6AEA1A9A5ADA3ABA7AFA8D
:10153E00068646C626A666E6169656D636B676F6BD
:10154E000E8E4ECE2EAE6EEE1E9E5EDE3EBE7EFE2D
:10155E00018141C121A161E1119151D131B171F1ED
:10156E00098949C929A969E9199959D939B979F95D
:10157E00058545C525A565E5159555D535B575F58D
:10158E000D8D4DCD2DAD6DED1D9D5DDD3DBD7DFDFD
:10159E00038343C323A363E3139353D333B373F38D
:1015AE000B8B4BCB2BAB6BEB1B9B5BDB3BBB7BFBFD
:1015BE00078747C727A767E7179757D737B777F72D
:1015CE000F8F4FCF2FAF6FEF1F9F5FDF3FBF7FFF9D
:1015DE0001012101040103010300000000000001CC
:1015EE00030301010B0404020000000000000000D0
:1015FE0000000000000000000000000000000000DD
:10160E0000000000000000000000000000000000CC
:10161E0000000000000000000000000000000000BC
:10162E0000000000000000000000000000000000AC
:10163E00000000000000000000000000000000009C
:10164E00000000000000000000000000000000008C
:10165E00000000000000000000000000000000007C
:10166E00000000000000000000000000000000006C
:10167E00000000000000000000000000000000005C
:10168E00000000000000000000000000000000004C
:10169E00000000000000000000000000000000003C
:1016AE00000000000000000000000000000000002C
:1016BE00000000000000000000000000000000001C
:1016CE00000000000000000000000000000000000C
:0416DE006D6B000030
:00000001FF
